{
  "_format": "hh-sol-artifact-1",
  "contractName": "DOTT",
  "sourceName": "contracts/dMarket.sol",
  "abi": [
    {
      "inputs": [],
      "stateMutability": "nonpayable",
      "type": "constructor"
    },
    {
      "anonymous": false,
      "inputs": [
        {
          "indexed": true,
          "internalType": "address",
          "name": "owner",
          "type": "address"
        },
        {
          "indexed": true,
          "internalType": "address",
          "name": "approved",
          "type": "address"
        },
        {
          "indexed": true,
          "internalType": "uint256",
          "name": "tokenId",
          "type": "uint256"
        }
      ],
      "name": "Approval",
      "type": "event"
    },
    {
      "anonymous": false,
      "inputs": [
        {
          "indexed": true,
          "internalType": "address",
          "name": "owner",
          "type": "address"
        },
        {
          "indexed": true,
          "internalType": "address",
          "name": "operator",
          "type": "address"
        },
        {
          "indexed": false,
          "internalType": "bool",
          "name": "approved",
          "type": "bool"
        }
      ],
      "name": "ApprovalForAll",
      "type": "event"
    },
    {
      "anonymous": false,
      "inputs": [
        {
          "indexed": true,
          "internalType": "address",
          "name": "from",
          "type": "address"
        },
        {
          "indexed": true,
          "internalType": "address",
          "name": "to",
          "type": "address"
        },
        {
          "indexed": true,
          "internalType": "uint256",
          "name": "tokenId",
          "type": "uint256"
        }
      ],
      "name": "Transfer",
      "type": "event"
    },
    {
      "inputs": [
        {
          "internalType": "string",
          "name": "metadata",
          "type": "string"
        },
        {
          "internalType": "string",
          "name": "link",
          "type": "string"
        },
        {
          "internalType": "uint256",
          "name": "price",
          "type": "uint256"
        }
      ],
      "name": "addVideo",
      "outputs": [],
      "stateMutability": "nonpayable",
      "type": "function"
    },
    {
      "inputs": [
        {
          "internalType": "address",
          "name": "to",
          "type": "address"
        },
        {
          "internalType": "uint256",
          "name": "tokenId",
          "type": "uint256"
        }
      ],
      "name": "approve",
      "outputs": [],
      "stateMutability": "nonpayable",
      "type": "function"
    },
    {
      "inputs": [
        {
          "internalType": "address",
          "name": "owner",
          "type": "address"
        }
      ],
      "name": "balanceOf",
      "outputs": [
        {
          "internalType": "uint256",
          "name": "",
          "type": "uint256"
        }
      ],
      "stateMutability": "view",
      "type": "function"
    },
    {
      "inputs": [
        {
          "internalType": "uint256",
          "name": "id",
          "type": "uint256"
        },
        {
          "internalType": "string",
          "name": "postedVideos",
          "type": "string"
        }
      ],
      "name": "deleteVideo",
      "outputs": [],
      "stateMutability": "nonpayable",
      "type": "function"
    },
    {
      "inputs": [
        {
          "internalType": "uint256",
          "name": "tokenId",
          "type": "uint256"
        }
      ],
      "name": "getApproved",
      "outputs": [
        {
          "internalType": "address",
          "name": "",
          "type": "address"
        }
      ],
      "stateMutability": "view",
      "type": "function"
    },
    {
      "inputs": [
        {
          "internalType": "address",
          "name": "wallet",
          "type": "address"
        }
      ],
      "name": "getUserByWallet",
      "outputs": [
        {
          "components": [
            {
              "internalType": "string",
              "name": "username",
              "type": "string"
            },
            {
              "internalType": "string",
              "name": "bio",
              "type": "string"
            },
            {
              "internalType": "uint256",
              "name": "userId",
              "type": "uint256"
            },
            {
              "internalType": "string",
              "name": "viewedVideos",
              "type": "string"
            },
            {
              "internalType": "string",
              "name": "postedVideos",
              "type": "string"
            }
          ],
          "internalType": "struct DOTT.User",
          "name": "",
          "type": "tuple"
        }
      ],
      "stateMutability": "view",
      "type": "function"
    },
    {
      "inputs": [
        {
          "internalType": "uint256",
          "name": "id",
          "type": "uint256"
        }
      ],
      "name": "getVideoById",
      "outputs": [
        {
          "components": [
            {
              "internalType": "address",
              "name": "owner",
              "type": "address"
            },
            {
              "internalType": "string",
              "name": "metadata",
              "type": "string"
            },
            {
              "internalType": "uint256",
              "name": "viewCount",
              "type": "uint256"
            },
            {
              "internalType": "string",
              "name": "link",
              "type": "string"
            },
            {
              "internalType": "uint256",
              "name": "price",
              "type": "uint256"
            }
          ],
          "internalType": "struct DOTT.Video",
          "name": "",
          "type": "tuple"
        }
      ],
      "stateMutability": "view",
      "type": "function"
    },
    {
      "inputs": [
        {
          "internalType": "uint256",
          "name": "id",
          "type": "uint256"
        }
      ],
      "name": "getVideoOwnerAndPrice",
      "outputs": [
        {
          "internalType": "address",
          "name": "",
          "type": "address"
        },
        {
          "internalType": "uint256",
          "name": "",
          "type": "uint256"
        }
      ],
      "stateMutability": "view",
      "type": "function"
    },
    {
      "inputs": [],
      "name": "increaseUserCounter",
      "outputs": [
        {
          "internalType": "uint256",
          "name": "",
          "type": "uint256"
        }
      ],
      "stateMutability": "nonpayable",
      "type": "function"
    },
    {
      "inputs": [],
      "name": "increaseVideoCounter",
      "outputs": [
        {
          "internalType": "uint256",
          "name": "",
          "type": "uint256"
        }
      ],
      "stateMutability": "nonpayable",
      "type": "function"
    },
    {
      "inputs": [
        {
          "internalType": "address",
          "name": "owner",
          "type": "address"
        },
        {
          "internalType": "address",
          "name": "operator",
          "type": "address"
        }
      ],
      "name": "isApprovedForAll",
      "outputs": [
        {
          "internalType": "bool",
          "name": "",
          "type": "bool"
        }
      ],
      "stateMutability": "view",
      "type": "function"
    },
    {
      "inputs": [],
      "name": "name",
      "outputs": [
        {
          "internalType": "string",
          "name": "",
          "type": "string"
        }
      ],
      "stateMutability": "view",
      "type": "function"
    },
    {
      "inputs": [],
      "name": "owner",
      "outputs": [
        {
          "internalType": "address payable",
          "name": "",
          "type": "address"
        }
      ],
      "stateMutability": "view",
      "type": "function"
    },
    {
      "inputs": [
        {
          "internalType": "uint256",
          "name": "tokenId",
          "type": "uint256"
        }
      ],
      "name": "ownerOf",
      "outputs": [
        {
          "internalType": "address",
          "name": "",
          "type": "address"
        }
      ],
      "stateMutability": "view",
      "type": "function"
    },
    {
      "inputs": [
        {
          "internalType": "string",
          "name": "username",
          "type": "string"
        },
        {
          "internalType": "string",
          "name": "bio",
          "type": "string"
        }
      ],
      "name": "registerUser",
      "outputs": [],
      "stateMutability": "nonpayable",
      "type": "function"
    },
    {
      "inputs": [
        {
          "internalType": "address",
          "name": "from",
          "type": "address"
        },
        {
          "internalType": "address",
          "name": "to",
          "type": "address"
        },
        {
          "internalType": "uint256",
          "name": "tokenId",
          "type": "uint256"
        }
      ],
      "name": "safeTransferFrom",
      "outputs": [],
      "stateMutability": "nonpayable",
      "type": "function"
    },
    {
      "inputs": [
        {
          "internalType": "address",
          "name": "from",
          "type": "address"
        },
        {
          "internalType": "address",
          "name": "to",
          "type": "address"
        },
        {
          "internalType": "uint256",
          "name": "tokenId",
          "type": "uint256"
        },
        {
          "internalType": "bytes",
          "name": "data",
          "type": "bytes"
        }
      ],
      "name": "safeTransferFrom",
      "outputs": [],
      "stateMutability": "nonpayable",
      "type": "function"
    },
    {
      "inputs": [],
      "name": "sayHello",
      "outputs": [
        {
          "internalType": "string",
          "name": "",
          "type": "string"
        }
      ],
      "stateMutability": "pure",
      "type": "function"
    },
    {
      "inputs": [
        {
          "internalType": "address",
          "name": "operator",
          "type": "address"
        },
        {
          "internalType": "bool",
          "name": "approved",
          "type": "bool"
        }
      ],
      "name": "setApprovalForAll",
      "outputs": [],
      "stateMutability": "nonpayable",
      "type": "function"
    },
    {
      "inputs": [
        {
          "internalType": "bytes4",
          "name": "interfaceId",
          "type": "bytes4"
        }
      ],
      "name": "supportsInterface",
      "outputs": [
        {
          "internalType": "bool",
          "name": "",
          "type": "bool"
        }
      ],
      "stateMutability": "view",
      "type": "function"
    },
    {
      "inputs": [],
      "name": "symbol",
      "outputs": [
        {
          "internalType": "string",
          "name": "",
          "type": "string"
        }
      ],
      "stateMutability": "view",
      "type": "function"
    },
    {
      "inputs": [
        {
          "internalType": "uint256",
          "name": "tokenId",
          "type": "uint256"
        }
      ],
      "name": "tokenURI",
      "outputs": [
        {
          "internalType": "string",
          "name": "",
          "type": "string"
        }
      ],
      "stateMutability": "view",
      "type": "function"
    },
    {
      "inputs": [
        {
          "internalType": "address",
          "name": "from",
          "type": "address"
        },
        {
          "internalType": "address",
          "name": "to",
          "type": "address"
        },
        {
          "internalType": "uint256",
          "name": "tokenId",
          "type": "uint256"
        }
      ],
      "name": "transferFrom",
      "outputs": [],
      "stateMutability": "nonpayable",
      "type": "function"
    },
    {
      "inputs": [
        {
          "internalType": "string",
          "name": "username",
          "type": "string"
        },
        {
          "internalType": "string",
          "name": "bio",
          "type": "string"
        }
      ],
      "name": "updateUser",
      "outputs": [],
      "stateMutability": "nonpayable",
      "type": "function"
    },
    {
      "inputs": [
        {
          "internalType": "uint256",
          "name": "id",
          "type": "uint256"
        },
        {
          "internalType": "uint256",
          "name": "price",
          "type": "uint256"
        },
        {
          "internalType": "string",
          "name": "metadata",
          "type": "string"
        }
      ],
      "name": "updateVideo",
      "outputs": [],
      "stateMutability": "nonpayable",
      "type": "function"
    },
    {
      "inputs": [
        {
          "internalType": "string",
          "name": "viewedVideos",
          "type": "string"
        },
        {
          "internalType": "uint256",
          "name": "videoId",
          "type": "uint256"
        }
      ],
      "name": "updateViewedVideos",
      "outputs": [],
      "stateMutability": "nonpayable",
      "type": "function"
    },
    {
      "inputs": [
        {
          "internalType": "address",
          "name": "",
          "type": "address"
        }
      ],
      "name": "userMappings",
      "outputs": [
        {
          "internalType": "string",
          "name": "username",
          "type": "string"
        },
        {
          "internalType": "string",
          "name": "bio",
          "type": "string"
        },
        {
          "internalType": "uint256",
          "name": "userId",
          "type": "uint256"
        },
        {
          "internalType": "string",
          "name": "viewedVideos",
          "type": "string"
        },
        {
          "internalType": "string",
          "name": "postedVideos",
          "type": "string"
        }
      ],
      "stateMutability": "view",
      "type": "function"
    },
    {
      "inputs": [
        {
          "internalType": "uint256",
          "name": "",
          "type": "uint256"
        }
      ],
      "name": "videoMappings",
      "outputs": [
        {
          "internalType": "address",
          "name": "owner",
          "type": "address"
        },
        {
          "internalType": "string",
          "name": "metadata",
          "type": "string"
        },
        {
          "internalType": "uint256",
          "name": "viewCount",
          "type": "uint256"
        },
        {
          "internalType": "string",
          "name": "link",
          "type": "string"
        },
        {
          "internalType": "uint256",
          "name": "price",
          "type": "uint256"
        }
      ],
      "stateMutability": "view",
      "type": "function"
    }
  ],
  "bytecode": "0x6080604052600060085560006009553480156200001b57600080fd5b506040518060400160405280600481526020017f444f5454000000000000000000000000000000000000000000000000000000008152506040518060400160405280600481526020017f444f54540000000000000000000000000000000000000000000000000000000081525081600090816200009991906200036f565b508060019081620000ab91906200036f565b50505033600760006101000a81548173ffffffffffffffffffffffffffffffffffffffff021916908373ffffffffffffffffffffffffffffffffffffffff16021790555062000456565b600081519050919050565b7f4e487b7100000000000000000000000000000000000000000000000000000000600052604160045260246000fd5b7f4e487b7100000000000000000000000000000000000000000000000000000000600052602260045260246000fd5b600060028204905060018216806200017757607f821691505b6020821081036200018d576200018c6200012f565b5b50919050565b60008190508160005260206000209050919050565b60006020601f8301049050919050565b600082821b905092915050565b600060088302620001f77fffffffffffffffffffffffffffffffffffffffffffffffffffffffffffffffff82620001b8565b620002038683620001b8565b95508019841693508086168417925050509392505050565b6000819050919050565b6000819050919050565b6000620002506200024a62000244846200021b565b62000225565b6200021b565b9050919050565b6000819050919050565b6200026c836200022f565b620002846200027b8262000257565b848454620001c5565b825550505050565b600090565b6200029b6200028c565b620002a881848462000261565b505050565b5b81811015620002d057620002c460008262000291565b600181019050620002ae565b5050565b601f8211156200031f57620002e98162000193565b620002f484620001a8565b8101602085101562000304578190505b6200031c6200031385620001a8565b830182620002ad565b50505b505050565b600082821c905092915050565b6000620003446000198460080262000324565b1980831691505092915050565b60006200035f838362000331565b9150826002028217905092915050565b6200037a82620000f5565b67ffffffffffffffff81111562000396576200039562000100565b5b620003a282546200015e565b620003af828285620002d4565b600060209050601f831160018114620003e75760008415620003d2578287015190505b620003de858262000351565b8655506200044e565b601f198416620003f78662000193565b60005b828110156200042157848901518255600182019150602085019450602081019050620003fa565b868310156200044157848901516200043d601f89168262000331565b8355505b6001600288020188555050505b505050505050565b613f9680620004666000396000f3fe608060405234801561001057600080fd5b50600436106101c45760003560e01c80635a9e416c116100f9578063a9ba456011610097578063dd4a242511610071578063dd4a242514610544578063e985e9c514610560578063ef5fb05b14610590578063effa89b1146105ae576101c4565b8063a9ba4560146104c8578063b88d4fde146104f8578063c87b56dd14610514576101c4565b80638373ab5a116100d35780638373ab5a1461043f5780638da5cb5b1461047057806395d89b411461048e578063a22cb465146104ac576101c4565b80635a9e416c146103ab5780636352211e146103df57806370a082311461040f576101c4565b80631d2e4afd11610166578063390d2e9911610140578063390d2e991461030f5780633b0328be1461034357806342842e0e1461037357806352f8d10f1461038f576101c4565b80631d2e4afd146102bb57806323b872dd146102d757806326d4a0c5146102f3576101c4565b8063095ea7b3116101a2578063095ea7b31461024757806309e99fbd146102635780630debb9321461028157806318f362011461029f576101c4565b806301ffc9a7146101c957806306fdde03146101f9578063081812fc14610217575b600080fd5b6101e360048036038101906101de9190612981565b6105ca565b6040516101f091906129c9565b60405180910390f35b6102016106ac565b60405161020e9190612a74565b60405180910390f35b610231600480360381019061022c9190612acc565b61073e565b60405161023e9190612b3a565b60405180910390f35b610261600480360381019061025c9190612b81565b610784565b005b61026b61089b565b6040516102789190612bd0565b60405180910390f35b6102896108bd565b6040516102969190612bd0565b60405180910390f35b6102b960048036038101906102b49190612d20565b6108df565b005b6102d560048036038101906102d09190612d7c565b61095f565b005b6102f160048036038101906102ec9190612df4565b610a59565b005b61030d60048036038101906103089190612e47565b610ab9565b005b61032960048036038101906103249190612acc565b610b7a565b60405161033a959493929190612ea3565b60405180910390f35b61035d60048036038101906103589190612f04565b610ce0565b60405161036a9190613015565b60405180910390f35b61038d60048036038101906103889190612df4565b610f8b565b005b6103a960048036038101906103a49190613037565b610fab565b005b6103c560048036038101906103c09190612f04565b611098565b6040516103d69594939291906130c2565b60405180910390f35b6103f960048036038101906103f49190612acc565b6112ee565b6040516104069190612b3a565b60405180910390f35b61042960048036038101906104249190612f04565b611374565b6040516104369190612bd0565b60405180910390f35b61045960048036038101906104549190612acc565b61142b565b604051610467929190613131565b60405180910390f35b610478611485565b604051610485919061317b565b60405180910390f35b6104966114ab565b6040516104a39190612a74565b60405180910390f35b6104c660048036038101906104c191906131c2565b61153d565b005b6104e260048036038101906104dd9190612acc565b611553565b6040516104ef919061328e565b60405180910390f35b610512600480360381019061050d9190613351565b61170e565b005b61052e60048036038101906105299190612acc565b611770565b60405161053b9190612a74565b60405180910390f35b61055e60048036038101906105599190612d7c565b611882565b005b61057a600480360381019061057591906133d4565b611926565b60405161058791906129c9565b60405180910390f35b6105986119ba565b6040516105a59190612a74565b60405180910390f35b6105c860048036038101906105c39190613414565b6119f7565b005b60007f80ac58cd000000000000000000000000000000000000000000000000000000007bffffffffffffffffffffffffffffffffffffffffffffffffffffffff1916827bffffffffffffffffffffffffffffffffffffffffffffffffffffffff1916148061069557507f5b5e139f000000000000000000000000000000000000000000000000000000007bffffffffffffffffffffffffffffffffffffffffffffffffffffffff1916827bffffffffffffffffffffffffffffffffffffffffffffffffffffffff1916145b806106a557506106a482611b84565b5b9050919050565b6060600080546106bb906134b2565b80601f01602080910402602001604051908101604052809291908181526020018280546106e7906134b2565b80156107345780601f1061070957610100808354040283529160200191610734565b820191906000526020600020905b81548152906001019060200180831161071757829003601f168201915b5050505050905090565b600061074982611bee565b6004600083815260200190815260200160002060009054906101000a900473ffffffffffffffffffffffffffffffffffffffff169050919050565b600061078f826112ee565b90508073ffffffffffffffffffffffffffffffffffffffff168373ffffffffffffffffffffffffffffffffffffffff16036107ff576040517f08c379a00000000000000000000000000000000000000000000000000000000081526004016107f690613555565b60405180910390fd5b8073ffffffffffffffffffffffffffffffffffffffff1661081e611c39565b73ffffffffffffffffffffffffffffffffffffffff16148061084d575061084c81610847611c39565b611926565b5b61088c576040517f08c379a0000000000000000000000000000000000000000000000000000000008152600401610883906135e7565b60405180910390fd5b6108968383611c41565b505050565b6000600860008154809291906108b090613636565b9190505550600854905090565b6000600960008154809291906108d290613636565b9190505550600954905090565b81600a60003373ffffffffffffffffffffffffffffffffffffffff1673ffffffffffffffffffffffffffffffffffffffff168152602001908152602001600020600301908161092e919061382a565b50600b6000828152602001908152602001600020600201600081548092919061095690613636565b91905055505050565b600061096961089b565b90506040518060a0016040528084815260200183815260200182815260200160405180602001604052806000815250815260200160405180602001604052806000815250815250600a60003373ffffffffffffffffffffffffffffffffffffffff1673ffffffffffffffffffffffffffffffffffffffff1681526020019081526020016000206000820151816000019081610a04919061382a565b506020820151816001019081610a1a919061382a565b50604082015181600201556060820151816003019081610a3a919061382a565b506080820151816004019081610a50919061382a565b50905050505050565b610a6a610a64611c39565b82611cfa565b610aa9576040517f08c379a0000000000000000000000000000000000000000000000000000000008152600401610aa09061396e565b60405180910390fd5b610ab4838383611d8f565b505050565b80600a60003373ffffffffffffffffffffffffffffffffffffffff1673ffffffffffffffffffffffffffffffffffffffff1681526020019081526020016000206004019081610b08919061382a565b50600b6000838152602001908152602001600020600080820160006101000a81549073ffffffffffffffffffffffffffffffffffffffff0219169055600182016000610b549190612844565b6002820160009055600382016000610b6c9190612844565b600482016000905550505050565b600b6020528060005260406000206000915090508060000160009054906101000a900473ffffffffffffffffffffffffffffffffffffffff1690806001018054610bc3906134b2565b80601f0160208091040260200160405190810160405280929190818152602001828054610bef906134b2565b8015610c3c5780601f10610c1157610100808354040283529160200191610c3c565b820191906000526020600020905b815481529060010190602001808311610c1f57829003601f168201915b505050505090806002015490806003018054610c57906134b2565b80601f0160208091040260200160405190810160405280929190818152602001828054610c83906134b2565b8015610cd05780601f10610ca557610100808354040283529160200191610cd0565b820191906000526020600020905b815481529060010190602001808311610cb357829003601f168201915b5050505050908060040154905085565b610ce8612884565b600a60008373ffffffffffffffffffffffffffffffffffffffff1673ffffffffffffffffffffffffffffffffffffffff1681526020019081526020016000206040518060a0016040529081600082018054610d42906134b2565b80601f0160208091040260200160405190810160405280929190818152602001828054610d6e906134b2565b8015610dbb5780601f10610d9057610100808354040283529160200191610dbb565b820191906000526020600020905b815481529060010190602001808311610d9e57829003601f168201915b50505050508152602001600182018054610dd4906134b2565b80601f0160208091040260200160405190810160405280929190818152602001828054610e00906134b2565b8015610e4d5780601f10610e2257610100808354040283529160200191610e4d565b820191906000526020600020905b815481529060010190602001808311610e3057829003601f168201915b5050505050815260200160028201548152602001600382018054610e70906134b2565b80601f0160208091040260200160405190810160405280929190818152602001828054610e9c906134b2565b8015610ee95780601f10610ebe57610100808354040283529160200191610ee9565b820191906000526020600020905b815481529060010190602001808311610ecc57829003601f168201915b50505050508152602001600482018054610f02906134b2565b80601f0160208091040260200160405190810160405280929190818152602001828054610f2e906134b2565b8015610f7b5780601f10610f5057610100808354040283529160200191610f7b565b820191906000526020600020905b815481529060010190602001808311610f5e57829003601f168201915b5050505050815250509050919050565b610fa68383836040518060200160405280600081525061170e565b505050565b6000610fb56108bd565b90506040518060a001604052803373ffffffffffffffffffffffffffffffffffffffff1681526020018581526020016000815260200184815260200183815250600b600083815260200190815260200160002060008201518160000160006101000a81548173ffffffffffffffffffffffffffffffffffffffff021916908373ffffffffffffffffffffffffffffffffffffffff1602179055506020820151816001019081611064919061382a565b50604082015181600201556060820151816003019081611084919061382a565b506080820151816004015590505050505050565b600a6020528060005260406000206000915090508060000180546110bb906134b2565b80601f01602080910402602001604051908101604052809291908181526020018280546110e7906134b2565b80156111345780601f1061110957610100808354040283529160200191611134565b820191906000526020600020905b81548152906001019060200180831161111757829003601f168201915b505050505090806001018054611149906134b2565b80601f0160208091040260200160405190810160405280929190818152602001828054611175906134b2565b80156111c25780601f10611197576101008083540402835291602001916111c2565b820191906000526020600020905b8154815290600101906020018083116111a557829003601f168201915b5050505050908060020154908060030180546111dd906134b2565b80601f0160208091040260200160405190810160405280929190818152602001828054611209906134b2565b80156112565780601f1061122b57610100808354040283529160200191611256565b820191906000526020600020905b81548152906001019060200180831161123957829003601f168201915b50505050509080600401805461126b906134b2565b80601f0160208091040260200160405190810160405280929190818152602001828054611297906134b2565b80156112e45780601f106112b9576101008083540402835291602001916112e4565b820191906000526020600020905b8154815290600101906020018083116112c757829003601f168201915b5050505050905085565b6000806112fa83612088565b9050600073ffffffffffffffffffffffffffffffffffffffff168173ffffffffffffffffffffffffffffffffffffffff160361136b576040517f08c379a0000000000000000000000000000000000000000000000000000000008152600401611362906139da565b60405180910390fd5b80915050919050565b60008073ffffffffffffffffffffffffffffffffffffffff168273ffffffffffffffffffffffffffffffffffffffff16036113e4576040517f08c379a00000000000000000000000000000000000000000000000000000000081526004016113db90613a6c565b60405180910390fd5b600360008373ffffffffffffffffffffffffffffffffffffffff1673ffffffffffffffffffffffffffffffffffffffff168152602001908152602001600020549050919050565b600080600b600084815260200190815260200160002060000160009054906101000a900473ffffffffffffffffffffffffffffffffffffffff16600b60008581526020019081526020016000206004015491509150915091565b600760009054906101000a900473ffffffffffffffffffffffffffffffffffffffff1681565b6060600180546114ba906134b2565b80601f01602080910402602001604051908101604052809291908181526020018280546114e6906134b2565b80156115335780601f1061150857610100808354040283529160200191611533565b820191906000526020600020905b81548152906001019060200180831161151657829003601f168201915b5050505050905090565b61154f611548611c39565b83836120c5565b5050565b61155b6128b3565b600b60008381526020019081526020016000206040518060a00160405290816000820160009054906101000a900473ffffffffffffffffffffffffffffffffffffffff1673ffffffffffffffffffffffffffffffffffffffff1673ffffffffffffffffffffffffffffffffffffffff1681526020016001820180546115df906134b2565b80601f016020809104026020016040519081016040528092919081815260200182805461160b906134b2565b80156116585780601f1061162d57610100808354040283529160200191611658565b820191906000526020600020905b81548152906001019060200180831161163b57829003601f168201915b505050505081526020016002820154815260200160038201805461167b906134b2565b80601f01602080910402602001604051908101604052809291908181526020018280546116a7906134b2565b80156116f45780601f106116c9576101008083540402835291602001916116f4565b820191906000526020600020905b8154815290600101906020018083116116d757829003601f168201915b505050505081526020016004820154815250509050919050565b61171f611719611c39565b83611cfa565b61175e576040517f08c379a00000000000000000000000000000000000000000000000000000000081526004016117559061396e565b60405180910390fd5b61176a84848484612231565b50505050565b606061177b82611bee565b600060066000848152602001908152602001600020805461179b906134b2565b80601f01602080910402602001604051908101604052809291908181526020018280546117c7906134b2565b80156118145780601f106117e957610100808354040283529160200191611814565b820191906000526020600020905b8154815290600101906020018083116117f757829003601f168201915b50505050509050600061182561228d565b9050600081510361183a57819250505061187d565b60008251111561186f578082604051602001611857929190613ac8565b6040516020818303038152906040529250505061187d565b611878846122a4565b925050505b919050565b80600a60003373ffffffffffffffffffffffffffffffffffffffff1673ffffffffffffffffffffffffffffffffffffffff16815260200190815260200160002060010190816118d1919061382a565b5081600a60003373ffffffffffffffffffffffffffffffffffffffff1673ffffffffffffffffffffffffffffffffffffffff1681526020019081526020016000206000019081611921919061382a565b505050565b6000600560008473ffffffffffffffffffffffffffffffffffffffff1673ffffffffffffffffffffffffffffffffffffffff16815260200190815260200160002060008373ffffffffffffffffffffffffffffffffffffffff1673ffffffffffffffffffffffffffffffffffffffff16815260200190815260200160002060009054906101000a900460ff16905092915050565b60606040518060400160405280600b81526020017f48656c6c6f207468657265000000000000000000000000000000000000000000815250905090565b3373ffffffffffffffffffffffffffffffffffffffff16600b600085815260200190815260200160002060000160009054906101000a900473ffffffffffffffffffffffffffffffffffffffff1673ffffffffffffffffffffffffffffffffffffffff1614611a9b576040517f08c379a0000000000000000000000000000000000000000000000000000000008152600401611a9290613b38565b60405180910390fd5b600073ffffffffffffffffffffffffffffffffffffffff16600b600085815260200190815260200160002060000160009054906101000a900473ffffffffffffffffffffffffffffffffffffffff1673ffffffffffffffffffffffffffffffffffffffff1603611b40576040517f08c379a0000000000000000000000000000000000000000000000000000000008152600401611b3790613ba4565b60405180910390fd5b80600b60008581526020019081526020016000206001019081611b63919061382a565b5081600b600085815260200190815260200160002060040181905550505050565b60007f01ffc9a7000000000000000000000000000000000000000000000000000000007bffffffffffffffffffffffffffffffffffffffffffffffffffffffff1916827bffffffffffffffffffffffffffffffffffffffffffffffffffffffff1916149050919050565b611bf78161230c565b611c36576040517f08c379a0000000000000000000000000000000000000000000000000000000008152600401611c2d906139da565b60405180910390fd5b50565b600033905090565b816004600083815260200190815260200160002060006101000a81548173ffffffffffffffffffffffffffffffffffffffff021916908373ffffffffffffffffffffffffffffffffffffffff160217905550808273ffffffffffffffffffffffffffffffffffffffff16611cb4836112ee565b73ffffffffffffffffffffffffffffffffffffffff167f8c5be1e5ebec7d5bd14f71427d1e84f3dd0314c0f7b2291e5b200ac8c7c3b92560405160405180910390a45050565b600080611d06836112ee565b90508073ffffffffffffffffffffffffffffffffffffffff168473ffffffffffffffffffffffffffffffffffffffff161480611d485750611d478185611926565b5b80611d8657508373ffffffffffffffffffffffffffffffffffffffff16611d6e8461073e565b73ffffffffffffffffffffffffffffffffffffffff16145b91505092915050565b8273ffffffffffffffffffffffffffffffffffffffff16611daf826112ee565b73ffffffffffffffffffffffffffffffffffffffff1614611e05576040517f08c379a0000000000000000000000000000000000000000000000000000000008152600401611dfc90613c36565b60405180910390fd5b600073ffffffffffffffffffffffffffffffffffffffff168273ffffffffffffffffffffffffffffffffffffffff1603611e74576040517f08c379a0000000000000000000000000000000000000000000000000000000008152600401611e6b90613cc8565b60405180910390fd5b611e81838383600161234d565b8273ffffffffffffffffffffffffffffffffffffffff16611ea1826112ee565b73ffffffffffffffffffffffffffffffffffffffff1614611ef7576040517f08c379a0000000000000000000000000000000000000000000000000000000008152600401611eee90613c36565b60405180910390fd5b6004600082815260200190815260200160002060006101000a81549073ffffffffffffffffffffffffffffffffffffffff02191690556001600360008573ffffffffffffffffffffffffffffffffffffffff1673ffffffffffffffffffffffffffffffffffffffff168152602001908152602001600020600082825403925050819055506001600360008473ffffffffffffffffffffffffffffffffffffffff1673ffffffffffffffffffffffffffffffffffffffff16815260200190815260200160002060008282540192505081905550816002600083815260200190815260200160002060006101000a81548173ffffffffffffffffffffffffffffffffffffffff021916908373ffffffffffffffffffffffffffffffffffffffff160217905550808273ffffffffffffffffffffffffffffffffffffffff168473ffffffffffffffffffffffffffffffffffffffff167fddf252ad1be2c89b69c2b068fc378daa952ba7f163c4a11628f55a4df523b3ef60405160405180910390a46120838383836001612473565b505050565b60006002600083815260200190815260200160002060009054906101000a900473ffffffffffffffffffffffffffffffffffffffff169050919050565b8173ffffffffffffffffffffffffffffffffffffffff168373ffffffffffffffffffffffffffffffffffffffff1603612133576040517f08c379a000000000000000000000000000000000000000000000000000000000815260040161212a90613d34565b60405180910390fd5b80600560008573ffffffffffffffffffffffffffffffffffffffff1673ffffffffffffffffffffffffffffffffffffffff16815260200190815260200160002060008473ffffffffffffffffffffffffffffffffffffffff1673ffffffffffffffffffffffffffffffffffffffff16815260200190815260200160002060006101000a81548160ff0219169083151502179055508173ffffffffffffffffffffffffffffffffffffffff168373ffffffffffffffffffffffffffffffffffffffff167f17307eab39ab6107e8899845ad3d59bd9653f200f220920489ca2b5937696c318360405161222491906129c9565b60405180910390a3505050565b61223c848484611d8f565b61224884848484612479565b612287576040517f08c379a000000000000000000000000000000000000000000000000000000000815260040161227e90613dc6565b60405180910390fd5b50505050565b606060405180602001604052806000815250905090565b60606122af82611bee565b60006122b961228d565b905060008151116122d95760405180602001604052806000815250612304565b806122e384612600565b6040516020016122f4929190613ac8565b6040516020818303038152906040525b915050919050565b60008073ffffffffffffffffffffffffffffffffffffffff1661232e83612088565b73ffffffffffffffffffffffffffffffffffffffff1614159050919050565b600181111561246d57600073ffffffffffffffffffffffffffffffffffffffff168473ffffffffffffffffffffffffffffffffffffffff16146123e15780600360008673ffffffffffffffffffffffffffffffffffffffff1673ffffffffffffffffffffffffffffffffffffffff16815260200190815260200160002060008282546123d99190613de6565b925050819055505b600073ffffffffffffffffffffffffffffffffffffffff168373ffffffffffffffffffffffffffffffffffffffff161461246c5780600360008573ffffffffffffffffffffffffffffffffffffffff1673ffffffffffffffffffffffffffffffffffffffff16815260200190815260200160002060008282546124649190613e1a565b925050819055505b5b50505050565b50505050565b600061249a8473ffffffffffffffffffffffffffffffffffffffff166126ce565b156125f3578373ffffffffffffffffffffffffffffffffffffffff1663150b7a026124c3611c39565b8786866040518563ffffffff1660e01b81526004016124e59493929190613ea3565b6020604051808303816000875af192505050801561252157506040513d601f19601f8201168201806040525081019061251e9190613f04565b60015b6125a3573d8060008114612551576040519150601f19603f3d011682016040523d82523d6000602084013e612556565b606091505b50600081510361259b576040517f08c379a000000000000000000000000000000000000000000000000000000000815260040161259290613dc6565b60405180910390fd5b805181602001fd5b63150b7a0260e01b7bffffffffffffffffffffffffffffffffffffffffffffffffffffffff1916817bffffffffffffffffffffffffffffffffffffffffffffffffffffffff1916149150506125f8565b600190505b949350505050565b60606000600161260f846126f1565b01905060008167ffffffffffffffff81111561262e5761262d612bf5565b5b6040519080825280601f01601f1916602001820160405280156126605781602001600182028036833780820191505090505b509050600082602001820190505b6001156126c3578080600190039150507f3031323334353637383961626364656600000000000000000000000000000000600a86061a8153600a85816126b7576126b6613f31565b5b0494506000850361266e575b819350505050919050565b6000808273ffffffffffffffffffffffffffffffffffffffff163b119050919050565b600080600090507a184f03e93ff9f4daa797ed6e38ed64bf6a1f010000000000000000831061274f577a184f03e93ff9f4daa797ed6e38ed64bf6a1f010000000000000000838161274557612744613f31565b5b0492506040810190505b6d04ee2d6d415b85acef8100000000831061278c576d04ee2d6d415b85acef8100000000838161278257612781613f31565b5b0492506020810190505b662386f26fc1000083106127bb57662386f26fc1000083816127b1576127b0613f31565b5b0492506010810190505b6305f5e10083106127e4576305f5e10083816127da576127d9613f31565b5b0492506008810190505b61271083106128095761271083816127ff576127fe613f31565b5b0492506004810190505b6064831061282c576064838161282257612821613f31565b5b0492506002810190505b600a831061283b576001810190505b80915050919050565b508054612850906134b2565b6000825580601f106128625750612881565b601f01602090049060005260206000209081019061288091906128f8565b5b50565b6040518060a0016040528060608152602001606081526020016000815260200160608152602001606081525090565b6040518060a00160405280600073ffffffffffffffffffffffffffffffffffffffff168152602001606081526020016000815260200160608152602001600081525090565b5b808211156129115760008160009055506001016128f9565b5090565b6000604051905090565b600080fd5b600080fd5b60007fffffffff0000000000000000000000000000000000000000000000000000000082169050919050565b61295e81612929565b811461296957600080fd5b50565b60008135905061297b81612955565b92915050565b6000602082840312156129975761299661291f565b5b60006129a58482850161296c565b91505092915050565b60008115159050919050565b6129c3816129ae565b82525050565b60006020820190506129de60008301846129ba565b92915050565b600081519050919050565b600082825260208201905092915050565b60005b83811015612a1e578082015181840152602081019050612a03565b60008484015250505050565b6000601f19601f8301169050919050565b6000612a46826129e4565b612a5081856129ef565b9350612a60818560208601612a00565b612a6981612a2a565b840191505092915050565b60006020820190508181036000830152612a8e8184612a3b565b905092915050565b6000819050919050565b612aa981612a96565b8114612ab457600080fd5b50565b600081359050612ac681612aa0565b92915050565b600060208284031215612ae257612ae161291f565b5b6000612af084828501612ab7565b91505092915050565b600073ffffffffffffffffffffffffffffffffffffffff82169050919050565b6000612b2482612af9565b9050919050565b612b3481612b19565b82525050565b6000602082019050612b4f6000830184612b2b565b92915050565b612b5e81612b19565b8114612b6957600080fd5b50565b600081359050612b7b81612b55565b92915050565b60008060408385031215612b9857612b9761291f565b5b6000612ba685828601612b6c565b9250506020612bb785828601612ab7565b9150509250929050565b612bca81612a96565b82525050565b6000602082019050612be56000830184612bc1565b92915050565b600080fd5b600080fd5b7f4e487b7100000000000000000000000000000000000000000000000000000000600052604160045260246000fd5b612c2d82612a2a565b810181811067ffffffffffffffff82111715612c4c57612c4b612bf5565b5b80604052505050565b6000612c5f612915565b9050612c6b8282612c24565b919050565b600067ffffffffffffffff821115612c8b57612c8a612bf5565b5b612c9482612a2a565b9050602081019050919050565b82818337600083830152505050565b6000612cc3612cbe84612c70565b612c55565b905082815260208101848484011115612cdf57612cde612bf0565b5b612cea848285612ca1565b509392505050565b600082601f830112612d0757612d06612beb565b5b8135612d17848260208601612cb0565b91505092915050565b60008060408385031215612d3757612d3661291f565b5b600083013567ffffffffffffffff811115612d5557612d54612924565b5b612d6185828601612cf2565b9250506020612d7285828601612ab7565b9150509250929050565b60008060408385031215612d9357612d9261291f565b5b600083013567ffffffffffffffff811115612db157612db0612924565b5b612dbd85828601612cf2565b925050602083013567ffffffffffffffff811115612dde57612ddd612924565b5b612dea85828601612cf2565b9150509250929050565b600080600060608486031215612e0d57612e0c61291f565b5b6000612e1b86828701612b6c565b9350506020612e2c86828701612b6c565b9250506040612e3d86828701612ab7565b9150509250925092565b60008060408385031215612e5e57612e5d61291f565b5b6000612e6c85828601612ab7565b925050602083013567ffffffffffffffff811115612e8d57612e8c612924565b5b612e9985828601612cf2565b9150509250929050565b600060a082019050612eb86000830188612b2b565b8181036020830152612eca8187612a3b565b9050612ed96040830186612bc1565b8181036060830152612eeb8185612a3b565b9050612efa6080830184612bc1565b9695505050505050565b600060208284031215612f1a57612f1961291f565b5b6000612f2884828501612b6c565b91505092915050565b600082825260208201905092915050565b6000612f4d826129e4565b612f578185612f31565b9350612f67818560208601612a00565b612f7081612a2a565b840191505092915050565b612f8481612a96565b82525050565b600060a0830160008301518482036000860152612fa78282612f42565b91505060208301518482036020860152612fc18282612f42565b9150506040830151612fd66040860182612f7b565b5060608301518482036060860152612fee8282612f42565b915050608083015184820360808601526130088282612f42565b9150508091505092915050565b6000602082019050818103600083015261302f8184612f8a565b905092915050565b6000806000606084860312156130505761304f61291f565b5b600084013567ffffffffffffffff81111561306e5761306d612924565b5b61307a86828701612cf2565b935050602084013567ffffffffffffffff81111561309b5761309a612924565b5b6130a786828701612cf2565b92505060406130b886828701612ab7565b9150509250925092565b600060a08201905081810360008301526130dc8188612a3b565b905081810360208301526130f08187612a3b565b90506130ff6040830186612bc1565b81810360608301526131118185612a3b565b905081810360808301526131258184612a3b565b90509695505050505050565b60006040820190506131466000830185612b2b565b6131536020830184612bc1565b9392505050565b600061316582612af9565b9050919050565b6131758161315a565b82525050565b6000602082019050613190600083018461316c565b92915050565b61319f816129ae565b81146131aa57600080fd5b50565b6000813590506131bc81613196565b92915050565b600080604083850312156131d9576131d861291f565b5b60006131e785828601612b6c565b92505060206131f8858286016131ad565b9150509250929050565b61320b81612b19565b82525050565b600060a0830160008301516132296000860182613202565b50602083015184820360208601526132418282612f42565b91505060408301516132566040860182612f7b565b506060830151848203606086015261326e8282612f42565b91505060808301516132836080860182612f7b565b508091505092915050565b600060208201905081810360008301526132a88184613211565b905092915050565b600067ffffffffffffffff8211156132cb576132ca612bf5565b5b6132d482612a2a565b9050602081019050919050565b60006132f46132ef846132b0565b612c55565b9050828152602081018484840111156133105761330f612bf0565b5b61331b848285612ca1565b509392505050565b600082601f83011261333857613337612beb565b5b81356133488482602086016132e1565b91505092915050565b6000806000806080858703121561336b5761336a61291f565b5b600061337987828801612b6c565b945050602061338a87828801612b6c565b935050604061339b87828801612ab7565b925050606085013567ffffffffffffffff8111156133bc576133bb612924565b5b6133c887828801613323565b91505092959194509250565b600080604083850312156133eb576133ea61291f565b5b60006133f985828601612b6c565b925050602061340a85828601612b6c565b9150509250929050565b60008060006060848603121561342d5761342c61291f565b5b600061343b86828701612ab7565b935050602061344c86828701612ab7565b925050604084013567ffffffffffffffff81111561346d5761346c612924565b5b61347986828701612cf2565b9150509250925092565b7f4e487b7100000000000000000000000000000000000000000000000000000000600052602260045260246000fd5b600060028204905060018216806134ca57607f821691505b6020821081036134dd576134dc613483565b5b50919050565b7f4552433732313a20617070726f76616c20746f2063757272656e74206f776e6560008201527f7200000000000000000000000000000000000000000000000000000000000000602082015250565b600061353f6021836129ef565b915061354a826134e3565b604082019050919050565b6000602082019050818103600083015261356e81613532565b9050919050565b7f4552433732313a20617070726f76652063616c6c6572206973206e6f7420746f60008201527f6b656e206f776e6572206f7220617070726f76656420666f7220616c6c000000602082015250565b60006135d1603d836129ef565b91506135dc82613575565b604082019050919050565b60006020820190508181036000830152613600816135c4565b9050919050565b7f4e487b7100000000000000000000000000000000000000000000000000000000600052601160045260246000fd5b600061364182612a96565b91507fffffffffffffffffffffffffffffffffffffffffffffffffffffffffffffffff820361367357613672613607565b5b600182019050919050565b60008190508160005260206000209050919050565b60006020601f8301049050919050565b600082821b905092915050565b6000600883026136e07fffffffffffffffffffffffffffffffffffffffffffffffffffffffffffffffff826136a3565b6136ea86836136a3565b95508019841693508086168417925050509392505050565b6000819050919050565b600061372761372261371d84612a96565b613702565b612a96565b9050919050565b6000819050919050565b6137418361370c565b61375561374d8261372e565b8484546136b0565b825550505050565b600090565b61376a61375d565b613775818484613738565b505050565b5b818110156137995761378e600082613762565b60018101905061377b565b5050565b601f8211156137de576137af8161367e565b6137b884613693565b810160208510156137c7578190505b6137db6137d385613693565b83018261377a565b50505b505050565b600082821c905092915050565b6000613801600019846008026137e3565b1980831691505092915050565b600061381a83836137f0565b9150826002028217905092915050565b613833826129e4565b67ffffffffffffffff81111561384c5761384b612bf5565b5b61385682546134b2565b61386182828561379d565b600060209050601f8311600181146138945760008415613882578287015190505b61388c858261380e565b8655506138f4565b601f1984166138a28661367e565b60005b828110156138ca578489015182556001820191506020850194506020810190506138a5565b868310156138e757848901516138e3601f8916826137f0565b8355505b6001600288020188555050505b505050505050565b7f4552433732313a2063616c6c6572206973206e6f7420746f6b656e206f776e6560008201527f72206f7220617070726f76656400000000000000000000000000000000000000602082015250565b6000613958602d836129ef565b9150613963826138fc565b604082019050919050565b600060208201905081810360008301526139878161394b565b9050919050565b7f4552433732313a20696e76616c696420746f6b656e2049440000000000000000600082015250565b60006139c46018836129ef565b91506139cf8261398e565b602082019050919050565b600060208201905081810360008301526139f3816139b7565b9050919050565b7f4552433732313a2061646472657373207a65726f206973206e6f74206120766160008201527f6c6964206f776e65720000000000000000000000000000000000000000000000602082015250565b6000613a566029836129ef565b9150613a61826139fa565b604082019050919050565b60006020820190508181036000830152613a8581613a49565b9050919050565b600081905092915050565b6000613aa2826129e4565b613aac8185613a8c565b9350613abc818560208601612a00565b80840191505092915050565b6000613ad48285613a97565b9150613ae08284613a97565b91508190509392505050565b7f596f7520617265206e6f7420617574686f72697a656400000000000000000000600082015250565b6000613b226016836129ef565b9150613b2d82613aec565b602082019050919050565b60006020820190508181036000830152613b5181613b15565b9050919050565b7f566964656f20646f6573206e6f74206578697374000000000000000000000000600082015250565b6000613b8e6014836129ef565b9150613b9982613b58565b602082019050919050565b60006020820190508181036000830152613bbd81613b81565b9050919050565b7f4552433732313a207472616e736665722066726f6d20696e636f72726563742060008201527f6f776e6572000000000000000000000000000000000000000000000000000000602082015250565b6000613c206025836129ef565b9150613c2b82613bc4565b604082019050919050565b60006020820190508181036000830152613c4f81613c13565b9050919050565b7f4552433732313a207472616e7366657220746f20746865207a65726f2061646460008201527f7265737300000000000000000000000000000000000000000000000000000000602082015250565b6000613cb26024836129ef565b9150613cbd82613c56565b604082019050919050565b60006020820190508181036000830152613ce181613ca5565b9050919050565b7f4552433732313a20617070726f766520746f2063616c6c657200000000000000600082015250565b6000613d1e6019836129ef565b9150613d2982613ce8565b602082019050919050565b60006020820190508181036000830152613d4d81613d11565b9050919050565b7f4552433732313a207472616e7366657220746f206e6f6e20455243373231526560008201527f63656976657220696d706c656d656e7465720000000000000000000000000000602082015250565b6000613db06032836129ef565b9150613dbb82613d54565b604082019050919050565b60006020820190508181036000830152613ddf81613da3565b9050919050565b6000613df182612a96565b9150613dfc83612a96565b9250828203905081811115613e1457613e13613607565b5b92915050565b6000613e2582612a96565b9150613e3083612a96565b9250828201905080821115613e4857613e47613607565b5b92915050565b600081519050919050565b600082825260208201905092915050565b6000613e7582613e4e565b613e7f8185613e59565b9350613e8f818560208601612a00565b613e9881612a2a565b840191505092915050565b6000608082019050613eb86000830187612b2b565b613ec56020830186612b2b565b613ed26040830185612bc1565b8181036060830152613ee48184613e6a565b905095945050505050565b600081519050613efe81612955565b92915050565b600060208284031215613f1a57613f1961291f565b5b6000613f2884828501613eef565b91505092915050565b7f4e487b7100000000000000000000000000000000000000000000000000000000600052601260045260246000fdfea26469706673582212204be6cf3aacb3ab5517741eae5d5d398e819b01e9afb90c3e6e773488a322f63564736f6c63430008110033",
  "linkReferences": {},
  "deployedLinkReferences": {}
}