{
  "_format": "hh-sol-artifact-1",
  "contractName": "DOTT",
  "sourceName": "contracts/dMarket.sol",
  "abi": [
    {
      "inputs": [],
      "stateMutability": "nonpayable",
      "type": "constructor"
    },
    {
      "anonymous": false,
      "inputs": [
        {
          "indexed": true,
          "internalType": "address",
          "name": "owner",
          "type": "address"
        },
        {
          "indexed": true,
          "internalType": "address",
          "name": "approved",
          "type": "address"
        },
        {
          "indexed": true,
          "internalType": "uint256",
          "name": "tokenId",
          "type": "uint256"
        }
      ],
      "name": "Approval",
      "type": "event"
    },
    {
      "anonymous": false,
      "inputs": [
        {
          "indexed": true,
          "internalType": "address",
          "name": "owner",
          "type": "address"
        },
        {
          "indexed": true,
          "internalType": "address",
          "name": "operator",
          "type": "address"
        },
        {
          "indexed": false,
          "internalType": "bool",
          "name": "approved",
          "type": "bool"
        }
      ],
      "name": "ApprovalForAll",
      "type": "event"
    },
    {
      "anonymous": false,
      "inputs": [
        {
          "indexed": false,
          "internalType": "uint256",
          "name": "time",
          "type": "uint256"
        },
        {
          "indexed": true,
          "internalType": "address",
          "name": "from",
          "type": "address"
        },
        {
          "indexed": true,
          "internalType": "address",
          "name": "to",
          "type": "address"
        },
        {
          "indexed": true,
          "internalType": "string",
          "name": "video",
          "type": "string"
        },
        {
          "indexed": false,
          "internalType": "uint256",
          "name": "price",
          "type": "uint256"
        }
      ],
      "name": "Log",
      "type": "event"
    },
    {
      "anonymous": false,
      "inputs": [
        {
          "indexed": true,
          "internalType": "address",
          "name": "from",
          "type": "address"
        },
        {
          "indexed": true,
          "internalType": "address",
          "name": "to",
          "type": "address"
        },
        {
          "indexed": true,
          "internalType": "uint256",
          "name": "tokenId",
          "type": "uint256"
        }
      ],
      "name": "Transfer",
      "type": "event"
    },
    {
      "inputs": [
        {
          "internalType": "string",
          "name": "name",
          "type": "string"
        },
        {
          "internalType": "string",
          "name": "description",
          "type": "string"
        },
        {
          "internalType": "string",
          "name": "link",
          "type": "string"
        },
        {
          "internalType": "uint256",
          "name": "price",
          "type": "uint256"
        }
      ],
      "name": "addVideo",
      "outputs": [],
      "stateMutability": "nonpayable",
      "type": "function"
    },
    {
      "inputs": [
        {
          "internalType": "address",
          "name": "to",
          "type": "address"
        },
        {
          "internalType": "uint256",
          "name": "tokenId",
          "type": "uint256"
        }
      ],
      "name": "approve",
      "outputs": [],
      "stateMutability": "nonpayable",
      "type": "function"
    },
    {
      "inputs": [
        {
          "internalType": "address",
          "name": "owner",
          "type": "address"
        }
      ],
      "name": "balanceOf",
      "outputs": [
        {
          "internalType": "uint256",
          "name": "",
          "type": "uint256"
        }
      ],
      "stateMutability": "view",
      "type": "function"
    },
    {
      "inputs": [
        {
          "internalType": "uint256",
          "name": "id",
          "type": "uint256"
        },
        {
          "internalType": "string",
          "name": "postedVideos",
          "type": "string"
        }
      ],
      "name": "deleteVideo",
      "outputs": [],
      "stateMutability": "nonpayable",
      "type": "function"
    },
    {
      "inputs": [
        {
          "internalType": "uint256",
          "name": "tokenId",
          "type": "uint256"
        }
      ],
      "name": "getApproved",
      "outputs": [
        {
          "internalType": "address",
          "name": "",
          "type": "address"
        }
      ],
      "stateMutability": "view",
      "type": "function"
    },
    {
      "inputs": [
        {
          "internalType": "address",
          "name": "wallet",
          "type": "address"
        }
      ],
      "name": "getUserByWallet",
      "outputs": [
        {
          "components": [
            {
              "internalType": "string",
              "name": "username",
              "type": "string"
            },
            {
              "internalType": "string",
              "name": "bio",
              "type": "string"
            },
            {
              "internalType": "uint256",
              "name": "userId",
              "type": "uint256"
            },
            {
              "internalType": "string",
              "name": "viewedVideos",
              "type": "string"
            },
            {
              "internalType": "string",
              "name": "postedVideos",
              "type": "string"
            }
          ],
          "internalType": "struct DOTT.User",
          "name": "",
          "type": "tuple"
        }
      ],
      "stateMutability": "view",
      "type": "function"
    },
    {
      "inputs": [
        {
          "internalType": "uint256",
          "name": "id",
          "type": "uint256"
        }
      ],
      "name": "getVideoById",
      "outputs": [
        {
          "components": [
            {
              "internalType": "address",
              "name": "owner",
              "type": "address"
            },
            {
              "internalType": "string",
              "name": "name",
              "type": "string"
            },
            {
              "internalType": "string",
              "name": "description",
              "type": "string"
            },
            {
              "internalType": "uint256",
              "name": "viewCount",
              "type": "uint256"
            },
            {
              "internalType": "string",
              "name": "link",
              "type": "string"
            },
            {
              "internalType": "uint256",
              "name": "price",
              "type": "uint256"
            }
          ],
          "internalType": "struct DOTT.Video",
          "name": "",
          "type": "tuple"
        }
      ],
      "stateMutability": "view",
      "type": "function"
    },
    {
      "inputs": [
        {
          "internalType": "uint256",
          "name": "id",
          "type": "uint256"
        }
      ],
      "name": "getVideoOwnerAndPrice",
      "outputs": [
        {
          "internalType": "address",
          "name": "",
          "type": "address"
        },
        {
          "internalType": "uint256",
          "name": "",
          "type": "uint256"
        }
      ],
      "stateMutability": "view",
      "type": "function"
    },
    {
      "inputs": [],
      "name": "increaseUserCounter",
      "outputs": [
        {
          "internalType": "uint256",
          "name": "",
          "type": "uint256"
        }
      ],
      "stateMutability": "nonpayable",
      "type": "function"
    },
    {
      "inputs": [],
      "name": "increaseVideoCounter",
      "outputs": [
        {
          "internalType": "uint256",
          "name": "",
          "type": "uint256"
        }
      ],
      "stateMutability": "nonpayable",
      "type": "function"
    },
    {
      "inputs": [
        {
          "internalType": "address",
          "name": "owner",
          "type": "address"
        },
        {
          "internalType": "address",
          "name": "operator",
          "type": "address"
        }
      ],
      "name": "isApprovedForAll",
      "outputs": [
        {
          "internalType": "bool",
          "name": "",
          "type": "bool"
        }
      ],
      "stateMutability": "view",
      "type": "function"
    },
    {
      "inputs": [],
      "name": "name",
      "outputs": [
        {
          "internalType": "string",
          "name": "",
          "type": "string"
        }
      ],
      "stateMutability": "view",
      "type": "function"
    },
    {
      "inputs": [],
      "name": "owner",
      "outputs": [
        {
          "internalType": "address payable",
          "name": "",
          "type": "address"
        }
      ],
      "stateMutability": "view",
      "type": "function"
    },
    {
      "inputs": [
        {
          "internalType": "uint256",
          "name": "tokenId",
          "type": "uint256"
        }
      ],
      "name": "ownerOf",
      "outputs": [
        {
          "internalType": "address",
          "name": "",
          "type": "address"
        }
      ],
      "stateMutability": "view",
      "type": "function"
    },
    {
      "inputs": [
        {
          "internalType": "string",
          "name": "username",
          "type": "string"
        },
        {
          "internalType": "string",
          "name": "bio",
          "type": "string"
        }
      ],
      "name": "registerUser",
      "outputs": [],
      "stateMutability": "nonpayable",
      "type": "function"
    },
    {
      "inputs": [
        {
          "internalType": "address",
          "name": "from",
          "type": "address"
        },
        {
          "internalType": "address",
          "name": "to",
          "type": "address"
        },
        {
          "internalType": "uint256",
          "name": "tokenId",
          "type": "uint256"
        }
      ],
      "name": "safeTransferFrom",
      "outputs": [],
      "stateMutability": "nonpayable",
      "type": "function"
    },
    {
      "inputs": [
        {
          "internalType": "address",
          "name": "from",
          "type": "address"
        },
        {
          "internalType": "address",
          "name": "to",
          "type": "address"
        },
        {
          "internalType": "uint256",
          "name": "tokenId",
          "type": "uint256"
        },
        {
          "internalType": "bytes",
          "name": "data",
          "type": "bytes"
        }
      ],
      "name": "safeTransferFrom",
      "outputs": [],
      "stateMutability": "nonpayable",
      "type": "function"
    },
    {
      "inputs": [],
      "name": "sayHello",
      "outputs": [
        {
          "internalType": "string",
          "name": "",
          "type": "string"
        }
      ],
      "stateMutability": "pure",
      "type": "function"
    },
    {
      "inputs": [
        {
          "internalType": "address",
          "name": "operator",
          "type": "address"
        },
        {
          "internalType": "bool",
          "name": "approved",
          "type": "bool"
        }
      ],
      "name": "setApprovalForAll",
      "outputs": [],
      "stateMutability": "nonpayable",
      "type": "function"
    },
    {
      "inputs": [
        {
          "internalType": "bytes4",
          "name": "interfaceId",
          "type": "bytes4"
        }
      ],
      "name": "supportsInterface",
      "outputs": [
        {
          "internalType": "bool",
          "name": "",
          "type": "bool"
        }
      ],
      "stateMutability": "view",
      "type": "function"
    },
    {
      "inputs": [],
      "name": "symbol",
      "outputs": [
        {
          "internalType": "string",
          "name": "",
          "type": "string"
        }
      ],
      "stateMutability": "view",
      "type": "function"
    },
    {
      "inputs": [
        {
          "internalType": "uint256",
          "name": "tokenId",
          "type": "uint256"
        }
      ],
      "name": "tokenURI",
      "outputs": [
        {
          "internalType": "string",
          "name": "",
          "type": "string"
        }
      ],
      "stateMutability": "view",
      "type": "function"
    },
    {
      "inputs": [
        {
          "internalType": "address",
          "name": "from",
          "type": "address"
        },
        {
          "internalType": "address",
          "name": "to",
          "type": "address"
        },
        {
          "internalType": "uint256",
          "name": "tokenId",
          "type": "uint256"
        }
      ],
      "name": "transferFrom",
      "outputs": [],
      "stateMutability": "nonpayable",
      "type": "function"
    },
    {
      "inputs": [
        {
          "internalType": "string",
          "name": "username",
          "type": "string"
        },
        {
          "internalType": "string",
          "name": "bio",
          "type": "string"
        }
      ],
      "name": "updateUser",
      "outputs": [],
      "stateMutability": "nonpayable",
      "type": "function"
    },
    {
      "inputs": [
        {
          "internalType": "uint256",
          "name": "id",
          "type": "uint256"
        },
        {
          "internalType": "uint256",
          "name": "price",
          "type": "uint256"
        },
        {
          "internalType": "string",
          "name": "name",
          "type": "string"
        },
        {
          "internalType": "string",
          "name": "description",
          "type": "string"
        }
      ],
      "name": "updateVideo",
      "outputs": [],
      "stateMutability": "nonpayable",
      "type": "function"
    },
    {
      "inputs": [
        {
          "internalType": "string",
          "name": "viewedVideos",
          "type": "string"
        },
        {
          "internalType": "uint256",
          "name": "videoId",
          "type": "uint256"
        }
      ],
      "name": "updateViewedVideos",
      "outputs": [],
      "stateMutability": "nonpayable",
      "type": "function"
    },
    {
      "inputs": [
        {
          "internalType": "address",
          "name": "",
          "type": "address"
        }
      ],
      "name": "userMappings",
      "outputs": [
        {
          "internalType": "string",
          "name": "username",
          "type": "string"
        },
        {
          "internalType": "string",
          "name": "bio",
          "type": "string"
        },
        {
          "internalType": "uint256",
          "name": "userId",
          "type": "uint256"
        },
        {
          "internalType": "string",
          "name": "viewedVideos",
          "type": "string"
        },
        {
          "internalType": "string",
          "name": "postedVideos",
          "type": "string"
        }
      ],
      "stateMutability": "view",
      "type": "function"
    },
    {
      "inputs": [
        {
          "internalType": "uint256",
          "name": "",
          "type": "uint256"
        }
      ],
      "name": "videoMappings",
      "outputs": [
        {
          "internalType": "address",
          "name": "owner",
          "type": "address"
        },
        {
          "internalType": "string",
          "name": "name",
          "type": "string"
        },
        {
          "internalType": "string",
          "name": "description",
          "type": "string"
        },
        {
          "internalType": "uint256",
          "name": "viewCount",
          "type": "uint256"
        },
        {
          "internalType": "string",
          "name": "link",
          "type": "string"
        },
        {
          "internalType": "uint256",
          "name": "price",
          "type": "uint256"
        }
      ],
      "stateMutability": "view",
      "type": "function"
    }
  ],
  "bytecode": "0x6080604052600060085560006009553480156200001b57600080fd5b506040518060400160405280600481526020017f444f5454000000000000000000000000000000000000000000000000000000008152506040518060400160405280600481526020017f444f54540000000000000000000000000000000000000000000000000000000081525081600090816200009991906200036f565b508060019081620000ab91906200036f565b50505033600760006101000a81548173ffffffffffffffffffffffffffffffffffffffff021916908373ffffffffffffffffffffffffffffffffffffffff16021790555062000456565b600081519050919050565b7f4e487b7100000000000000000000000000000000000000000000000000000000600052604160045260246000fd5b7f4e487b7100000000000000000000000000000000000000000000000000000000600052602260045260246000fd5b600060028204905060018216806200017757607f821691505b6020821081036200018d576200018c6200012f565b5b50919050565b60008190508160005260206000209050919050565b60006020601f8301049050919050565b600082821b905092915050565b600060088302620001f77fffffffffffffffffffffffffffffffffffffffffffffffffffffffffffffffff82620001b8565b620002038683620001b8565b95508019841693508086168417925050509392505050565b6000819050919050565b6000819050919050565b6000620002506200024a62000244846200021b565b62000225565b6200021b565b9050919050565b6000819050919050565b6200026c836200022f565b620002846200027b8262000257565b848454620001c5565b825550505050565b600090565b6200029b6200028c565b620002a881848462000261565b505050565b5b81811015620002d057620002c460008262000291565b600181019050620002ae565b5050565b601f8211156200031f57620002e98162000193565b620002f484620001a8565b8101602085101562000304578190505b6200031c6200031385620001a8565b830182620002ad565b50505b505050565b600082821c905092915050565b6000620003446000198460080262000324565b1980831691505092915050565b60006200035f838362000331565b9150826002028217905092915050565b6200037a82620000f5565b67ffffffffffffffff81111562000396576200039562000100565b5b620003a282546200015e565b620003af828285620002d4565b600060209050601f831160018114620003e75760008415620003d2578287015190505b620003de858262000351565b8655506200044e565b601f198416620003f78662000193565b60005b828110156200042157848901518255600182019150602085019450602081019050620003fa565b868310156200044157848901516200043d601f89168262000331565b8355505b6001600288020188555050505b505050505050565b61439380620004666000396000f3fe608060405234801561001057600080fd5b50600436106101c45760003560e01c80635a9e416c116100f9578063a9ba456011610097578063dd4a242511610071578063dd4a242514610545578063e985e9c514610561578063eda9576f14610591578063ef5fb05b146105ad576101c4565b8063a9ba4560146104c9578063b88d4fde146104f9578063c87b56dd14610515576101c4565b80638373ab5a116100d35780638373ab5a146104405780638da5cb5b1461047157806395d89b411461048f578063a22cb465146104ad576101c4565b80635a9e416c146103ac5780636352211e146103e057806370a0823114610410576101c4565b806318f362011161016657806326d4a0c51161014057806326d4a0c51461030f578063390d2e991461032b5780633b0328be1461036057806342842e0e14610390576101c4565b806318f36201146102bb5780631d2e4afd146102d757806323b872dd146102f3576101c4565b8063095ea7b3116101a2578063095ea7b31461024757806309c2e0d21461026357806309e99fbd1461027f5780630debb9321461029d576101c4565b806301ffc9a7146101c957806306fdde03146101f9578063081812fc14610217575b600080fd5b6101e360048036038101906101de9190612c08565b6105cb565b6040516101f09190612c50565b60405180910390f35b6102016106ad565b60405161020e9190612cfb565b60405180910390f35b610231600480360381019061022c9190612d53565b61073f565b60405161023e9190612dc1565b60405180910390f35b610261600480360381019061025c9190612e08565b610785565b005b61027d60048036038101906102789190612f7d565b61089c565b005b6102876109a6565b6040516102949190613047565b60405180910390f35b6102a56109c8565b6040516102b29190613047565b60405180910390f35b6102d560048036038101906102d09190613062565b6109ea565b005b6102f160048036038101906102ec91906130be565b610b77565b005b61030d60048036038101906103089190613136565b610c71565b005b61032960048036038101906103249190613189565b610cd1565b005b61034560048036038101906103409190612d53565b610da2565b604051610357969594939291906131e5565b60405180910390f35b61037a6004803603810190610375919061325b565b610f96565b604051610387919061336c565b60405180910390f35b6103aa60048036038101906103a59190613136565b611241565b005b6103c660048036038101906103c1919061325b565b611261565b6040516103d795949392919061338e565b60405180910390f35b6103fa60048036038101906103f59190612d53565b6114b7565b6040516104079190612dc1565b60405180910390f35b61042a6004803603810190610425919061325b565b61153d565b6040516104379190613047565b60405180910390f35b61045a60048036038101906104559190612d53565b6115f4565b6040516104689291906133fd565b60405180910390f35b61047961164e565b6040516104869190613447565b60405180910390f35b610497611674565b6040516104a49190612cfb565b60405180910390f35b6104c760048036038101906104c2919061348e565b611706565b005b6104e360048036038101906104de9190612d53565b61171c565b6040516104f09190613574565b60405180910390f35b610513600480360381019061050e9190613637565b611969565b005b61052f600480360381019061052a9190612d53565b6119cb565b60405161053c9190612cfb565b60405180910390f35b61055f600480360381019061055a91906130be565b611add565b005b61057b600480360381019061057691906136ba565b611b81565b6040516105889190612c50565b60405180910390f35b6105ab60048036038101906105a691906136fa565b611c15565b005b6105b5611dc7565b6040516105c29190612cfb565b60405180910390f35b60007f80ac58cd000000000000000000000000000000000000000000000000000000007bffffffffffffffffffffffffffffffffffffffffffffffffffffffff1916827bffffffffffffffffffffffffffffffffffffffffffffffffffffffff1916148061069657507f5b5e139f000000000000000000000000000000000000000000000000000000007bffffffffffffffffffffffffffffffffffffffffffffffffffffffff1916827bffffffffffffffffffffffffffffffffffffffffffffffffffffffff1916145b806106a657506106a582611e04565b5b9050919050565b6060600080546106bc906137c8565b80601f01602080910402602001604051908101604052809291908181526020018280546106e8906137c8565b80156107355780601f1061070a57610100808354040283529160200191610735565b820191906000526020600020905b81548152906001019060200180831161071857829003601f168201915b5050505050905090565b600061074a82611e6e565b6004600083815260200190815260200160002060009054906101000a900473ffffffffffffffffffffffffffffffffffffffff169050919050565b6000610790826114b7565b90508073ffffffffffffffffffffffffffffffffffffffff168373ffffffffffffffffffffffffffffffffffffffff1603610800576040517f08c379a00000000000000000000000000000000000000000000000000000000081526004016107f79061386b565b60405180910390fd5b8073ffffffffffffffffffffffffffffffffffffffff1661081f611eb9565b73ffffffffffffffffffffffffffffffffffffffff16148061084e575061084d81610848611eb9565b611b81565b5b61088d576040517f08c379a0000000000000000000000000000000000000000000000000000000008152600401610884906138fd565b60405180910390fd5b6108978383611ec1565b505050565b60006108a66109c8565b90506040518060c001604052803373ffffffffffffffffffffffffffffffffffffffff1681526020018681526020018581526020016000815260200184815260200183815250600b600083815260200190815260200160002060008201518160000160006101000a81548173ffffffffffffffffffffffffffffffffffffffff021916908373ffffffffffffffffffffffffffffffffffffffff160217905550602082015181600101908161095b9190613ac9565b5060408201518160020190816109719190613ac9565b506060820151816003015560808201518160040190816109919190613ac9565b5060a082015181600501559050505050505050565b6000600860008154809291906109bb90613bca565b9190505550600854905090565b6000600960008154809291906109dd90613bca565b9190505550600954905090565b81600a60003373ffffffffffffffffffffffffffffffffffffffff1673ffffffffffffffffffffffffffffffffffffffff1681526020019081526020016000206003019081610a399190613ac9565b50600b60008281526020019081526020016000206003016000815480929190610a6190613bca565b91905055506000600b6000838152602001908152602001600020600101610a8783611f7a565b604051602001610a98929190613cd1565b604051602081830303815290604052905080604051610ab79190613cf5565b6040518091039020600b600084815260200190815260200160002060000160009054906101000a900473ffffffffffffffffffffffffffffffffffffffff1673ffffffffffffffffffffffffffffffffffffffff163373ffffffffffffffffffffffffffffffffffffffff167f1e87b5467ff2febfe1ed4c42162ade9d0303a8e6f3ed7e64102c1040431c82ee42600b600088815260200190815260200160002060050154604051610b6a929190613d0c565b60405180910390a4505050565b6000610b816109a6565b90506040518060a0016040528084815260200183815260200182815260200160405180602001604052806000815250815260200160405180602001604052806000815250815250600a60003373ffffffffffffffffffffffffffffffffffffffff1673ffffffffffffffffffffffffffffffffffffffff1681526020019081526020016000206000820151816000019081610c1c9190613ac9565b506020820151816001019081610c329190613ac9565b50604082015181600201556060820151816003019081610c529190613ac9565b506080820151816004019081610c689190613ac9565b50905050505050565b610c82610c7c611eb9565b82612048565b610cc1576040517f08c379a0000000000000000000000000000000000000000000000000000000008152600401610cb890613da7565b60405180910390fd5b610ccc8383836120dd565b505050565b80600a60003373ffffffffffffffffffffffffffffffffffffffff1673ffffffffffffffffffffffffffffffffffffffff1681526020019081526020016000206004019081610d209190613ac9565b50600b6000838152602001908152602001600020600080820160006101000a81549073ffffffffffffffffffffffffffffffffffffffff0219169055600182016000610d6c9190612ac4565b600282016000610d7c9190612ac4565b6003820160009055600482016000610d949190612ac4565b600582016000905550505050565b600b6020528060005260406000206000915090508060000160009054906101000a900473ffffffffffffffffffffffffffffffffffffffff1690806001018054610deb906137c8565b80601f0160208091040260200160405190810160405280929190818152602001828054610e17906137c8565b8015610e645780601f10610e3957610100808354040283529160200191610e64565b820191906000526020600020905b815481529060010190602001808311610e4757829003601f168201915b505050505090806002018054610e79906137c8565b80601f0160208091040260200160405190810160405280929190818152602001828054610ea5906137c8565b8015610ef25780601f10610ec757610100808354040283529160200191610ef2565b820191906000526020600020905b815481529060010190602001808311610ed557829003601f168201915b505050505090806003015490806004018054610f0d906137c8565b80601f0160208091040260200160405190810160405280929190818152602001828054610f39906137c8565b8015610f865780601f10610f5b57610100808354040283529160200191610f86565b820191906000526020600020905b815481529060010190602001808311610f6957829003601f168201915b5050505050908060050154905086565b610f9e612b04565b600a60008373ffffffffffffffffffffffffffffffffffffffff1673ffffffffffffffffffffffffffffffffffffffff1681526020019081526020016000206040518060a0016040529081600082018054610ff8906137c8565b80601f0160208091040260200160405190810160405280929190818152602001828054611024906137c8565b80156110715780601f1061104657610100808354040283529160200191611071565b820191906000526020600020905b81548152906001019060200180831161105457829003601f168201915b5050505050815260200160018201805461108a906137c8565b80601f01602080910402602001604051908101604052809291908181526020018280546110b6906137c8565b80156111035780601f106110d857610100808354040283529160200191611103565b820191906000526020600020905b8154815290600101906020018083116110e657829003601f168201915b5050505050815260200160028201548152602001600382018054611126906137c8565b80601f0160208091040260200160405190810160405280929190818152602001828054611152906137c8565b801561119f5780601f106111745761010080835404028352916020019161119f565b820191906000526020600020905b81548152906001019060200180831161118257829003601f168201915b505050505081526020016004820180546111b8906137c8565b80601f01602080910402602001604051908101604052809291908181526020018280546111e4906137c8565b80156112315780601f1061120657610100808354040283529160200191611231565b820191906000526020600020905b81548152906001019060200180831161121457829003601f168201915b5050505050815250509050919050565b61125c83838360405180602001604052806000815250611969565b505050565b600a602052806000526040600020600091509050806000018054611284906137c8565b80601f01602080910402602001604051908101604052809291908181526020018280546112b0906137c8565b80156112fd5780601f106112d2576101008083540402835291602001916112fd565b820191906000526020600020905b8154815290600101906020018083116112e057829003601f168201915b505050505090806001018054611312906137c8565b80601f016020809104026020016040519081016040528092919081815260200182805461133e906137c8565b801561138b5780601f106113605761010080835404028352916020019161138b565b820191906000526020600020905b81548152906001019060200180831161136e57829003601f168201915b5050505050908060020154908060030180546113a6906137c8565b80601f01602080910402602001604051908101604052809291908181526020018280546113d2906137c8565b801561141f5780601f106113f45761010080835404028352916020019161141f565b820191906000526020600020905b81548152906001019060200180831161140257829003601f168201915b505050505090806004018054611434906137c8565b80601f0160208091040260200160405190810160405280929190818152602001828054611460906137c8565b80156114ad5780601f10611482576101008083540402835291602001916114ad565b820191906000526020600020905b81548152906001019060200180831161149057829003601f168201915b5050505050905085565b6000806114c3836123d6565b9050600073ffffffffffffffffffffffffffffffffffffffff168173ffffffffffffffffffffffffffffffffffffffff1603611534576040517f08c379a000000000000000000000000000000000000000000000000000000000815260040161152b90613e13565b60405180910390fd5b80915050919050565b60008073ffffffffffffffffffffffffffffffffffffffff168273ffffffffffffffffffffffffffffffffffffffff16036115ad576040517f08c379a00000000000000000000000000000000000000000000000000000000081526004016115a490613ea5565b60405180910390fd5b600360008373ffffffffffffffffffffffffffffffffffffffff1673ffffffffffffffffffffffffffffffffffffffff168152602001908152602001600020549050919050565b600080600b600084815260200190815260200160002060000160009054906101000a900473ffffffffffffffffffffffffffffffffffffffff16600b60008581526020019081526020016000206005015491509150915091565b600760009054906101000a900473ffffffffffffffffffffffffffffffffffffffff1681565b606060018054611683906137c8565b80601f01602080910402602001604051908101604052809291908181526020018280546116af906137c8565b80156116fc5780601f106116d1576101008083540402835291602001916116fc565b820191906000526020600020905b8154815290600101906020018083116116df57829003601f168201915b5050505050905090565b611718611711611eb9565b8383612413565b5050565b611724612b33565b600b60008381526020019081526020016000206040518060c00160405290816000820160009054906101000a900473ffffffffffffffffffffffffffffffffffffffff1673ffffffffffffffffffffffffffffffffffffffff1673ffffffffffffffffffffffffffffffffffffffff1681526020016001820180546117a8906137c8565b80601f01602080910402602001604051908101604052809291908181526020018280546117d4906137c8565b80156118215780601f106117f657610100808354040283529160200191611821565b820191906000526020600020905b81548152906001019060200180831161180457829003601f168201915b5050505050815260200160028201805461183a906137c8565b80601f0160208091040260200160405190810160405280929190818152602001828054611866906137c8565b80156118b35780601f10611888576101008083540402835291602001916118b3565b820191906000526020600020905b81548152906001019060200180831161189657829003601f168201915b50505050508152602001600382015481526020016004820180546118d6906137c8565b80601f0160208091040260200160405190810160405280929190818152602001828054611902906137c8565b801561194f5780601f106119245761010080835404028352916020019161194f565b820191906000526020600020905b81548152906001019060200180831161193257829003601f168201915b505050505081526020016005820154815250509050919050565b61197a611974611eb9565b83612048565b6119b9576040517f08c379a00000000000000000000000000000000000000000000000000000000081526004016119b090613da7565b60405180910390fd5b6119c58484848461257f565b50505050565b60606119d682611e6e565b60006006600084815260200190815260200160002080546119f6906137c8565b80601f0160208091040260200160405190810160405280929190818152602001828054611a22906137c8565b8015611a6f5780601f10611a4457610100808354040283529160200191611a6f565b820191906000526020600020905b815481529060010190602001808311611a5257829003601f168201915b505050505090506000611a806125db565b90506000815103611a95578192505050611ad8565b600082511115611aca578082604051602001611ab2929190613ec5565b60405160208183030381529060405292505050611ad8565b611ad3846125f2565b925050505b919050565b80600a60003373ffffffffffffffffffffffffffffffffffffffff1673ffffffffffffffffffffffffffffffffffffffff1681526020019081526020016000206001019081611b2c9190613ac9565b5081600a60003373ffffffffffffffffffffffffffffffffffffffff1673ffffffffffffffffffffffffffffffffffffffff1681526020019081526020016000206000019081611b7c9190613ac9565b505050565b6000600560008473ffffffffffffffffffffffffffffffffffffffff1673ffffffffffffffffffffffffffffffffffffffff16815260200190815260200160002060008373ffffffffffffffffffffffffffffffffffffffff1673ffffffffffffffffffffffffffffffffffffffff16815260200190815260200160002060009054906101000a900460ff16905092915050565b3373ffffffffffffffffffffffffffffffffffffffff16600b600086815260200190815260200160002060000160009054906101000a900473ffffffffffffffffffffffffffffffffffffffff1673ffffffffffffffffffffffffffffffffffffffff1614611cb9576040517f08c379a0000000000000000000000000000000000000000000000000000000008152600401611cb090613f35565b60405180910390fd5b600073ffffffffffffffffffffffffffffffffffffffff16600b600086815260200190815260200160002060000160009054906101000a900473ffffffffffffffffffffffffffffffffffffffff1673ffffffffffffffffffffffffffffffffffffffff1603611d5e576040517f08c379a0000000000000000000000000000000000000000000000000000000008152600401611d5590613fa1565b60405180910390fd5b81600b60008681526020019081526020016000206001019081611d819190613ac9565b5080600b60008681526020019081526020016000206002019081611da59190613ac9565b5082600b60008681526020019081526020016000206005018190555050505050565b60606040518060400160405280600b81526020017f48656c6c6f207468657265000000000000000000000000000000000000000000815250905090565b60007f01ffc9a7000000000000000000000000000000000000000000000000000000007bffffffffffffffffffffffffffffffffffffffffffffffffffffffff1916827bffffffffffffffffffffffffffffffffffffffffffffffffffffffff1916149050919050565b611e778161265a565b611eb6576040517f08c379a0000000000000000000000000000000000000000000000000000000008152600401611ead90613e13565b60405180910390fd5b50565b600033905090565b816004600083815260200190815260200160002060006101000a81548173ffffffffffffffffffffffffffffffffffffffff021916908373ffffffffffffffffffffffffffffffffffffffff160217905550808273ffffffffffffffffffffffffffffffffffffffff16611f34836114b7565b73ffffffffffffffffffffffffffffffffffffffff167f8c5be1e5ebec7d5bd14f71427d1e84f3dd0314c0f7b2291e5b200ac8c7c3b92560405160405180910390a45050565b606060006001611f898461269b565b01905060008167ffffffffffffffff811115611fa857611fa7612e52565b5b6040519080825280601f01601f191660200182016040528015611fda5781602001600182028036833780820191505090505b509050600082602001820190505b60011561203d578080600190039150507f3031323334353637383961626364656600000000000000000000000000000000600a86061a8153600a858161203157612030613fc1565b5b04945060008503611fe8575b819350505050919050565b600080612054836114b7565b90508073ffffffffffffffffffffffffffffffffffffffff168473ffffffffffffffffffffffffffffffffffffffff16148061209657506120958185611b81565b5b806120d457508373ffffffffffffffffffffffffffffffffffffffff166120bc8461073f565b73ffffffffffffffffffffffffffffffffffffffff16145b91505092915050565b8273ffffffffffffffffffffffffffffffffffffffff166120fd826114b7565b73ffffffffffffffffffffffffffffffffffffffff1614612153576040517f08c379a000000000000000000000000000000000000000000000000000000000815260040161214a90614062565b60405180910390fd5b600073ffffffffffffffffffffffffffffffffffffffff168273ffffffffffffffffffffffffffffffffffffffff16036121c2576040517f08c379a00000000000000000000000000000000000000000000000000000000081526004016121b9906140f4565b60405180910390fd5b6121cf83838360016127ee565b8273ffffffffffffffffffffffffffffffffffffffff166121ef826114b7565b73ffffffffffffffffffffffffffffffffffffffff1614612245576040517f08c379a000000000000000000000000000000000000000000000000000000000815260040161223c90614062565b60405180910390fd5b6004600082815260200190815260200160002060006101000a81549073ffffffffffffffffffffffffffffffffffffffff02191690556001600360008573ffffffffffffffffffffffffffffffffffffffff1673ffffffffffffffffffffffffffffffffffffffff168152602001908152602001600020600082825403925050819055506001600360008473ffffffffffffffffffffffffffffffffffffffff1673ffffffffffffffffffffffffffffffffffffffff16815260200190815260200160002060008282540192505081905550816002600083815260200190815260200160002060006101000a81548173ffffffffffffffffffffffffffffffffffffffff021916908373ffffffffffffffffffffffffffffffffffffffff160217905550808273ffffffffffffffffffffffffffffffffffffffff168473ffffffffffffffffffffffffffffffffffffffff167fddf252ad1be2c89b69c2b068fc378daa952ba7f163c4a11628f55a4df523b3ef60405160405180910390a46123d18383836001612914565b505050565b60006002600083815260200190815260200160002060009054906101000a900473ffffffffffffffffffffffffffffffffffffffff169050919050565b8173ffffffffffffffffffffffffffffffffffffffff168373ffffffffffffffffffffffffffffffffffffffff1603612481576040517f08c379a000000000000000000000000000000000000000000000000000000000815260040161247890614160565b60405180910390fd5b80600560008573ffffffffffffffffffffffffffffffffffffffff1673ffffffffffffffffffffffffffffffffffffffff16815260200190815260200160002060008473ffffffffffffffffffffffffffffffffffffffff1673ffffffffffffffffffffffffffffffffffffffff16815260200190815260200160002060006101000a81548160ff0219169083151502179055508173ffffffffffffffffffffffffffffffffffffffff168373ffffffffffffffffffffffffffffffffffffffff167f17307eab39ab6107e8899845ad3d59bd9653f200f220920489ca2b5937696c31836040516125729190612c50565b60405180910390a3505050565b61258a8484846120dd565b6125968484848461291a565b6125d5576040517f08c379a00000000000000000000000000000000000000000000000000000000081526004016125cc906141f2565b60405180910390fd5b50505050565b606060405180602001604052806000815250905090565b60606125fd82611e6e565b60006126076125db565b905060008151116126275760405180602001604052806000815250612652565b8061263184611f7a565b604051602001612642929190613ec5565b6040516020818303038152906040525b915050919050565b60008073ffffffffffffffffffffffffffffffffffffffff1661267c836123d6565b73ffffffffffffffffffffffffffffffffffffffff1614159050919050565b600080600090507a184f03e93ff9f4daa797ed6e38ed64bf6a1f01000000000000000083106126f9577a184f03e93ff9f4daa797ed6e38ed64bf6a1f01000000000000000083816126ef576126ee613fc1565b5b0492506040810190505b6d04ee2d6d415b85acef81000000008310612736576d04ee2d6d415b85acef8100000000838161272c5761272b613fc1565b5b0492506020810190505b662386f26fc10000831061276557662386f26fc10000838161275b5761275a613fc1565b5b0492506010810190505b6305f5e100831061278e576305f5e100838161278457612783613fc1565b5b0492506008810190505b61271083106127b35761271083816127a9576127a8613fc1565b5b0492506004810190505b606483106127d657606483816127cc576127cb613fc1565b5b0492506002810190505b600a83106127e5576001810190505b80915050919050565b600181111561290e57600073ffffffffffffffffffffffffffffffffffffffff168473ffffffffffffffffffffffffffffffffffffffff16146128825780600360008673ffffffffffffffffffffffffffffffffffffffff1673ffffffffffffffffffffffffffffffffffffffff168152602001908152602001600020600082825461287a9190614212565b925050819055505b600073ffffffffffffffffffffffffffffffffffffffff168373ffffffffffffffffffffffffffffffffffffffff161461290d5780600360008573ffffffffffffffffffffffffffffffffffffffff1673ffffffffffffffffffffffffffffffffffffffff16815260200190815260200160002060008282546129059190614246565b925050819055505b5b50505050565b50505050565b600061293b8473ffffffffffffffffffffffffffffffffffffffff16612aa1565b15612a94578373ffffffffffffffffffffffffffffffffffffffff1663150b7a02612964611eb9565b8786866040518563ffffffff1660e01b815260040161298694939291906142cf565b6020604051808303816000875af19250505080156129c257506040513d601f19601f820116820180604052508101906129bf9190614330565b60015b612a44573d80600081146129f2576040519150601f19603f3d011682016040523d82523d6000602084013e6129f7565b606091505b506000815103612a3c576040517f08c379a0000000000000000000000000000000000000000000000000000000008152600401612a33906141f2565b60405180910390fd5b805181602001fd5b63150b7a0260e01b7bffffffffffffffffffffffffffffffffffffffffffffffffffffffff1916817bffffffffffffffffffffffffffffffffffffffffffffffffffffffff191614915050612a99565b600190505b949350505050565b6000808273ffffffffffffffffffffffffffffffffffffffff163b119050919050565b508054612ad0906137c8565b6000825580601f10612ae25750612b01565b601f016020900490600052602060002090810190612b009190612b7f565b5b50565b6040518060a0016040528060608152602001606081526020016000815260200160608152602001606081525090565b6040518060c00160405280600073ffffffffffffffffffffffffffffffffffffffff16815260200160608152602001606081526020016000815260200160608152602001600081525090565b5b80821115612b98576000816000905550600101612b80565b5090565b6000604051905090565b600080fd5b600080fd5b60007fffffffff0000000000000000000000000000000000000000000000000000000082169050919050565b612be581612bb0565b8114612bf057600080fd5b50565b600081359050612c0281612bdc565b92915050565b600060208284031215612c1e57612c1d612ba6565b5b6000612c2c84828501612bf3565b91505092915050565b60008115159050919050565b612c4a81612c35565b82525050565b6000602082019050612c656000830184612c41565b92915050565b600081519050919050565b600082825260208201905092915050565b60005b83811015612ca5578082015181840152602081019050612c8a565b60008484015250505050565b6000601f19601f8301169050919050565b6000612ccd82612c6b565b612cd78185612c76565b9350612ce7818560208601612c87565b612cf081612cb1565b840191505092915050565b60006020820190508181036000830152612d158184612cc2565b905092915050565b6000819050919050565b612d3081612d1d565b8114612d3b57600080fd5b50565b600081359050612d4d81612d27565b92915050565b600060208284031215612d6957612d68612ba6565b5b6000612d7784828501612d3e565b91505092915050565b600073ffffffffffffffffffffffffffffffffffffffff82169050919050565b6000612dab82612d80565b9050919050565b612dbb81612da0565b82525050565b6000602082019050612dd66000830184612db2565b92915050565b612de581612da0565b8114612df057600080fd5b50565b600081359050612e0281612ddc565b92915050565b60008060408385031215612e1f57612e1e612ba6565b5b6000612e2d85828601612df3565b9250506020612e3e85828601612d3e565b9150509250929050565b600080fd5b600080fd5b7f4e487b7100000000000000000000000000000000000000000000000000000000600052604160045260246000fd5b612e8a82612cb1565b810181811067ffffffffffffffff82111715612ea957612ea8612e52565b5b80604052505050565b6000612ebc612b9c565b9050612ec88282612e81565b919050565b600067ffffffffffffffff821115612ee857612ee7612e52565b5b612ef182612cb1565b9050602081019050919050565b82818337600083830152505050565b6000612f20612f1b84612ecd565b612eb2565b905082815260208101848484011115612f3c57612f3b612e4d565b5b612f47848285612efe565b509392505050565b600082601f830112612f6457612f63612e48565b5b8135612f74848260208601612f0d565b91505092915050565b60008060008060808587031215612f9757612f96612ba6565b5b600085013567ffffffffffffffff811115612fb557612fb4612bab565b5b612fc187828801612f4f565b945050602085013567ffffffffffffffff811115612fe257612fe1612bab565b5b612fee87828801612f4f565b935050604085013567ffffffffffffffff81111561300f5761300e612bab565b5b61301b87828801612f4f565b925050606061302c87828801612d3e565b91505092959194509250565b61304181612d1d565b82525050565b600060208201905061305c6000830184613038565b92915050565b6000806040838503121561307957613078612ba6565b5b600083013567ffffffffffffffff81111561309757613096612bab565b5b6130a385828601612f4f565b92505060206130b485828601612d3e565b9150509250929050565b600080604083850312156130d5576130d4612ba6565b5b600083013567ffffffffffffffff8111156130f3576130f2612bab565b5b6130ff85828601612f4f565b925050602083013567ffffffffffffffff8111156131205761311f612bab565b5b61312c85828601612f4f565b9150509250929050565b60008060006060848603121561314f5761314e612ba6565b5b600061315d86828701612df3565b935050602061316e86828701612df3565b925050604061317f86828701612d3e565b9150509250925092565b600080604083850312156131a05761319f612ba6565b5b60006131ae85828601612d3e565b925050602083013567ffffffffffffffff8111156131cf576131ce612bab565b5b6131db85828601612f4f565b9150509250929050565b600060c0820190506131fa6000830189612db2565b818103602083015261320c8188612cc2565b905081810360408301526132208187612cc2565b905061322f6060830186613038565b81810360808301526132418185612cc2565b905061325060a0830184613038565b979650505050505050565b60006020828403121561327157613270612ba6565b5b600061327f84828501612df3565b91505092915050565b600082825260208201905092915050565b60006132a482612c6b565b6132ae8185613288565b93506132be818560208601612c87565b6132c781612cb1565b840191505092915050565b6132db81612d1d565b82525050565b600060a08301600083015184820360008601526132fe8282613299565b915050602083015184820360208601526133188282613299565b915050604083015161332d60408601826132d2565b50606083015184820360608601526133458282613299565b9150506080830151848203608086015261335f8282613299565b9150508091505092915050565b6000602082019050818103600083015261338681846132e1565b905092915050565b600060a08201905081810360008301526133a88188612cc2565b905081810360208301526133bc8187612cc2565b90506133cb6040830186613038565b81810360608301526133dd8185612cc2565b905081810360808301526133f18184612cc2565b90509695505050505050565b60006040820190506134126000830185612db2565b61341f6020830184613038565b9392505050565b600061343182612d80565b9050919050565b61344181613426565b82525050565b600060208201905061345c6000830184613438565b92915050565b61346b81612c35565b811461347657600080fd5b50565b60008135905061348881613462565b92915050565b600080604083850312156134a5576134a4612ba6565b5b60006134b385828601612df3565b92505060206134c485828601613479565b9150509250929050565b6134d781612da0565b82525050565b600060c0830160008301516134f560008601826134ce565b506020830151848203602086015261350d8282613299565b915050604083015184820360408601526135278282613299565b915050606083015161353c60608601826132d2565b50608083015184820360808601526135548282613299565b91505060a083015161356960a08601826132d2565b508091505092915050565b6000602082019050818103600083015261358e81846134dd565b905092915050565b600067ffffffffffffffff8211156135b1576135b0612e52565b5b6135ba82612cb1565b9050602081019050919050565b60006135da6135d584613596565b612eb2565b9050828152602081018484840111156135f6576135f5612e4d565b5b613601848285612efe565b509392505050565b600082601f83011261361e5761361d612e48565b5b813561362e8482602086016135c7565b91505092915050565b6000806000806080858703121561365157613650612ba6565b5b600061365f87828801612df3565b945050602061367087828801612df3565b935050604061368187828801612d3e565b925050606085013567ffffffffffffffff8111156136a2576136a1612bab565b5b6136ae87828801613609565b91505092959194509250565b600080604083850312156136d1576136d0612ba6565b5b60006136df85828601612df3565b92505060206136f085828601612df3565b9150509250929050565b6000806000806080858703121561371457613713612ba6565b5b600061372287828801612d3e565b945050602061373387828801612d3e565b935050604085013567ffffffffffffffff81111561375457613753612bab565b5b61376087828801612f4f565b925050606085013567ffffffffffffffff81111561378157613780612bab565b5b61378d87828801612f4f565b91505092959194509250565b7f4e487b7100000000000000000000000000000000000000000000000000000000600052602260045260246000fd5b600060028204905060018216806137e057607f821691505b6020821081036137f3576137f2613799565b5b50919050565b7f4552433732313a20617070726f76616c20746f2063757272656e74206f776e6560008201527f7200000000000000000000000000000000000000000000000000000000000000602082015250565b6000613855602183612c76565b9150613860826137f9565b604082019050919050565b6000602082019050818103600083015261388481613848565b9050919050565b7f4552433732313a20617070726f76652063616c6c6572206973206e6f7420746f60008201527f6b656e206f776e6572206f7220617070726f76656420666f7220616c6c000000602082015250565b60006138e7603d83612c76565b91506138f28261388b565b604082019050919050565b60006020820190508181036000830152613916816138da565b9050919050565b60008190508160005260206000209050919050565b60006020601f8301049050919050565b600082821b905092915050565b60006008830261397f7fffffffffffffffffffffffffffffffffffffffffffffffffffffffffffffffff82613942565b6139898683613942565b95508019841693508086168417925050509392505050565b6000819050919050565b60006139c66139c16139bc84612d1d565b6139a1565b612d1d565b9050919050565b6000819050919050565b6139e0836139ab565b6139f46139ec826139cd565b84845461394f565b825550505050565b600090565b613a096139fc565b613a148184846139d7565b505050565b5b81811015613a3857613a2d600082613a01565b600181019050613a1a565b5050565b601f821115613a7d57613a4e8161391d565b613a5784613932565b81016020851015613a66578190505b613a7a613a7285613932565b830182613a19565b50505b505050565b600082821c905092915050565b6000613aa060001984600802613a82565b1980831691505092915050565b6000613ab98383613a8f565b9150826002028217905092915050565b613ad282612c6b565b67ffffffffffffffff811115613aeb57613aea612e52565b5b613af582546137c8565b613b00828285613a3c565b600060209050601f831160018114613b335760008415613b21578287015190505b613b2b8582613aad565b865550613b93565b601f198416613b418661391d565b60005b82811015613b6957848901518255600182019150602085019450602081019050613b44565b86831015613b865784890151613b82601f891682613a8f565b8355505b6001600288020188555050505b505050505050565b7f4e487b7100000000000000000000000000000000000000000000000000000000600052601160045260246000fd5b6000613bd582612d1d565b91507fffffffffffffffffffffffffffffffffffffffffffffffffffffffffffffffff8203613c0757613c06613b9b565b5b600182019050919050565b600081905092915050565b60008154613c2a816137c8565b613c348186613c12565b94506001821660008114613c4f5760018114613c6457613c97565b60ff1983168652811515820286019350613c97565b613c6d8561391d565b60005b83811015613c8f57815481890152600182019150602081019050613c70565b838801955050505b50505092915050565b6000613cab82612c6b565b613cb58185613c12565b9350613cc5818560208601612c87565b80840191505092915050565b6000613cdd8285613c1d565b9150613ce98284613ca0565b91508190509392505050565b6000613d018284613ca0565b915081905092915050565b6000604082019050613d216000830185613038565b613d2e6020830184613038565b9392505050565b7f4552433732313a2063616c6c6572206973206e6f7420746f6b656e206f776e6560008201527f72206f7220617070726f76656400000000000000000000000000000000000000602082015250565b6000613d91602d83612c76565b9150613d9c82613d35565b604082019050919050565b60006020820190508181036000830152613dc081613d84565b9050919050565b7f4552433732313a20696e76616c696420746f6b656e2049440000000000000000600082015250565b6000613dfd601883612c76565b9150613e0882613dc7565b602082019050919050565b60006020820190508181036000830152613e2c81613df0565b9050919050565b7f4552433732313a2061646472657373207a65726f206973206e6f74206120766160008201527f6c6964206f776e65720000000000000000000000000000000000000000000000602082015250565b6000613e8f602983612c76565b9150613e9a82613e33565b604082019050919050565b60006020820190508181036000830152613ebe81613e82565b9050919050565b6000613ed18285613ca0565b9150613edd8284613ca0565b91508190509392505050565b7f596f7520617265206e6f7420617574686f72697a656400000000000000000000600082015250565b6000613f1f601683612c76565b9150613f2a82613ee9565b602082019050919050565b60006020820190508181036000830152613f4e81613f12565b9050919050565b7f566964656f20646f6573206e6f74206578697374000000000000000000000000600082015250565b6000613f8b601483612c76565b9150613f9682613f55565b602082019050919050565b60006020820190508181036000830152613fba81613f7e565b9050919050565b7f4e487b7100000000000000000000000000000000000000000000000000000000600052601260045260246000fd5b7f4552433732313a207472616e736665722066726f6d20696e636f72726563742060008201527f6f776e6572000000000000000000000000000000000000000000000000000000602082015250565b600061404c602583612c76565b915061405782613ff0565b604082019050919050565b6000602082019050818103600083015261407b8161403f565b9050919050565b7f4552433732313a207472616e7366657220746f20746865207a65726f2061646460008201527f7265737300000000000000000000000000000000000000000000000000000000602082015250565b60006140de602483612c76565b91506140e982614082565b604082019050919050565b6000602082019050818103600083015261410d816140d1565b9050919050565b7f4552433732313a20617070726f766520746f2063616c6c657200000000000000600082015250565b600061414a601983612c76565b915061415582614114565b602082019050919050565b600060208201905081810360008301526141798161413d565b9050919050565b7f4552433732313a207472616e7366657220746f206e6f6e20455243373231526560008201527f63656976657220696d706c656d656e7465720000000000000000000000000000602082015250565b60006141dc603283612c76565b91506141e782614180565b604082019050919050565b6000602082019050818103600083015261420b816141cf565b9050919050565b600061421d82612d1d565b915061422883612d1d565b92508282039050818111156142405761423f613b9b565b5b92915050565b600061425182612d1d565b915061425c83612d1d565b925082820190508082111561427457614273613b9b565b5b92915050565b600081519050919050565b600082825260208201905092915050565b60006142a18261427a565b6142ab8185614285565b93506142bb818560208601612c87565b6142c481612cb1565b840191505092915050565b60006080820190506142e46000830187612db2565b6142f16020830186612db2565b6142fe6040830185613038565b81810360608301526143108184614296565b905095945050505050565b60008151905061432a81612bdc565b92915050565b60006020828403121561434657614345612ba6565b5b60006143548482850161431b565b9150509291505056fea2646970667358221220fdf4be59d7528aa681d761f0471ab42b6b0f7d261b901c30e1a9e6293c505cda64736f6c63430008110033",
  "linkReferences": {},
  "deployedLinkReferences": {}
}