{
  "_format": "hh-sol-artifact-1",
  "contractName": "DOTT",
  "sourceName": "contracts/dMarket.sol",
  "abi": [
    {
      "inputs": [],
      "stateMutability": "nonpayable",
      "type": "constructor"
    },
    {
      "anonymous": false,
      "inputs": [
        {
          "indexed": true,
          "internalType": "address",
          "name": "owner",
          "type": "address"
        },
        {
          "indexed": true,
          "internalType": "address",
          "name": "approved",
          "type": "address"
        },
        {
          "indexed": true,
          "internalType": "uint256",
          "name": "tokenId",
          "type": "uint256"
        }
      ],
      "name": "Approval",
      "type": "event"
    },
    {
      "anonymous": false,
      "inputs": [
        {
          "indexed": true,
          "internalType": "address",
          "name": "owner",
          "type": "address"
        },
        {
          "indexed": true,
          "internalType": "address",
          "name": "operator",
          "type": "address"
        },
        {
          "indexed": false,
          "internalType": "bool",
          "name": "approved",
          "type": "bool"
        }
      ],
      "name": "ApprovalForAll",
      "type": "event"
    },
    {
      "anonymous": false,
      "inputs": [
        {
          "indexed": false,
          "internalType": "uint256",
          "name": "time",
          "type": "uint256"
        },
        {
          "indexed": true,
          "internalType": "address",
          "name": "from",
          "type": "address"
        },
        {
          "indexed": true,
          "internalType": "address",
          "name": "to",
          "type": "address"
        },
        {
          "indexed": true,
          "internalType": "string",
          "name": "name",
          "type": "string"
        },
        {
          "indexed": false,
          "internalType": "uint256",
          "name": "id",
          "type": "uint256"
        },
        {
          "indexed": false,
          "internalType": "string",
          "name": "price",
          "type": "string"
        }
      ],
      "name": "Log",
      "type": "event"
    },
    {
      "anonymous": false,
      "inputs": [
        {
          "indexed": true,
          "internalType": "address",
          "name": "from",
          "type": "address"
        },
        {
          "indexed": true,
          "internalType": "address",
          "name": "to",
          "type": "address"
        },
        {
          "indexed": true,
          "internalType": "uint256",
          "name": "tokenId",
          "type": "uint256"
        }
      ],
      "name": "Transfer",
      "type": "event"
    },
    {
      "inputs": [
        {
          "internalType": "string",
          "name": "name",
          "type": "string"
        },
        {
          "internalType": "string",
          "name": "description",
          "type": "string"
        },
        {
          "internalType": "string",
          "name": "link",
          "type": "string"
        },
        {
          "internalType": "string",
          "name": "price",
          "type": "string"
        }
      ],
      "name": "addVideo",
      "outputs": [],
      "stateMutability": "nonpayable",
      "type": "function"
    },
    {
      "inputs": [
        {
          "internalType": "address",
          "name": "to",
          "type": "address"
        },
        {
          "internalType": "uint256",
          "name": "tokenId",
          "type": "uint256"
        }
      ],
      "name": "approve",
      "outputs": [],
      "stateMutability": "nonpayable",
      "type": "function"
    },
    {
      "inputs": [
        {
          "internalType": "address",
          "name": "owner",
          "type": "address"
        }
      ],
      "name": "balanceOf",
      "outputs": [
        {
          "internalType": "uint256",
          "name": "",
          "type": "uint256"
        }
      ],
      "stateMutability": "view",
      "type": "function"
    },
    {
      "inputs": [
        {
          "internalType": "uint256",
          "name": "id",
          "type": "uint256"
        },
        {
          "internalType": "string",
          "name": "postedVideos",
          "type": "string"
        }
      ],
      "name": "deleteVideo",
      "outputs": [],
      "stateMutability": "nonpayable",
      "type": "function"
    },
    {
      "inputs": [
        {
          "internalType": "uint256",
          "name": "tokenId",
          "type": "uint256"
        }
      ],
      "name": "getApproved",
      "outputs": [
        {
          "internalType": "address",
          "name": "",
          "type": "address"
        }
      ],
      "stateMutability": "view",
      "type": "function"
    },
    {
      "inputs": [
        {
          "internalType": "address",
          "name": "wallet",
          "type": "address"
        }
      ],
      "name": "getUserByWallet",
      "outputs": [
        {
          "components": [
            {
              "internalType": "string",
              "name": "username",
              "type": "string"
            },
            {
              "internalType": "string",
              "name": "bio",
              "type": "string"
            },
            {
              "internalType": "uint256",
              "name": "userId",
              "type": "uint256"
            },
            {
              "internalType": "string",
              "name": "viewedVideos",
              "type": "string"
            },
            {
              "internalType": "string",
              "name": "postedVideos",
              "type": "string"
            }
          ],
          "internalType": "struct DOTT.User",
          "name": "",
          "type": "tuple"
        }
      ],
      "stateMutability": "view",
      "type": "function"
    },
    {
      "inputs": [
        {
          "internalType": "uint256",
          "name": "id",
          "type": "uint256"
        }
      ],
      "name": "getVideoById",
      "outputs": [
        {
          "components": [
            {
              "internalType": "address",
              "name": "owner",
              "type": "address"
            },
            {
              "internalType": "string",
              "name": "name",
              "type": "string"
            },
            {
              "internalType": "string",
              "name": "description",
              "type": "string"
            },
            {
              "internalType": "uint256",
              "name": "viewCount",
              "type": "uint256"
            },
            {
              "internalType": "string",
              "name": "link",
              "type": "string"
            },
            {
              "internalType": "string",
              "name": "price",
              "type": "string"
            }
          ],
          "internalType": "struct DOTT.Video",
          "name": "",
          "type": "tuple"
        }
      ],
      "stateMutability": "view",
      "type": "function"
    },
    {
      "inputs": [
        {
          "internalType": "uint256",
          "name": "id",
          "type": "uint256"
        }
      ],
      "name": "getVideoOwnerAndPrice",
      "outputs": [
        {
          "internalType": "address",
          "name": "",
          "type": "address"
        },
        {
          "internalType": "string",
          "name": "",
          "type": "string"
        }
      ],
      "stateMutability": "view",
      "type": "function"
    },
    {
      "inputs": [],
      "name": "increaseUserCounter",
      "outputs": [
        {
          "internalType": "uint256",
          "name": "",
          "type": "uint256"
        }
      ],
      "stateMutability": "nonpayable",
      "type": "function"
    },
    {
      "inputs": [],
      "name": "increaseVideoCounter",
      "outputs": [
        {
          "internalType": "uint256",
          "name": "",
          "type": "uint256"
        }
      ],
      "stateMutability": "nonpayable",
      "type": "function"
    },
    {
      "inputs": [
        {
          "internalType": "address",
          "name": "owner",
          "type": "address"
        },
        {
          "internalType": "address",
          "name": "operator",
          "type": "address"
        }
      ],
      "name": "isApprovedForAll",
      "outputs": [
        {
          "internalType": "bool",
          "name": "",
          "type": "bool"
        }
      ],
      "stateMutability": "view",
      "type": "function"
    },
    {
      "inputs": [],
      "name": "name",
      "outputs": [
        {
          "internalType": "string",
          "name": "",
          "type": "string"
        }
      ],
      "stateMutability": "view",
      "type": "function"
    },
    {
      "inputs": [],
      "name": "owner",
      "outputs": [
        {
          "internalType": "address payable",
          "name": "",
          "type": "address"
        }
      ],
      "stateMutability": "view",
      "type": "function"
    },
    {
      "inputs": [
        {
          "internalType": "uint256",
          "name": "tokenId",
          "type": "uint256"
        }
      ],
      "name": "ownerOf",
      "outputs": [
        {
          "internalType": "address",
          "name": "",
          "type": "address"
        }
      ],
      "stateMutability": "view",
      "type": "function"
    },
    {
      "inputs": [
        {
          "internalType": "string",
          "name": "username",
          "type": "string"
        },
        {
          "internalType": "string",
          "name": "bio",
          "type": "string"
        }
      ],
      "name": "registerUser",
      "outputs": [],
      "stateMutability": "nonpayable",
      "type": "function"
    },
    {
      "inputs": [
        {
          "internalType": "address",
          "name": "from",
          "type": "address"
        },
        {
          "internalType": "address",
          "name": "to",
          "type": "address"
        },
        {
          "internalType": "uint256",
          "name": "tokenId",
          "type": "uint256"
        }
      ],
      "name": "safeTransferFrom",
      "outputs": [],
      "stateMutability": "nonpayable",
      "type": "function"
    },
    {
      "inputs": [
        {
          "internalType": "address",
          "name": "from",
          "type": "address"
        },
        {
          "internalType": "address",
          "name": "to",
          "type": "address"
        },
        {
          "internalType": "uint256",
          "name": "tokenId",
          "type": "uint256"
        },
        {
          "internalType": "bytes",
          "name": "data",
          "type": "bytes"
        }
      ],
      "name": "safeTransferFrom",
      "outputs": [],
      "stateMutability": "nonpayable",
      "type": "function"
    },
    {
      "inputs": [],
      "name": "sayHello",
      "outputs": [
        {
          "internalType": "string",
          "name": "",
          "type": "string"
        }
      ],
      "stateMutability": "pure",
      "type": "function"
    },
    {
      "inputs": [
        {
          "internalType": "address",
          "name": "operator",
          "type": "address"
        },
        {
          "internalType": "bool",
          "name": "approved",
          "type": "bool"
        }
      ],
      "name": "setApprovalForAll",
      "outputs": [],
      "stateMutability": "nonpayable",
      "type": "function"
    },
    {
      "inputs": [
        {
          "internalType": "bytes4",
          "name": "interfaceId",
          "type": "bytes4"
        }
      ],
      "name": "supportsInterface",
      "outputs": [
        {
          "internalType": "bool",
          "name": "",
          "type": "bool"
        }
      ],
      "stateMutability": "view",
      "type": "function"
    },
    {
      "inputs": [],
      "name": "symbol",
      "outputs": [
        {
          "internalType": "string",
          "name": "",
          "type": "string"
        }
      ],
      "stateMutability": "view",
      "type": "function"
    },
    {
      "inputs": [
        {
          "internalType": "uint256",
          "name": "tokenId",
          "type": "uint256"
        }
      ],
      "name": "tokenURI",
      "outputs": [
        {
          "internalType": "string",
          "name": "",
          "type": "string"
        }
      ],
      "stateMutability": "view",
      "type": "function"
    },
    {
      "inputs": [
        {
          "internalType": "address",
          "name": "from",
          "type": "address"
        },
        {
          "internalType": "address",
          "name": "to",
          "type": "address"
        },
        {
          "internalType": "uint256",
          "name": "tokenId",
          "type": "uint256"
        }
      ],
      "name": "transferFrom",
      "outputs": [],
      "stateMutability": "nonpayable",
      "type": "function"
    },
    {
      "inputs": [
        {
          "internalType": "string",
          "name": "username",
          "type": "string"
        },
        {
          "internalType": "string",
          "name": "bio",
          "type": "string"
        }
      ],
      "name": "updateUser",
      "outputs": [],
      "stateMutability": "nonpayable",
      "type": "function"
    },
    {
      "inputs": [
        {
          "internalType": "uint256",
          "name": "id",
          "type": "uint256"
        },
        {
          "internalType": "string",
          "name": "price",
          "type": "string"
        },
        {
          "internalType": "string",
          "name": "name",
          "type": "string"
        },
        {
          "internalType": "string",
          "name": "description",
          "type": "string"
        }
      ],
      "name": "updateVideo",
      "outputs": [],
      "stateMutability": "nonpayable",
      "type": "function"
    },
    {
      "inputs": [
        {
          "internalType": "string",
          "name": "viewedVideos",
          "type": "string"
        },
        {
          "internalType": "uint256",
          "name": "videoId",
          "type": "uint256"
        }
      ],
      "name": "updateViewedVideos",
      "outputs": [],
      "stateMutability": "nonpayable",
      "type": "function"
    },
    {
      "inputs": [
        {
          "internalType": "address",
          "name": "",
          "type": "address"
        }
      ],
      "name": "userMappings",
      "outputs": [
        {
          "internalType": "string",
          "name": "username",
          "type": "string"
        },
        {
          "internalType": "string",
          "name": "bio",
          "type": "string"
        },
        {
          "internalType": "uint256",
          "name": "userId",
          "type": "uint256"
        },
        {
          "internalType": "string",
          "name": "viewedVideos",
          "type": "string"
        },
        {
          "internalType": "string",
          "name": "postedVideos",
          "type": "string"
        }
      ],
      "stateMutability": "view",
      "type": "function"
    },
    {
      "inputs": [],
      "name": "videoCounter",
      "outputs": [
        {
          "internalType": "uint256",
          "name": "",
          "type": "uint256"
        }
      ],
      "stateMutability": "view",
      "type": "function"
    },
    {
      "inputs": [
        {
          "internalType": "uint256",
          "name": "",
          "type": "uint256"
        }
      ],
      "name": "videoMappings",
      "outputs": [
        {
          "internalType": "address",
          "name": "owner",
          "type": "address"
        },
        {
          "internalType": "string",
          "name": "name",
          "type": "string"
        },
        {
          "internalType": "string",
          "name": "description",
          "type": "string"
        },
        {
          "internalType": "uint256",
          "name": "viewCount",
          "type": "uint256"
        },
        {
          "internalType": "string",
          "name": "link",
          "type": "string"
        },
        {
          "internalType": "string",
          "name": "price",
          "type": "string"
        }
      ],
      "stateMutability": "view",
      "type": "function"
    }
  ],
  "bytecode": "0x6080604052600060085560006009553480156200001b57600080fd5b506040518060400160405280600481526020017f444f5454000000000000000000000000000000000000000000000000000000008152506040518060400160405280600481526020017f444f54540000000000000000000000000000000000000000000000000000000081525081600090816200009991906200036f565b508060019081620000ab91906200036f565b50505033600760006101000a81548173ffffffffffffffffffffffffffffffffffffffff021916908373ffffffffffffffffffffffffffffffffffffffff16021790555062000456565b600081519050919050565b7f4e487b7100000000000000000000000000000000000000000000000000000000600052604160045260246000fd5b7f4e487b7100000000000000000000000000000000000000000000000000000000600052602260045260246000fd5b600060028204905060018216806200017757607f821691505b6020821081036200018d576200018c6200012f565b5b50919050565b60008190508160005260206000209050919050565b60006020601f8301049050919050565b600082821b905092915050565b600060088302620001f77fffffffffffffffffffffffffffffffffffffffffffffffffffffffffffffffff82620001b8565b620002038683620001b8565b95508019841693508086168417925050509392505050565b6000819050919050565b6000819050919050565b6000620002506200024a62000244846200021b565b62000225565b6200021b565b9050919050565b6000819050919050565b6200026c836200022f565b620002846200027b8262000257565b848454620001c5565b825550505050565b600090565b6200029b6200028c565b620002a881848462000261565b505050565b5b81811015620002d057620002c460008262000291565b600181019050620002ae565b5050565b601f8211156200031f57620002e98162000193565b620002f484620001a8565b8101602085101562000304578190505b6200031c6200031385620001a8565b830182620002ad565b50505b505050565b600082821c905092915050565b6000620003446000198460080262000324565b1980831691505092915050565b60006200035f838362000331565b9150826002028217905092915050565b6200037a82620000f5565b67ffffffffffffffff81111562000396576200039562000100565b5b620003a282546200015e565b620003af828285620002d4565b600060209050601f831160018114620003e75760008415620003d2578287015190505b620003de858262000351565b8655506200044e565b601f198416620003f78662000193565b60005b828110156200042157848901518255600182019150602085019450602081019050620003fa565b868310156200044157848901516200043d601f89168262000331565b8355505b6001600288020188555050505b505050505050565b61460f80620004666000396000f3fe608060405234801561001057600080fd5b50600436106101cf5760003560e01c806344fb111a1161010457806395d89b41116100a2578063c87b56dd11610071578063c87b56dd1461055a578063dd4a24251461058a578063e985e9c5146105a6578063ef5fb05b146105d6576101cf565b806395d89b41146104d4578063a22cb465146104f2578063a9ba45601461050e578063b88d4fde1461053e576101cf565b80636352211e116100de5780636352211e1461042557806370a08231146104555780638373ab5a146104855780638da5cb5b146104b6576101cf565b806344fb111a146103b7578063492bb9b5146103d35780635a9e416c146103f1576101cf565b80631d2e4afd11610171578063309ebfb91161014b578063309ebfb91461031a578063390d2e99146103365780633b0328be1461036b57806342842e0e1461039b576101cf565b80631d2e4afd146102c657806323b872dd146102e257806326d4a0c5146102fe576101cf565b8063095ea7b3116101ad578063095ea7b31461025257806309e99fbd1461026e5780630debb9321461028c57806318f36201146102aa576101cf565b806301ffc9a7146101d457806306fdde0314610204578063081812fc14610222575b600080fd5b6101ee60048036038101906101e99190612dc2565b6105f4565b6040516101fb9190612e0a565b60405180910390f35b61020c6106d6565b6040516102199190612eb5565b60405180910390f35b61023c60048036038101906102379190612f0d565b610768565b6040516102499190612f7b565b60405180910390f35b61026c60048036038101906102679190612fc2565b6107ae565b005b6102766108c5565b6040516102839190613011565b60405180910390f35b6102946108e7565b6040516102a19190613011565b60405180910390f35b6102c460048036038101906102bf9190613161565b610909565b005b6102e060048036038101906102db91906131bd565b610a68565b005b6102fc60048036038101906102f79190613235565b610b62565b005b61031860048036038101906103139190613288565b610bc2565b005b610334600480360381019061032f91906132e4565b610c9b565b005b610350600480360381019061034b9190612f0d565b610db1565b604051610362969594939291906133bb565b60405180910390f35b61038560048036038101906103809190613438565b61102d565b6040516103929190613549565b60405180910390f35b6103b560048036038101906103b09190613235565b6112d8565b005b6103d160048036038101906103cc919061356b565b6112f8565b005b6103db6114b3565b6040516103e89190613011565b60405180910390f35b61040b60048036038101906104069190613438565b6114b9565b60405161041c959493929190613626565b60405180910390f35b61043f600480360381019061043a9190612f0d565b61170f565b60405161044c9190612f7b565b60405180910390f35b61046f600480360381019061046a9190613438565b611795565b60405161047c9190613011565b60405180910390f35b61049f600480360381019061049a9190612f0d565b61184c565b6040516104ad929190613695565b60405180910390f35b6104be611932565b6040516104cb91906136e6565b60405180910390f35b6104dc611958565b6040516104e99190612eb5565b60405180910390f35b61050c6004803603810190610507919061372d565b6119ea565b005b61052860048036038101906105239190612f0d565b611a00565b604051610535919061381a565b60405180910390f35b610558600480360381019061055391906138dd565b611cd5565b005b610574600480360381019061056f9190612f0d565b611d37565b6040516105819190612eb5565b60405180910390f35b6105a4600480360381019061059f91906131bd565b611e49565b005b6105c060048036038101906105bb9190613960565b611eed565b6040516105cd9190612e0a565b60405180910390f35b6105de611f81565b6040516105eb9190612eb5565b60405180910390f35b60007f80ac58cd000000000000000000000000000000000000000000000000000000007bffffffffffffffffffffffffffffffffffffffffffffffffffffffff1916827bffffffffffffffffffffffffffffffffffffffffffffffffffffffff191614806106bf57507f5b5e139f000000000000000000000000000000000000000000000000000000007bffffffffffffffffffffffffffffffffffffffffffffffffffffffff1916827bffffffffffffffffffffffffffffffffffffffffffffffffffffffff1916145b806106cf57506106ce82611fbe565b5b9050919050565b6060600080546106e5906139cf565b80601f0160208091040260200160405190810160405280929190818152602001828054610711906139cf565b801561075e5780601f106107335761010080835404028352916020019161075e565b820191906000526020600020905b81548152906001019060200180831161074157829003601f168201915b5050505050905090565b600061077382612028565b6004600083815260200190815260200160002060009054906101000a900473ffffffffffffffffffffffffffffffffffffffff169050919050565b60006107b98261170f565b90508073ffffffffffffffffffffffffffffffffffffffff168373ffffffffffffffffffffffffffffffffffffffff1603610829576040517f08c379a000000000000000000000000000000000000000000000000000000000815260040161082090613a72565b60405180910390fd5b8073ffffffffffffffffffffffffffffffffffffffff16610848612073565b73ffffffffffffffffffffffffffffffffffffffff161480610877575061087681610871612073565b611eed565b5b6108b6576040517f08c379a00000000000000000000000000000000000000000000000000000000081526004016108ad90613b04565b60405180910390fd5b6108c0838361207b565b505050565b6000600860008154809291906108da90613b53565b9190505550600854905090565b6000600960008154809291906108fc90613b53565b9190505550600954905090565b81600a60003373ffffffffffffffffffffffffffffffffffffffff1673ffffffffffffffffffffffffffffffffffffffff16815260200190815260200160002060030190816109589190613d47565b50600b6000828152602001908152602001600020600301600081548092919061098090613b53565b9190505550600b60008281526020019081526020016000206001016040516109a89190613ea7565b6040518091039020600b600083815260200190815260200160002060000160009054906101000a900473ffffffffffffffffffffffffffffffffffffffff1673ffffffffffffffffffffffffffffffffffffffff163373ffffffffffffffffffffffffffffffffffffffff167f0aa77bab6c3de729029160438f80857c9a051117617f02e46c10868deadc4d934285600b6000888152602001908152602001600020600501604051610a5c93929190613f42565b60405180910390a45050565b6000610a726108c5565b90506040518060a0016040528084815260200183815260200182815260200160405180602001604052806000815250815260200160405180602001604052806000815250815250600a60003373ffffffffffffffffffffffffffffffffffffffff1673ffffffffffffffffffffffffffffffffffffffff1681526020019081526020016000206000820151816000019081610b0d9190613d47565b506020820151816001019081610b239190613d47565b50604082015181600201556060820151816003019081610b439190613d47565b506080820151816004019081610b599190613d47565b50905050505050565b610b73610b6d612073565b82612134565b610bb2576040517f08c379a0000000000000000000000000000000000000000000000000000000008152600401610ba990613ff2565b60405180910390fd5b610bbd8383836121c9565b505050565b80600a60003373ffffffffffffffffffffffffffffffffffffffff1673ffffffffffffffffffffffffffffffffffffffff1681526020019081526020016000206004019081610c119190613d47565b50600b6000838152602001908152602001600020600080820160006101000a81549073ffffffffffffffffffffffffffffffffffffffff0219169055600182016000610c5d9190612c7e565b600282016000610c6d9190612c7e565b6003820160009055600482016000610c859190612c7e565b600582016000610c959190612c7e565b50505050565b6000610ca56108e7565b90506040518060c001604052803373ffffffffffffffffffffffffffffffffffffffff1681526020018681526020018581526020016000815260200184815260200183815250600b600083815260200190815260200160002060008201518160000160006101000a81548173ffffffffffffffffffffffffffffffffffffffff021916908373ffffffffffffffffffffffffffffffffffffffff1602179055506020820151816001019081610d5a9190613d47565b506040820151816002019081610d709190613d47565b50606082015181600301556080820151816004019081610d909190613d47565b5060a0820151816005019081610da69190613d47565b509050505050505050565b600b6020528060005260406000206000915090508060000160009054906101000a900473ffffffffffffffffffffffffffffffffffffffff1690806001018054610dfa906139cf565b80601f0160208091040260200160405190810160405280929190818152602001828054610e26906139cf565b8015610e735780601f10610e4857610100808354040283529160200191610e73565b820191906000526020600020905b815481529060010190602001808311610e5657829003601f168201915b505050505090806002018054610e88906139cf565b80601f0160208091040260200160405190810160405280929190818152602001828054610eb4906139cf565b8015610f015780601f10610ed657610100808354040283529160200191610f01565b820191906000526020600020905b815481529060010190602001808311610ee457829003601f168201915b505050505090806003015490806004018054610f1c906139cf565b80601f0160208091040260200160405190810160405280929190818152602001828054610f48906139cf565b8015610f955780601f10610f6a57610100808354040283529160200191610f95565b820191906000526020600020905b815481529060010190602001808311610f7857829003601f168201915b505050505090806005018054610faa906139cf565b80601f0160208091040260200160405190810160405280929190818152602001828054610fd6906139cf565b80156110235780601f10610ff857610100808354040283529160200191611023565b820191906000526020600020905b81548152906001019060200180831161100657829003601f168201915b5050505050905086565b611035612cbe565b600a60008373ffffffffffffffffffffffffffffffffffffffff1673ffffffffffffffffffffffffffffffffffffffff1681526020019081526020016000206040518060a001604052908160008201805461108f906139cf565b80601f01602080910402602001604051908101604052809291908181526020018280546110bb906139cf565b80156111085780601f106110dd57610100808354040283529160200191611108565b820191906000526020600020905b8154815290600101906020018083116110eb57829003601f168201915b50505050508152602001600182018054611121906139cf565b80601f016020809104026020016040519081016040528092919081815260200182805461114d906139cf565b801561119a5780601f1061116f5761010080835404028352916020019161119a565b820191906000526020600020905b81548152906001019060200180831161117d57829003601f168201915b50505050508152602001600282015481526020016003820180546111bd906139cf565b80601f01602080910402602001604051908101604052809291908181526020018280546111e9906139cf565b80156112365780601f1061120b57610100808354040283529160200191611236565b820191906000526020600020905b81548152906001019060200180831161121957829003601f168201915b5050505050815260200160048201805461124f906139cf565b80601f016020809104026020016040519081016040528092919081815260200182805461127b906139cf565b80156112c85780601f1061129d576101008083540402835291602001916112c8565b820191906000526020600020905b8154815290600101906020018083116112ab57829003601f168201915b5050505050815250509050919050565b6112f383838360405180602001604052806000815250611cd5565b505050565b3373ffffffffffffffffffffffffffffffffffffffff16600b600086815260200190815260200160002060000160009054906101000a900473ffffffffffffffffffffffffffffffffffffffff1673ffffffffffffffffffffffffffffffffffffffff161461139c576040517f08c379a00000000000000000000000000000000000000000000000000000000081526004016113939061405e565b60405180910390fd5b600073ffffffffffffffffffffffffffffffffffffffff16600b600086815260200190815260200160002060000160009054906101000a900473ffffffffffffffffffffffffffffffffffffffff1673ffffffffffffffffffffffffffffffffffffffff1603611441576040517f08c379a0000000000000000000000000000000000000000000000000000000008152600401611438906140ca565b60405180910390fd5b81600b600086815260200190815260200160002060010190816114649190613d47565b5080600b600086815260200190815260200160002060020190816114889190613d47565b5082600b600086815260200190815260200160002060050190816114ac9190613d47565b5050505050565b60095481565b600a6020528060005260406000206000915090508060000180546114dc906139cf565b80601f0160208091040260200160405190810160405280929190818152602001828054611508906139cf565b80156115555780601f1061152a57610100808354040283529160200191611555565b820191906000526020600020905b81548152906001019060200180831161153857829003601f168201915b50505050509080600101805461156a906139cf565b80601f0160208091040260200160405190810160405280929190818152602001828054611596906139cf565b80156115e35780601f106115b8576101008083540402835291602001916115e3565b820191906000526020600020905b8154815290600101906020018083116115c657829003601f168201915b5050505050908060020154908060030180546115fe906139cf565b80601f016020809104026020016040519081016040528092919081815260200182805461162a906139cf565b80156116775780601f1061164c57610100808354040283529160200191611677565b820191906000526020600020905b81548152906001019060200180831161165a57829003601f168201915b50505050509080600401805461168c906139cf565b80601f01602080910402602001604051908101604052809291908181526020018280546116b8906139cf565b80156117055780601f106116da57610100808354040283529160200191611705565b820191906000526020600020905b8154815290600101906020018083116116e857829003601f168201915b5050505050905085565b60008061171b836124c2565b9050600073ffffffffffffffffffffffffffffffffffffffff168173ffffffffffffffffffffffffffffffffffffffff160361178c576040517f08c379a000000000000000000000000000000000000000000000000000000000815260040161178390614136565b60405180910390fd5b80915050919050565b60008073ffffffffffffffffffffffffffffffffffffffff168273ffffffffffffffffffffffffffffffffffffffff1603611805576040517f08c379a00000000000000000000000000000000000000000000000000000000081526004016117fc906141c8565b60405180910390fd5b600360008373ffffffffffffffffffffffffffffffffffffffff1673ffffffffffffffffffffffffffffffffffffffff168152602001908152602001600020549050919050565b60006060600b600084815260200190815260200160002060000160009054906101000a900473ffffffffffffffffffffffffffffffffffffffff16600b60008581526020019081526020016000206005018080546118a9906139cf565b80601f01602080910402602001604051908101604052809291908181526020018280546118d5906139cf565b80156119225780601f106118f757610100808354040283529160200191611922565b820191906000526020600020905b81548152906001019060200180831161190557829003601f168201915b5050505050905091509150915091565b600760009054906101000a900473ffffffffffffffffffffffffffffffffffffffff1681565b606060018054611967906139cf565b80601f0160208091040260200160405190810160405280929190818152602001828054611993906139cf565b80156119e05780601f106119b5576101008083540402835291602001916119e0565b820191906000526020600020905b8154815290600101906020018083116119c357829003601f168201915b5050505050905090565b6119fc6119f5612073565b83836124ff565b5050565b611a08612ced565b600b60008381526020019081526020016000206040518060c00160405290816000820160009054906101000a900473ffffffffffffffffffffffffffffffffffffffff1673ffffffffffffffffffffffffffffffffffffffff1673ffffffffffffffffffffffffffffffffffffffff168152602001600182018054611a8c906139cf565b80601f0160208091040260200160405190810160405280929190818152602001828054611ab8906139cf565b8015611b055780601f10611ada57610100808354040283529160200191611b05565b820191906000526020600020905b815481529060010190602001808311611ae857829003601f168201915b50505050508152602001600282018054611b1e906139cf565b80601f0160208091040260200160405190810160405280929190818152602001828054611b4a906139cf565b8015611b975780601f10611b6c57610100808354040283529160200191611b97565b820191906000526020600020905b815481529060010190602001808311611b7a57829003601f168201915b5050505050815260200160038201548152602001600482018054611bba906139cf565b80601f0160208091040260200160405190810160405280929190818152602001828054611be6906139cf565b8015611c335780601f10611c0857610100808354040283529160200191611c33565b820191906000526020600020905b815481529060010190602001808311611c1657829003601f168201915b50505050508152602001600582018054611c4c906139cf565b80601f0160208091040260200160405190810160405280929190818152602001828054611c78906139cf565b8015611cc55780601f10611c9a57610100808354040283529160200191611cc5565b820191906000526020600020905b815481529060010190602001808311611ca857829003601f168201915b5050505050815250509050919050565b611ce6611ce0612073565b83612134565b611d25576040517f08c379a0000000000000000000000000000000000000000000000000000000008152600401611d1c90613ff2565b60405180910390fd5b611d318484848461266b565b50505050565b6060611d4282612028565b6000600660008481526020019081526020016000208054611d62906139cf565b80601f0160208091040260200160405190810160405280929190818152602001828054611d8e906139cf565b8015611ddb5780601f10611db057610100808354040283529160200191611ddb565b820191906000526020600020905b815481529060010190602001808311611dbe57829003601f168201915b505050505090506000611dec6126c7565b90506000815103611e01578192505050611e44565b600082511115611e36578082604051602001611e1e929190614219565b60405160208183030381529060405292505050611e44565b611e3f846126de565b925050505b919050565b80600a60003373ffffffffffffffffffffffffffffffffffffffff1673ffffffffffffffffffffffffffffffffffffffff1681526020019081526020016000206001019081611e989190613d47565b5081600a60003373ffffffffffffffffffffffffffffffffffffffff1673ffffffffffffffffffffffffffffffffffffffff1681526020019081526020016000206000019081611ee89190613d47565b505050565b6000600560008473ffffffffffffffffffffffffffffffffffffffff1673ffffffffffffffffffffffffffffffffffffffff16815260200190815260200160002060008373ffffffffffffffffffffffffffffffffffffffff1673ffffffffffffffffffffffffffffffffffffffff16815260200190815260200160002060009054906101000a900460ff16905092915050565b60606040518060400160405280600b81526020017f48656c6c6f207468657265000000000000000000000000000000000000000000815250905090565b60007f01ffc9a7000000000000000000000000000000000000000000000000000000007bffffffffffffffffffffffffffffffffffffffffffffffffffffffff1916827bffffffffffffffffffffffffffffffffffffffffffffffffffffffff1916149050919050565b61203181612746565b612070576040517f08c379a000000000000000000000000000000000000000000000000000000000815260040161206790614136565b60405180910390fd5b50565b600033905090565b816004600083815260200190815260200160002060006101000a81548173ffffffffffffffffffffffffffffffffffffffff021916908373ffffffffffffffffffffffffffffffffffffffff160217905550808273ffffffffffffffffffffffffffffffffffffffff166120ee8361170f565b73ffffffffffffffffffffffffffffffffffffffff167f8c5be1e5ebec7d5bd14f71427d1e84f3dd0314c0f7b2291e5b200ac8c7c3b92560405160405180910390a45050565b6000806121408361170f565b90508073ffffffffffffffffffffffffffffffffffffffff168473ffffffffffffffffffffffffffffffffffffffff16148061218257506121818185611eed565b5b806121c057508373ffffffffffffffffffffffffffffffffffffffff166121a884610768565b73ffffffffffffffffffffffffffffffffffffffff16145b91505092915050565b8273ffffffffffffffffffffffffffffffffffffffff166121e98261170f565b73ffffffffffffffffffffffffffffffffffffffff161461223f576040517f08c379a0000000000000000000000000000000000000000000000000000000008152600401612236906142af565b60405180910390fd5b600073ffffffffffffffffffffffffffffffffffffffff168273ffffffffffffffffffffffffffffffffffffffff16036122ae576040517f08c379a00000000000000000000000000000000000000000000000000000000081526004016122a590614341565b60405180910390fd5b6122bb8383836001612787565b8273ffffffffffffffffffffffffffffffffffffffff166122db8261170f565b73ffffffffffffffffffffffffffffffffffffffff1614612331576040517f08c379a0000000000000000000000000000000000000000000000000000000008152600401612328906142af565b60405180910390fd5b6004600082815260200190815260200160002060006101000a81549073ffffffffffffffffffffffffffffffffffffffff02191690556001600360008573ffffffffffffffffffffffffffffffffffffffff1673ffffffffffffffffffffffffffffffffffffffff168152602001908152602001600020600082825403925050819055506001600360008473ffffffffffffffffffffffffffffffffffffffff1673ffffffffffffffffffffffffffffffffffffffff16815260200190815260200160002060008282540192505081905550816002600083815260200190815260200160002060006101000a81548173ffffffffffffffffffffffffffffffffffffffff021916908373ffffffffffffffffffffffffffffffffffffffff160217905550808273ffffffffffffffffffffffffffffffffffffffff168473ffffffffffffffffffffffffffffffffffffffff167fddf252ad1be2c89b69c2b068fc378daa952ba7f163c4a11628f55a4df523b3ef60405160405180910390a46124bd83838360016128ad565b505050565b60006002600083815260200190815260200160002060009054906101000a900473ffffffffffffffffffffffffffffffffffffffff169050919050565b8173ffffffffffffffffffffffffffffffffffffffff168373ffffffffffffffffffffffffffffffffffffffff160361256d576040517f08c379a0000000000000000000000000000000000000000000000000000000008152600401612564906143ad565b60405180910390fd5b80600560008573ffffffffffffffffffffffffffffffffffffffff1673ffffffffffffffffffffffffffffffffffffffff16815260200190815260200160002060008473ffffffffffffffffffffffffffffffffffffffff1673ffffffffffffffffffffffffffffffffffffffff16815260200190815260200160002060006101000a81548160ff0219169083151502179055508173ffffffffffffffffffffffffffffffffffffffff168373ffffffffffffffffffffffffffffffffffffffff167f17307eab39ab6107e8899845ad3d59bd9653f200f220920489ca2b5937696c318360405161265e9190612e0a565b60405180910390a3505050565b6126768484846121c9565b612682848484846128b3565b6126c1576040517f08c379a00000000000000000000000000000000000000000000000000000000081526004016126b89061443f565b60405180910390fd5b50505050565b606060405180602001604052806000815250905090565b60606126e982612028565b60006126f36126c7565b90506000815111612713576040518060200160405280600081525061273e565b8061271d84612a3a565b60405160200161272e929190614219565b6040516020818303038152906040525b915050919050565b60008073ffffffffffffffffffffffffffffffffffffffff16612768836124c2565b73ffffffffffffffffffffffffffffffffffffffff1614159050919050565b60018111156128a757600073ffffffffffffffffffffffffffffffffffffffff168473ffffffffffffffffffffffffffffffffffffffff161461281b5780600360008673ffffffffffffffffffffffffffffffffffffffff1673ffffffffffffffffffffffffffffffffffffffff1681526020019081526020016000206000828254612813919061445f565b925050819055505b600073ffffffffffffffffffffffffffffffffffffffff168373ffffffffffffffffffffffffffffffffffffffff16146128a65780600360008573ffffffffffffffffffffffffffffffffffffffff1673ffffffffffffffffffffffffffffffffffffffff168152602001908152602001600020600082825461289e9190614493565b925050819055505b5b50505050565b50505050565b60006128d48473ffffffffffffffffffffffffffffffffffffffff16612b08565b15612a2d578373ffffffffffffffffffffffffffffffffffffffff1663150b7a026128fd612073565b8786866040518563ffffffff1660e01b815260040161291f949392919061451c565b6020604051808303816000875af192505050801561295b57506040513d601f19601f82011682018060405250810190612958919061457d565b60015b6129dd573d806000811461298b576040519150601f19603f3d011682016040523d82523d6000602084013e612990565b606091505b5060008151036129d5576040517f08c379a00000000000000000000000000000000000000000000000000000000081526004016129cc9061443f565b60405180910390fd5b805181602001fd5b63150b7a0260e01b7bffffffffffffffffffffffffffffffffffffffffffffffffffffffff1916817bffffffffffffffffffffffffffffffffffffffffffffffffffffffff191614915050612a32565b600190505b949350505050565b606060006001612a4984612b2b565b01905060008167ffffffffffffffff811115612a6857612a67613036565b5b6040519080825280601f01601f191660200182016040528015612a9a5781602001600182028036833780820191505090505b509050600082602001820190505b600115612afd578080600190039150507f3031323334353637383961626364656600000000000000000000000000000000600a86061a8153600a8581612af157612af06145aa565b5b04945060008503612aa8575b819350505050919050565b6000808273ffffffffffffffffffffffffffffffffffffffff163b119050919050565b600080600090507a184f03e93ff9f4daa797ed6e38ed64bf6a1f0100000000000000008310612b89577a184f03e93ff9f4daa797ed6e38ed64bf6a1f0100000000000000008381612b7f57612b7e6145aa565b5b0492506040810190505b6d04ee2d6d415b85acef81000000008310612bc6576d04ee2d6d415b85acef81000000008381612bbc57612bbb6145aa565b5b0492506020810190505b662386f26fc100008310612bf557662386f26fc100008381612beb57612bea6145aa565b5b0492506010810190505b6305f5e1008310612c1e576305f5e1008381612c1457612c136145aa565b5b0492506008810190505b6127108310612c43576127108381612c3957612c386145aa565b5b0492506004810190505b60648310612c665760648381612c5c57612c5b6145aa565b5b0492506002810190505b600a8310612c75576001810190505b80915050919050565b508054612c8a906139cf565b6000825580601f10612c9c5750612cbb565b601f016020900490600052602060002090810190612cba9190612d39565b5b50565b6040518060a0016040528060608152602001606081526020016000815260200160608152602001606081525090565b6040518060c00160405280600073ffffffffffffffffffffffffffffffffffffffff16815260200160608152602001606081526020016000815260200160608152602001606081525090565b5b80821115612d52576000816000905550600101612d3a565b5090565b6000604051905090565b600080fd5b600080fd5b60007fffffffff0000000000000000000000000000000000000000000000000000000082169050919050565b612d9f81612d6a565b8114612daa57600080fd5b50565b600081359050612dbc81612d96565b92915050565b600060208284031215612dd857612dd7612d60565b5b6000612de684828501612dad565b91505092915050565b60008115159050919050565b612e0481612def565b82525050565b6000602082019050612e1f6000830184612dfb565b92915050565b600081519050919050565b600082825260208201905092915050565b60005b83811015612e5f578082015181840152602081019050612e44565b60008484015250505050565b6000601f19601f8301169050919050565b6000612e8782612e25565b612e918185612e30565b9350612ea1818560208601612e41565b612eaa81612e6b565b840191505092915050565b60006020820190508181036000830152612ecf8184612e7c565b905092915050565b6000819050919050565b612eea81612ed7565b8114612ef557600080fd5b50565b600081359050612f0781612ee1565b92915050565b600060208284031215612f2357612f22612d60565b5b6000612f3184828501612ef8565b91505092915050565b600073ffffffffffffffffffffffffffffffffffffffff82169050919050565b6000612f6582612f3a565b9050919050565b612f7581612f5a565b82525050565b6000602082019050612f906000830184612f6c565b92915050565b612f9f81612f5a565b8114612faa57600080fd5b50565b600081359050612fbc81612f96565b92915050565b60008060408385031215612fd957612fd8612d60565b5b6000612fe785828601612fad565b9250506020612ff885828601612ef8565b9150509250929050565b61300b81612ed7565b82525050565b60006020820190506130266000830184613002565b92915050565b600080fd5b600080fd5b7f4e487b7100000000000000000000000000000000000000000000000000000000600052604160045260246000fd5b61306e82612e6b565b810181811067ffffffffffffffff8211171561308d5761308c613036565b5b80604052505050565b60006130a0612d56565b90506130ac8282613065565b919050565b600067ffffffffffffffff8211156130cc576130cb613036565b5b6130d582612e6b565b9050602081019050919050565b82818337600083830152505050565b60006131046130ff846130b1565b613096565b9050828152602081018484840111156131205761311f613031565b5b61312b8482856130e2565b509392505050565b600082601f8301126131485761314761302c565b5b81356131588482602086016130f1565b91505092915050565b6000806040838503121561317857613177612d60565b5b600083013567ffffffffffffffff81111561319657613195612d65565b5b6131a285828601613133565b92505060206131b385828601612ef8565b9150509250929050565b600080604083850312156131d4576131d3612d60565b5b600083013567ffffffffffffffff8111156131f2576131f1612d65565b5b6131fe85828601613133565b925050602083013567ffffffffffffffff81111561321f5761321e612d65565b5b61322b85828601613133565b9150509250929050565b60008060006060848603121561324e5761324d612d60565b5b600061325c86828701612fad565b935050602061326d86828701612fad565b925050604061327e86828701612ef8565b9150509250925092565b6000806040838503121561329f5761329e612d60565b5b60006132ad85828601612ef8565b925050602083013567ffffffffffffffff8111156132ce576132cd612d65565b5b6132da85828601613133565b9150509250929050565b600080600080608085870312156132fe576132fd612d60565b5b600085013567ffffffffffffffff81111561331c5761331b612d65565b5b61332887828801613133565b945050602085013567ffffffffffffffff81111561334957613348612d65565b5b61335587828801613133565b935050604085013567ffffffffffffffff81111561337657613375612d65565b5b61338287828801613133565b925050606085013567ffffffffffffffff8111156133a3576133a2612d65565b5b6133af87828801613133565b91505092959194509250565b600060c0820190506133d06000830189612f6c565b81810360208301526133e28188612e7c565b905081810360408301526133f68187612e7c565b90506134056060830186613002565b81810360808301526134178185612e7c565b905081810360a083015261342b8184612e7c565b9050979650505050505050565b60006020828403121561344e5761344d612d60565b5b600061345c84828501612fad565b91505092915050565b600082825260208201905092915050565b600061348182612e25565b61348b8185613465565b935061349b818560208601612e41565b6134a481612e6b565b840191505092915050565b6134b881612ed7565b82525050565b600060a08301600083015184820360008601526134db8282613476565b915050602083015184820360208601526134f58282613476565b915050604083015161350a60408601826134af565b50606083015184820360608601526135228282613476565b9150506080830151848203608086015261353c8282613476565b9150508091505092915050565b6000602082019050818103600083015261356381846134be565b905092915050565b6000806000806080858703121561358557613584612d60565b5b600061359387828801612ef8565b945050602085013567ffffffffffffffff8111156135b4576135b3612d65565b5b6135c087828801613133565b935050604085013567ffffffffffffffff8111156135e1576135e0612d65565b5b6135ed87828801613133565b925050606085013567ffffffffffffffff81111561360e5761360d612d65565b5b61361a87828801613133565b91505092959194509250565b600060a08201905081810360008301526136408188612e7c565b905081810360208301526136548187612e7c565b90506136636040830186613002565b81810360608301526136758185612e7c565b905081810360808301526136898184612e7c565b90509695505050505050565b60006040820190506136aa6000830185612f6c565b81810360208301526136bc8184612e7c565b90509392505050565b60006136d082612f3a565b9050919050565b6136e0816136c5565b82525050565b60006020820190506136fb60008301846136d7565b92915050565b61370a81612def565b811461371557600080fd5b50565b60008135905061372781613701565b92915050565b6000806040838503121561374457613743612d60565b5b600061375285828601612fad565b925050602061376385828601613718565b9150509250929050565b61377681612f5a565b82525050565b600060c083016000830151613794600086018261376d565b50602083015184820360208601526137ac8282613476565b915050604083015184820360408601526137c68282613476565b91505060608301516137db60608601826134af565b50608083015184820360808601526137f38282613476565b91505060a083015184820360a086015261380d8282613476565b9150508091505092915050565b60006020820190508181036000830152613834818461377c565b905092915050565b600067ffffffffffffffff82111561385757613856613036565b5b61386082612e6b565b9050602081019050919050565b600061388061387b8461383c565b613096565b90508281526020810184848401111561389c5761389b613031565b5b6138a78482856130e2565b509392505050565b600082601f8301126138c4576138c361302c565b5b81356138d484826020860161386d565b91505092915050565b600080600080608085870312156138f7576138f6612d60565b5b600061390587828801612fad565b945050602061391687828801612fad565b935050604061392787828801612ef8565b925050606085013567ffffffffffffffff81111561394857613947612d65565b5b613954878288016138af565b91505092959194509250565b6000806040838503121561397757613976612d60565b5b600061398585828601612fad565b925050602061399685828601612fad565b9150509250929050565b7f4e487b7100000000000000000000000000000000000000000000000000000000600052602260045260246000fd5b600060028204905060018216806139e757607f821691505b6020821081036139fa576139f96139a0565b5b50919050565b7f4552433732313a20617070726f76616c20746f2063757272656e74206f776e6560008201527f7200000000000000000000000000000000000000000000000000000000000000602082015250565b6000613a5c602183612e30565b9150613a6782613a00565b604082019050919050565b60006020820190508181036000830152613a8b81613a4f565b9050919050565b7f4552433732313a20617070726f76652063616c6c6572206973206e6f7420746f60008201527f6b656e206f776e6572206f7220617070726f76656420666f7220616c6c000000602082015250565b6000613aee603d83612e30565b9150613af982613a92565b604082019050919050565b60006020820190508181036000830152613b1d81613ae1565b9050919050565b7f4e487b7100000000000000000000000000000000000000000000000000000000600052601160045260246000fd5b6000613b5e82612ed7565b91507fffffffffffffffffffffffffffffffffffffffffffffffffffffffffffffffff8203613b9057613b8f613b24565b5b600182019050919050565b60008190508160005260206000209050919050565b60006020601f8301049050919050565b600082821b905092915050565b600060088302613bfd7fffffffffffffffffffffffffffffffffffffffffffffffffffffffffffffffff82613bc0565b613c078683613bc0565b95508019841693508086168417925050509392505050565b6000819050919050565b6000613c44613c3f613c3a84612ed7565b613c1f565b612ed7565b9050919050565b6000819050919050565b613c5e83613c29565b613c72613c6a82613c4b565b848454613bcd565b825550505050565b600090565b613c87613c7a565b613c92818484613c55565b505050565b5b81811015613cb657613cab600082613c7f565b600181019050613c98565b5050565b601f821115613cfb57613ccc81613b9b565b613cd584613bb0565b81016020851015613ce4578190505b613cf8613cf085613bb0565b830182613c97565b50505b505050565b600082821c905092915050565b6000613d1e60001984600802613d00565b1980831691505092915050565b6000613d378383613d0d565b9150826002028217905092915050565b613d5082612e25565b67ffffffffffffffff811115613d6957613d68613036565b5b613d7382546139cf565b613d7e828285613cba565b600060209050601f831160018114613db15760008415613d9f578287015190505b613da98582613d2b565b865550613e11565b601f198416613dbf86613b9b565b60005b82811015613de757848901518255600182019150602085019450602081019050613dc2565b86831015613e045784890151613e00601f891682613d0d565b8355505b6001600288020188555050505b505050505050565b600081905092915050565b60008154613e31816139cf565b613e3b8186613e19565b94506001821660008114613e565760018114613e6b57613e9e565b60ff1983168652811515820286019350613e9e565b613e7485613b9b565b60005b83811015613e9657815481890152600182019150602081019050613e77565b838801955050505b50505092915050565b6000613eb38284613e24565b915081905092915050565b60008154613ecb816139cf565b613ed58186612e30565b94506001821660008114613ef05760018114613f0657613f39565b60ff198316865281151560200286019350613f39565b613f0f85613b9b565b60005b83811015613f3157815481890152600182019150602081019050613f12565b808801955050505b50505092915050565b6000606082019050613f576000830186613002565b613f646020830185613002565b8181036040830152613f768184613ebe565b9050949350505050565b7f4552433732313a2063616c6c6572206973206e6f7420746f6b656e206f776e6560008201527f72206f7220617070726f76656400000000000000000000000000000000000000602082015250565b6000613fdc602d83612e30565b9150613fe782613f80565b604082019050919050565b6000602082019050818103600083015261400b81613fcf565b9050919050565b7f596f7520617265206e6f7420617574686f72697a656400000000000000000000600082015250565b6000614048601683612e30565b915061405382614012565b602082019050919050565b600060208201905081810360008301526140778161403b565b9050919050565b7f566964656f20646f6573206e6f74206578697374000000000000000000000000600082015250565b60006140b4601483612e30565b91506140bf8261407e565b602082019050919050565b600060208201905081810360008301526140e3816140a7565b9050919050565b7f4552433732313a20696e76616c696420746f6b656e2049440000000000000000600082015250565b6000614120601883612e30565b915061412b826140ea565b602082019050919050565b6000602082019050818103600083015261414f81614113565b9050919050565b7f4552433732313a2061646472657373207a65726f206973206e6f74206120766160008201527f6c6964206f776e65720000000000000000000000000000000000000000000000602082015250565b60006141b2602983612e30565b91506141bd82614156565b604082019050919050565b600060208201905081810360008301526141e1816141a5565b9050919050565b60006141f382612e25565b6141fd8185613e19565b935061420d818560208601612e41565b80840191505092915050565b600061422582856141e8565b915061423182846141e8565b91508190509392505050565b7f4552433732313a207472616e736665722066726f6d20696e636f72726563742060008201527f6f776e6572000000000000000000000000000000000000000000000000000000602082015250565b6000614299602583612e30565b91506142a48261423d565b604082019050919050565b600060208201905081810360008301526142c88161428c565b9050919050565b7f4552433732313a207472616e7366657220746f20746865207a65726f2061646460008201527f7265737300000000000000000000000000000000000000000000000000000000602082015250565b600061432b602483612e30565b9150614336826142cf565b604082019050919050565b6000602082019050818103600083015261435a8161431e565b9050919050565b7f4552433732313a20617070726f766520746f2063616c6c657200000000000000600082015250565b6000614397601983612e30565b91506143a282614361565b602082019050919050565b600060208201905081810360008301526143c68161438a565b9050919050565b7f4552433732313a207472616e7366657220746f206e6f6e20455243373231526560008201527f63656976657220696d706c656d656e7465720000000000000000000000000000602082015250565b6000614429603283612e30565b9150614434826143cd565b604082019050919050565b600060208201905081810360008301526144588161441c565b9050919050565b600061446a82612ed7565b915061447583612ed7565b925082820390508181111561448d5761448c613b24565b5b92915050565b600061449e82612ed7565b91506144a983612ed7565b92508282019050808211156144c1576144c0613b24565b5b92915050565b600081519050919050565b600082825260208201905092915050565b60006144ee826144c7565b6144f881856144d2565b9350614508818560208601612e41565b61451181612e6b565b840191505092915050565b60006080820190506145316000830187612f6c565b61453e6020830186612f6c565b61454b6040830185613002565b818103606083015261455d81846144e3565b905095945050505050565b60008151905061457781612d96565b92915050565b60006020828403121561459357614592612d60565b5b60006145a184828501614568565b91505092915050565b7f4e487b7100000000000000000000000000000000000000000000000000000000600052601260045260246000fdfea2646970667358221220cbe24209d8d63b2ec30cf4633f90bc98aad20f2cd220534542e3e4c208cc7e7164736f6c63430008110033",
  "linkReferences": {},
  "deployedLinkReferences": {}
}