{
  "_format": "hh-sol-artifact-1",
  "contractName": "DOTT",
  "sourceName": "contracts/dMarket.sol",
  "abi": [
    {
      "inputs": [],
      "stateMutability": "nonpayable",
      "type": "constructor"
    },
    {
      "anonymous": false,
      "inputs": [
        {
          "indexed": true,
          "internalType": "address",
          "name": "owner",
          "type": "address"
        },
        {
          "indexed": true,
          "internalType": "address",
          "name": "approved",
          "type": "address"
        },
        {
          "indexed": true,
          "internalType": "uint256",
          "name": "tokenId",
          "type": "uint256"
        }
      ],
      "name": "Approval",
      "type": "event"
    },
    {
      "anonymous": false,
      "inputs": [
        {
          "indexed": true,
          "internalType": "address",
          "name": "owner",
          "type": "address"
        },
        {
          "indexed": true,
          "internalType": "address",
          "name": "operator",
          "type": "address"
        },
        {
          "indexed": false,
          "internalType": "bool",
          "name": "approved",
          "type": "bool"
        }
      ],
      "name": "ApprovalForAll",
      "type": "event"
    },
    {
      "anonymous": false,
      "inputs": [
        {
          "indexed": false,
          "internalType": "uint256",
          "name": "time",
          "type": "uint256"
        },
        {
          "indexed": true,
          "internalType": "address",
          "name": "from",
          "type": "address"
        },
        {
          "indexed": true,
          "internalType": "address",
          "name": "to",
          "type": "address"
        },
        {
          "indexed": true,
          "internalType": "string",
          "name": "video",
          "type": "string"
        },
        {
          "indexed": false,
          "internalType": "uint256",
          "name": "price",
          "type": "uint256"
        }
      ],
      "name": "Log",
      "type": "event"
    },
    {
      "anonymous": false,
      "inputs": [
        {
          "indexed": true,
          "internalType": "address",
          "name": "from",
          "type": "address"
        },
        {
          "indexed": true,
          "internalType": "address",
          "name": "to",
          "type": "address"
        },
        {
          "indexed": true,
          "internalType": "uint256",
          "name": "tokenId",
          "type": "uint256"
        }
      ],
      "name": "Transfer",
      "type": "event"
    },
    {
      "inputs": [
        {
          "internalType": "string",
          "name": "name",
          "type": "string"
        },
        {
          "internalType": "string",
          "name": "description",
          "type": "string"
        },
        {
          "internalType": "string",
          "name": "link",
          "type": "string"
        },
        {
          "internalType": "uint256",
          "name": "price",
          "type": "uint256"
        }
      ],
      "name": "addVideo",
      "outputs": [],
      "stateMutability": "nonpayable",
      "type": "function"
    },
    {
      "inputs": [
        {
          "internalType": "address",
          "name": "to",
          "type": "address"
        },
        {
          "internalType": "uint256",
          "name": "tokenId",
          "type": "uint256"
        }
      ],
      "name": "approve",
      "outputs": [],
      "stateMutability": "nonpayable",
      "type": "function"
    },
    {
      "inputs": [
        {
          "internalType": "address",
          "name": "owner",
          "type": "address"
        }
      ],
      "name": "balanceOf",
      "outputs": [
        {
          "internalType": "uint256",
          "name": "",
          "type": "uint256"
        }
      ],
      "stateMutability": "view",
      "type": "function"
    },
    {
      "inputs": [
        {
          "internalType": "uint256",
          "name": "id",
          "type": "uint256"
        },
        {
          "internalType": "string",
          "name": "postedVideos",
          "type": "string"
        }
      ],
      "name": "deleteVideo",
      "outputs": [],
      "stateMutability": "nonpayable",
      "type": "function"
    },
    {
      "inputs": [
        {
          "internalType": "uint256",
          "name": "tokenId",
          "type": "uint256"
        }
      ],
      "name": "getApproved",
      "outputs": [
        {
          "internalType": "address",
          "name": "",
          "type": "address"
        }
      ],
      "stateMutability": "view",
      "type": "function"
    },
    {
      "inputs": [
        {
          "internalType": "address",
          "name": "wallet",
          "type": "address"
        }
      ],
      "name": "getUserByWallet",
      "outputs": [
        {
          "components": [
            {
              "internalType": "string",
              "name": "username",
              "type": "string"
            },
            {
              "internalType": "string",
              "name": "bio",
              "type": "string"
            },
            {
              "internalType": "uint256",
              "name": "userId",
              "type": "uint256"
            },
            {
              "internalType": "string",
              "name": "viewedVideos",
              "type": "string"
            },
            {
              "internalType": "string",
              "name": "postedVideos",
              "type": "string"
            }
          ],
          "internalType": "struct DOTT.User",
          "name": "",
          "type": "tuple"
        }
      ],
      "stateMutability": "view",
      "type": "function"
    },
    {
      "inputs": [
        {
          "internalType": "uint256",
          "name": "id",
          "type": "uint256"
        }
      ],
      "name": "getVideoById",
      "outputs": [
        {
          "components": [
            {
              "internalType": "address",
              "name": "owner",
              "type": "address"
            },
            {
              "internalType": "string",
              "name": "name",
              "type": "string"
            },
            {
              "internalType": "string",
              "name": "description",
              "type": "string"
            },
            {
              "internalType": "uint256",
              "name": "viewCount",
              "type": "uint256"
            },
            {
              "internalType": "string",
              "name": "link",
              "type": "string"
            },
            {
              "internalType": "uint256",
              "name": "price",
              "type": "uint256"
            }
          ],
          "internalType": "struct DOTT.Video",
          "name": "",
          "type": "tuple"
        }
      ],
      "stateMutability": "view",
      "type": "function"
    },
    {
      "inputs": [
        {
          "internalType": "uint256",
          "name": "id",
          "type": "uint256"
        }
      ],
      "name": "getVideoOwnerAndPrice",
      "outputs": [
        {
          "internalType": "address",
          "name": "",
          "type": "address"
        },
        {
          "internalType": "uint256",
          "name": "",
          "type": "uint256"
        }
      ],
      "stateMutability": "view",
      "type": "function"
    },
    {
      "inputs": [],
      "name": "increaseUserCounter",
      "outputs": [
        {
          "internalType": "uint256",
          "name": "",
          "type": "uint256"
        }
      ],
      "stateMutability": "nonpayable",
      "type": "function"
    },
    {
      "inputs": [],
      "name": "increaseVideoCounter",
      "outputs": [
        {
          "internalType": "uint256",
          "name": "",
          "type": "uint256"
        }
      ],
      "stateMutability": "nonpayable",
      "type": "function"
    },
    {
      "inputs": [
        {
          "internalType": "address",
          "name": "owner",
          "type": "address"
        },
        {
          "internalType": "address",
          "name": "operator",
          "type": "address"
        }
      ],
      "name": "isApprovedForAll",
      "outputs": [
        {
          "internalType": "bool",
          "name": "",
          "type": "bool"
        }
      ],
      "stateMutability": "view",
      "type": "function"
    },
    {
      "inputs": [],
      "name": "name",
      "outputs": [
        {
          "internalType": "string",
          "name": "",
          "type": "string"
        }
      ],
      "stateMutability": "view",
      "type": "function"
    },
    {
      "inputs": [],
      "name": "owner",
      "outputs": [
        {
          "internalType": "address payable",
          "name": "",
          "type": "address"
        }
      ],
      "stateMutability": "view",
      "type": "function"
    },
    {
      "inputs": [
        {
          "internalType": "uint256",
          "name": "tokenId",
          "type": "uint256"
        }
      ],
      "name": "ownerOf",
      "outputs": [
        {
          "internalType": "address",
          "name": "",
          "type": "address"
        }
      ],
      "stateMutability": "view",
      "type": "function"
    },
    {
      "inputs": [
        {
          "internalType": "string",
          "name": "username",
          "type": "string"
        },
        {
          "internalType": "string",
          "name": "bio",
          "type": "string"
        }
      ],
      "name": "registerUser",
      "outputs": [],
      "stateMutability": "nonpayable",
      "type": "function"
    },
    {
      "inputs": [
        {
          "internalType": "address",
          "name": "from",
          "type": "address"
        },
        {
          "internalType": "address",
          "name": "to",
          "type": "address"
        },
        {
          "internalType": "uint256",
          "name": "tokenId",
          "type": "uint256"
        }
      ],
      "name": "safeTransferFrom",
      "outputs": [],
      "stateMutability": "nonpayable",
      "type": "function"
    },
    {
      "inputs": [
        {
          "internalType": "address",
          "name": "from",
          "type": "address"
        },
        {
          "internalType": "address",
          "name": "to",
          "type": "address"
        },
        {
          "internalType": "uint256",
          "name": "tokenId",
          "type": "uint256"
        },
        {
          "internalType": "bytes",
          "name": "data",
          "type": "bytes"
        }
      ],
      "name": "safeTransferFrom",
      "outputs": [],
      "stateMutability": "nonpayable",
      "type": "function"
    },
    {
      "inputs": [],
      "name": "sayHello",
      "outputs": [
        {
          "internalType": "string",
          "name": "",
          "type": "string"
        }
      ],
      "stateMutability": "pure",
      "type": "function"
    },
    {
      "inputs": [
        {
          "internalType": "address",
          "name": "operator",
          "type": "address"
        },
        {
          "internalType": "bool",
          "name": "approved",
          "type": "bool"
        }
      ],
      "name": "setApprovalForAll",
      "outputs": [],
      "stateMutability": "nonpayable",
      "type": "function"
    },
    {
      "inputs": [
        {
          "internalType": "bytes4",
          "name": "interfaceId",
          "type": "bytes4"
        }
      ],
      "name": "supportsInterface",
      "outputs": [
        {
          "internalType": "bool",
          "name": "",
          "type": "bool"
        }
      ],
      "stateMutability": "view",
      "type": "function"
    },
    {
      "inputs": [],
      "name": "symbol",
      "outputs": [
        {
          "internalType": "string",
          "name": "",
          "type": "string"
        }
      ],
      "stateMutability": "view",
      "type": "function"
    },
    {
      "inputs": [
        {
          "internalType": "uint256",
          "name": "tokenId",
          "type": "uint256"
        }
      ],
      "name": "tokenURI",
      "outputs": [
        {
          "internalType": "string",
          "name": "",
          "type": "string"
        }
      ],
      "stateMutability": "view",
      "type": "function"
    },
    {
      "inputs": [
        {
          "internalType": "address",
          "name": "from",
          "type": "address"
        },
        {
          "internalType": "address",
          "name": "to",
          "type": "address"
        },
        {
          "internalType": "uint256",
          "name": "tokenId",
          "type": "uint256"
        }
      ],
      "name": "transferFrom",
      "outputs": [],
      "stateMutability": "nonpayable",
      "type": "function"
    },
    {
      "inputs": [
        {
          "internalType": "string",
          "name": "username",
          "type": "string"
        },
        {
          "internalType": "string",
          "name": "bio",
          "type": "string"
        }
      ],
      "name": "updateUser",
      "outputs": [],
      "stateMutability": "nonpayable",
      "type": "function"
    },
    {
      "inputs": [
        {
          "internalType": "uint256",
          "name": "id",
          "type": "uint256"
        },
        {
          "internalType": "uint256",
          "name": "price",
          "type": "uint256"
        },
        {
          "internalType": "string",
          "name": "name",
          "type": "string"
        },
        {
          "internalType": "string",
          "name": "description",
          "type": "string"
        }
      ],
      "name": "updateVideo",
      "outputs": [],
      "stateMutability": "nonpayable",
      "type": "function"
    },
    {
      "inputs": [
        {
          "internalType": "string",
          "name": "viewedVideos",
          "type": "string"
        },
        {
          "internalType": "uint256",
          "name": "videoId",
          "type": "uint256"
        }
      ],
      "name": "updateViewedVideos",
      "outputs": [],
      "stateMutability": "nonpayable",
      "type": "function"
    },
    {
      "inputs": [
        {
          "internalType": "address",
          "name": "",
          "type": "address"
        }
      ],
      "name": "userMappings",
      "outputs": [
        {
          "internalType": "string",
          "name": "username",
          "type": "string"
        },
        {
          "internalType": "string",
          "name": "bio",
          "type": "string"
        },
        {
          "internalType": "uint256",
          "name": "userId",
          "type": "uint256"
        },
        {
          "internalType": "string",
          "name": "viewedVideos",
          "type": "string"
        },
        {
          "internalType": "string",
          "name": "postedVideos",
          "type": "string"
        }
      ],
      "stateMutability": "view",
      "type": "function"
    },
    {
      "inputs": [],
      "name": "videoCounter",
      "outputs": [
        {
          "internalType": "uint256",
          "name": "",
          "type": "uint256"
        }
      ],
      "stateMutability": "view",
      "type": "function"
    },
    {
      "inputs": [
        {
          "internalType": "uint256",
          "name": "",
          "type": "uint256"
        }
      ],
      "name": "videoMappings",
      "outputs": [
        {
          "internalType": "address",
          "name": "owner",
          "type": "address"
        },
        {
          "internalType": "string",
          "name": "name",
          "type": "string"
        },
        {
          "internalType": "string",
          "name": "description",
          "type": "string"
        },
        {
          "internalType": "uint256",
          "name": "viewCount",
          "type": "uint256"
        },
        {
          "internalType": "string",
          "name": "link",
          "type": "string"
        },
        {
          "internalType": "uint256",
          "name": "price",
          "type": "uint256"
        }
      ],
      "stateMutability": "view",
      "type": "function"
    }
  ],
  "bytecode": "0x6080604052600060085560006009553480156200001b57600080fd5b506040518060400160405280600481526020017f444f5454000000000000000000000000000000000000000000000000000000008152506040518060400160405280600481526020017f444f54540000000000000000000000000000000000000000000000000000000081525081600090816200009991906200036f565b508060019081620000ab91906200036f565b50505033600760006101000a81548173ffffffffffffffffffffffffffffffffffffffff021916908373ffffffffffffffffffffffffffffffffffffffff16021790555062000456565b600081519050919050565b7f4e487b7100000000000000000000000000000000000000000000000000000000600052604160045260246000fd5b7f4e487b7100000000000000000000000000000000000000000000000000000000600052602260045260246000fd5b600060028204905060018216806200017757607f821691505b6020821081036200018d576200018c6200012f565b5b50919050565b60008190508160005260206000209050919050565b60006020601f8301049050919050565b600082821b905092915050565b600060088302620001f77fffffffffffffffffffffffffffffffffffffffffffffffffffffffffffffffff82620001b8565b620002038683620001b8565b95508019841693508086168417925050509392505050565b6000819050919050565b6000819050919050565b6000620002506200024a62000244846200021b565b62000225565b6200021b565b9050919050565b6000819050919050565b6200026c836200022f565b620002846200027b8262000257565b848454620001c5565b825550505050565b600090565b6200029b6200028c565b620002a881848462000261565b505050565b5b81811015620002d057620002c460008262000291565b600181019050620002ae565b5050565b601f8211156200031f57620002e98162000193565b620002f484620001a8565b8101602085101562000304578190505b6200031c6200031385620001a8565b830182620002ad565b50505b505050565b600082821c905092915050565b6000620003446000198460080262000324565b1980831691505092915050565b60006200035f838362000331565b9150826002028217905092915050565b6200037a82620000f5565b67ffffffffffffffff81111562000396576200039562000100565b5b620003a282546200015e565b620003af828285620002d4565b600060209050601f831160018114620003e75760008415620003d2578287015190505b620003de858262000351565b8655506200044e565b601f198416620003f78662000193565b60005b828110156200042157848901518255600182019150602085019450602081019050620003fa565b868310156200044157848901516200043d601f89168262000331565b8355505b6001600288020188555050505b505050505050565b6143c280620004666000396000f3fe608060405234801561001057600080fd5b50600436106101cf5760003560e01c8063492bb9b511610104578063a22cb465116100a2578063dd4a242511610071578063dd4a24251461056e578063e985e9c51461058a578063eda9576f146105ba578063ef5fb05b146105d6576101cf565b8063a22cb465146104d6578063a9ba4560146104f2578063b88d4fde14610522578063c87b56dd1461053e576101cf565b806370a08231116100de57806370a08231146104395780638373ab5a146104695780638da5cb5b1461049a57806395d89b41146104b8576101cf565b8063492bb9b5146103b75780635a9e416c146103d55780636352211e14610409576101cf565b806318f362011161017157806326d4a0c51161014b57806326d4a0c51461031a578063390d2e99146103365780633b0328be1461036b57806342842e0e1461039b576101cf565b806318f36201146102c65780631d2e4afd146102e257806323b872dd146102fe576101cf565b8063095ea7b3116101ad578063095ea7b31461025257806309c2e0d21461026e57806309e99fbd1461028a5780630debb932146102a8576101cf565b806301ffc9a7146101d457806306fdde0314610204578063081812fc14610222575b600080fd5b6101ee60048036038101906101e99190612c37565b6105f4565b6040516101fb9190612c7f565b60405180910390f35b61020c6106d6565b6040516102199190612d2a565b60405180910390f35b61023c60048036038101906102379190612d82565b610768565b6040516102499190612df0565b60405180910390f35b61026c60048036038101906102679190612e37565b6107ae565b005b61028860048036038101906102839190612fac565b6108c5565b005b6102926109cf565b60405161029f9190613076565b60405180910390f35b6102b06109f1565b6040516102bd9190613076565b60405180910390f35b6102e060048036038101906102db9190613091565b610a13565b005b6102fc60048036038101906102f791906130ed565b610ba0565b005b61031860048036038101906103139190613165565b610c9a565b005b610334600480360381019061032f91906131b8565b610cfa565b005b610350600480360381019061034b9190612d82565b610dcb565b60405161036296959493929190613214565b60405180910390f35b6103856004803603810190610380919061328a565b610fbf565b604051610392919061339b565b60405180910390f35b6103b560048036038101906103b09190613165565b61126a565b005b6103bf61128a565b6040516103cc9190613076565b60405180910390f35b6103ef60048036038101906103ea919061328a565b611290565b6040516104009594939291906133bd565b60405180910390f35b610423600480360381019061041e9190612d82565b6114e6565b6040516104309190612df0565b60405180910390f35b610453600480360381019061044e919061328a565b61156c565b6040516104609190613076565b60405180910390f35b610483600480360381019061047e9190612d82565b611623565b60405161049192919061342c565b60405180910390f35b6104a261167d565b6040516104af9190613476565b60405180910390f35b6104c06116a3565b6040516104cd9190612d2a565b60405180910390f35b6104f060048036038101906104eb91906134bd565b611735565b005b61050c60048036038101906105079190612d82565b61174b565b60405161051991906135a3565b60405180910390f35b61053c60048036038101906105379190613666565b611998565b005b61055860048036038101906105539190612d82565b6119fa565b6040516105659190612d2a565b60405180910390f35b610588600480360381019061058391906130ed565b611b0c565b005b6105a4600480360381019061059f91906136e9565b611bb0565b6040516105b19190612c7f565b60405180910390f35b6105d460048036038101906105cf9190613729565b611c44565b005b6105de611df6565b6040516105eb9190612d2a565b60405180910390f35b60007f80ac58cd000000000000000000000000000000000000000000000000000000007bffffffffffffffffffffffffffffffffffffffffffffffffffffffff1916827bffffffffffffffffffffffffffffffffffffffffffffffffffffffff191614806106bf57507f5b5e139f000000000000000000000000000000000000000000000000000000007bffffffffffffffffffffffffffffffffffffffffffffffffffffffff1916827bffffffffffffffffffffffffffffffffffffffffffffffffffffffff1916145b806106cf57506106ce82611e33565b5b9050919050565b6060600080546106e5906137f7565b80601f0160208091040260200160405190810160405280929190818152602001828054610711906137f7565b801561075e5780601f106107335761010080835404028352916020019161075e565b820191906000526020600020905b81548152906001019060200180831161074157829003601f168201915b5050505050905090565b600061077382611e9d565b6004600083815260200190815260200160002060009054906101000a900473ffffffffffffffffffffffffffffffffffffffff169050919050565b60006107b9826114e6565b90508073ffffffffffffffffffffffffffffffffffffffff168373ffffffffffffffffffffffffffffffffffffffff1603610829576040517f08c379a00000000000000000000000000000000000000000000000000000000081526004016108209061389a565b60405180910390fd5b8073ffffffffffffffffffffffffffffffffffffffff16610848611ee8565b73ffffffffffffffffffffffffffffffffffffffff161480610877575061087681610871611ee8565b611bb0565b5b6108b6576040517f08c379a00000000000000000000000000000000000000000000000000000000081526004016108ad9061392c565b60405180910390fd5b6108c08383611ef0565b505050565b60006108cf6109f1565b90506040518060c001604052803373ffffffffffffffffffffffffffffffffffffffff1681526020018681526020018581526020016000815260200184815260200183815250600b600083815260200190815260200160002060008201518160000160006101000a81548173ffffffffffffffffffffffffffffffffffffffff021916908373ffffffffffffffffffffffffffffffffffffffff16021790555060208201518160010190816109849190613af8565b50604082015181600201908161099a9190613af8565b506060820151816003015560808201518160040190816109ba9190613af8565b5060a082015181600501559050505050505050565b6000600860008154809291906109e490613bf9565b9190505550600854905090565b600060096000815480929190610a0690613bf9565b9190505550600954905090565b81600a60003373ffffffffffffffffffffffffffffffffffffffff1673ffffffffffffffffffffffffffffffffffffffff1681526020019081526020016000206003019081610a629190613af8565b50600b60008281526020019081526020016000206003016000815480929190610a8a90613bf9565b91905055506000600b6000838152602001908152602001600020600101610ab083611fa9565b604051602001610ac1929190613d00565b604051602081830303815290604052905080604051610ae09190613d24565b6040518091039020600b600084815260200190815260200160002060000160009054906101000a900473ffffffffffffffffffffffffffffffffffffffff1673ffffffffffffffffffffffffffffffffffffffff163373ffffffffffffffffffffffffffffffffffffffff167f1e87b5467ff2febfe1ed4c42162ade9d0303a8e6f3ed7e64102c1040431c82ee42600b600088815260200190815260200160002060050154604051610b93929190613d3b565b60405180910390a4505050565b6000610baa6109cf565b90506040518060a0016040528084815260200183815260200182815260200160405180602001604052806000815250815260200160405180602001604052806000815250815250600a60003373ffffffffffffffffffffffffffffffffffffffff1673ffffffffffffffffffffffffffffffffffffffff1681526020019081526020016000206000820151816000019081610c459190613af8565b506020820151816001019081610c5b9190613af8565b50604082015181600201556060820151816003019081610c7b9190613af8565b506080820151816004019081610c919190613af8565b50905050505050565b610cab610ca5611ee8565b82612077565b610cea576040517f08c379a0000000000000000000000000000000000000000000000000000000008152600401610ce190613dd6565b60405180910390fd5b610cf583838361210c565b505050565b80600a60003373ffffffffffffffffffffffffffffffffffffffff1673ffffffffffffffffffffffffffffffffffffffff1681526020019081526020016000206004019081610d499190613af8565b50600b6000838152602001908152602001600020600080820160006101000a81549073ffffffffffffffffffffffffffffffffffffffff0219169055600182016000610d959190612af3565b600282016000610da59190612af3565b6003820160009055600482016000610dbd9190612af3565b600582016000905550505050565b600b6020528060005260406000206000915090508060000160009054906101000a900473ffffffffffffffffffffffffffffffffffffffff1690806001018054610e14906137f7565b80601f0160208091040260200160405190810160405280929190818152602001828054610e40906137f7565b8015610e8d5780601f10610e6257610100808354040283529160200191610e8d565b820191906000526020600020905b815481529060010190602001808311610e7057829003601f168201915b505050505090806002018054610ea2906137f7565b80601f0160208091040260200160405190810160405280929190818152602001828054610ece906137f7565b8015610f1b5780601f10610ef057610100808354040283529160200191610f1b565b820191906000526020600020905b815481529060010190602001808311610efe57829003601f168201915b505050505090806003015490806004018054610f36906137f7565b80601f0160208091040260200160405190810160405280929190818152602001828054610f62906137f7565b8015610faf5780601f10610f8457610100808354040283529160200191610faf565b820191906000526020600020905b815481529060010190602001808311610f9257829003601f168201915b5050505050908060050154905086565b610fc7612b33565b600a60008373ffffffffffffffffffffffffffffffffffffffff1673ffffffffffffffffffffffffffffffffffffffff1681526020019081526020016000206040518060a0016040529081600082018054611021906137f7565b80601f016020809104026020016040519081016040528092919081815260200182805461104d906137f7565b801561109a5780601f1061106f5761010080835404028352916020019161109a565b820191906000526020600020905b81548152906001019060200180831161107d57829003601f168201915b505050505081526020016001820180546110b3906137f7565b80601f01602080910402602001604051908101604052809291908181526020018280546110df906137f7565b801561112c5780601f106111015761010080835404028352916020019161112c565b820191906000526020600020905b81548152906001019060200180831161110f57829003601f168201915b505050505081526020016002820154815260200160038201805461114f906137f7565b80601f016020809104026020016040519081016040528092919081815260200182805461117b906137f7565b80156111c85780601f1061119d576101008083540402835291602001916111c8565b820191906000526020600020905b8154815290600101906020018083116111ab57829003601f168201915b505050505081526020016004820180546111e1906137f7565b80601f016020809104026020016040519081016040528092919081815260200182805461120d906137f7565b801561125a5780601f1061122f5761010080835404028352916020019161125a565b820191906000526020600020905b81548152906001019060200180831161123d57829003601f168201915b5050505050815250509050919050565b61128583838360405180602001604052806000815250611998565b505050565b60095481565b600a6020528060005260406000206000915090508060000180546112b3906137f7565b80601f01602080910402602001604051908101604052809291908181526020018280546112df906137f7565b801561132c5780601f106113015761010080835404028352916020019161132c565b820191906000526020600020905b81548152906001019060200180831161130f57829003601f168201915b505050505090806001018054611341906137f7565b80601f016020809104026020016040519081016040528092919081815260200182805461136d906137f7565b80156113ba5780601f1061138f576101008083540402835291602001916113ba565b820191906000526020600020905b81548152906001019060200180831161139d57829003601f168201915b5050505050908060020154908060030180546113d5906137f7565b80601f0160208091040260200160405190810160405280929190818152602001828054611401906137f7565b801561144e5780601f106114235761010080835404028352916020019161144e565b820191906000526020600020905b81548152906001019060200180831161143157829003601f168201915b505050505090806004018054611463906137f7565b80601f016020809104026020016040519081016040528092919081815260200182805461148f906137f7565b80156114dc5780601f106114b1576101008083540402835291602001916114dc565b820191906000526020600020905b8154815290600101906020018083116114bf57829003601f168201915b5050505050905085565b6000806114f283612405565b9050600073ffffffffffffffffffffffffffffffffffffffff168173ffffffffffffffffffffffffffffffffffffffff1603611563576040517f08c379a000000000000000000000000000000000000000000000000000000000815260040161155a90613e42565b60405180910390fd5b80915050919050565b60008073ffffffffffffffffffffffffffffffffffffffff168273ffffffffffffffffffffffffffffffffffffffff16036115dc576040517f08c379a00000000000000000000000000000000000000000000000000000000081526004016115d390613ed4565b60405180910390fd5b600360008373ffffffffffffffffffffffffffffffffffffffff1673ffffffffffffffffffffffffffffffffffffffff168152602001908152602001600020549050919050565b600080600b600084815260200190815260200160002060000160009054906101000a900473ffffffffffffffffffffffffffffffffffffffff16600b60008581526020019081526020016000206005015491509150915091565b600760009054906101000a900473ffffffffffffffffffffffffffffffffffffffff1681565b6060600180546116b2906137f7565b80601f01602080910402602001604051908101604052809291908181526020018280546116de906137f7565b801561172b5780601f106117005761010080835404028352916020019161172b565b820191906000526020600020905b81548152906001019060200180831161170e57829003601f168201915b5050505050905090565b611747611740611ee8565b8383612442565b5050565b611753612b62565b600b60008381526020019081526020016000206040518060c00160405290816000820160009054906101000a900473ffffffffffffffffffffffffffffffffffffffff1673ffffffffffffffffffffffffffffffffffffffff1673ffffffffffffffffffffffffffffffffffffffff1681526020016001820180546117d7906137f7565b80601f0160208091040260200160405190810160405280929190818152602001828054611803906137f7565b80156118505780601f1061182557610100808354040283529160200191611850565b820191906000526020600020905b81548152906001019060200180831161183357829003601f168201915b50505050508152602001600282018054611869906137f7565b80601f0160208091040260200160405190810160405280929190818152602001828054611895906137f7565b80156118e25780601f106118b7576101008083540402835291602001916118e2565b820191906000526020600020905b8154815290600101906020018083116118c557829003601f168201915b5050505050815260200160038201548152602001600482018054611905906137f7565b80601f0160208091040260200160405190810160405280929190818152602001828054611931906137f7565b801561197e5780601f106119535761010080835404028352916020019161197e565b820191906000526020600020905b81548152906001019060200180831161196157829003601f168201915b505050505081526020016005820154815250509050919050565b6119a96119a3611ee8565b83612077565b6119e8576040517f08c379a00000000000000000000000000000000000000000000000000000000081526004016119df90613dd6565b60405180910390fd5b6119f4848484846125ae565b50505050565b6060611a0582611e9d565b6000600660008481526020019081526020016000208054611a25906137f7565b80601f0160208091040260200160405190810160405280929190818152602001828054611a51906137f7565b8015611a9e5780601f10611a7357610100808354040283529160200191611a9e565b820191906000526020600020905b815481529060010190602001808311611a8157829003601f168201915b505050505090506000611aaf61260a565b90506000815103611ac4578192505050611b07565b600082511115611af9578082604051602001611ae1929190613ef4565b60405160208183030381529060405292505050611b07565b611b0284612621565b925050505b919050565b80600a60003373ffffffffffffffffffffffffffffffffffffffff1673ffffffffffffffffffffffffffffffffffffffff1681526020019081526020016000206001019081611b5b9190613af8565b5081600a60003373ffffffffffffffffffffffffffffffffffffffff1673ffffffffffffffffffffffffffffffffffffffff1681526020019081526020016000206000019081611bab9190613af8565b505050565b6000600560008473ffffffffffffffffffffffffffffffffffffffff1673ffffffffffffffffffffffffffffffffffffffff16815260200190815260200160002060008373ffffffffffffffffffffffffffffffffffffffff1673ffffffffffffffffffffffffffffffffffffffff16815260200190815260200160002060009054906101000a900460ff16905092915050565b3373ffffffffffffffffffffffffffffffffffffffff16600b600086815260200190815260200160002060000160009054906101000a900473ffffffffffffffffffffffffffffffffffffffff1673ffffffffffffffffffffffffffffffffffffffff1614611ce8576040517f08c379a0000000000000000000000000000000000000000000000000000000008152600401611cdf90613f64565b60405180910390fd5b600073ffffffffffffffffffffffffffffffffffffffff16600b600086815260200190815260200160002060000160009054906101000a900473ffffffffffffffffffffffffffffffffffffffff1673ffffffffffffffffffffffffffffffffffffffff1603611d8d576040517f08c379a0000000000000000000000000000000000000000000000000000000008152600401611d8490613fd0565b60405180910390fd5b81600b60008681526020019081526020016000206001019081611db09190613af8565b5080600b60008681526020019081526020016000206002019081611dd49190613af8565b5082600b60008681526020019081526020016000206005018190555050505050565b60606040518060400160405280600b81526020017f48656c6c6f207468657265000000000000000000000000000000000000000000815250905090565b60007f01ffc9a7000000000000000000000000000000000000000000000000000000007bffffffffffffffffffffffffffffffffffffffffffffffffffffffff1916827bffffffffffffffffffffffffffffffffffffffffffffffffffffffff1916149050919050565b611ea681612689565b611ee5576040517f08c379a0000000000000000000000000000000000000000000000000000000008152600401611edc90613e42565b60405180910390fd5b50565b600033905090565b816004600083815260200190815260200160002060006101000a81548173ffffffffffffffffffffffffffffffffffffffff021916908373ffffffffffffffffffffffffffffffffffffffff160217905550808273ffffffffffffffffffffffffffffffffffffffff16611f63836114e6565b73ffffffffffffffffffffffffffffffffffffffff167f8c5be1e5ebec7d5bd14f71427d1e84f3dd0314c0f7b2291e5b200ac8c7c3b92560405160405180910390a45050565b606060006001611fb8846126ca565b01905060008167ffffffffffffffff811115611fd757611fd6612e81565b5b6040519080825280601f01601f1916602001820160405280156120095781602001600182028036833780820191505090505b509050600082602001820190505b60011561206c578080600190039150507f3031323334353637383961626364656600000000000000000000000000000000600a86061a8153600a85816120605761205f613ff0565b5b04945060008503612017575b819350505050919050565b600080612083836114e6565b90508073ffffffffffffffffffffffffffffffffffffffff168473ffffffffffffffffffffffffffffffffffffffff1614806120c557506120c48185611bb0565b5b8061210357508373ffffffffffffffffffffffffffffffffffffffff166120eb84610768565b73ffffffffffffffffffffffffffffffffffffffff16145b91505092915050565b8273ffffffffffffffffffffffffffffffffffffffff1661212c826114e6565b73ffffffffffffffffffffffffffffffffffffffff1614612182576040517f08c379a000000000000000000000000000000000000000000000000000000000815260040161217990614091565b60405180910390fd5b600073ffffffffffffffffffffffffffffffffffffffff168273ffffffffffffffffffffffffffffffffffffffff16036121f1576040517f08c379a00000000000000000000000000000000000000000000000000000000081526004016121e890614123565b60405180910390fd5b6121fe838383600161281d565b8273ffffffffffffffffffffffffffffffffffffffff1661221e826114e6565b73ffffffffffffffffffffffffffffffffffffffff1614612274576040517f08c379a000000000000000000000000000000000000000000000000000000000815260040161226b90614091565b60405180910390fd5b6004600082815260200190815260200160002060006101000a81549073ffffffffffffffffffffffffffffffffffffffff02191690556001600360008573ffffffffffffffffffffffffffffffffffffffff1673ffffffffffffffffffffffffffffffffffffffff168152602001908152602001600020600082825403925050819055506001600360008473ffffffffffffffffffffffffffffffffffffffff1673ffffffffffffffffffffffffffffffffffffffff16815260200190815260200160002060008282540192505081905550816002600083815260200190815260200160002060006101000a81548173ffffffffffffffffffffffffffffffffffffffff021916908373ffffffffffffffffffffffffffffffffffffffff160217905550808273ffffffffffffffffffffffffffffffffffffffff168473ffffffffffffffffffffffffffffffffffffffff167fddf252ad1be2c89b69c2b068fc378daa952ba7f163c4a11628f55a4df523b3ef60405160405180910390a46124008383836001612943565b505050565b60006002600083815260200190815260200160002060009054906101000a900473ffffffffffffffffffffffffffffffffffffffff169050919050565b8173ffffffffffffffffffffffffffffffffffffffff168373ffffffffffffffffffffffffffffffffffffffff16036124b0576040517f08c379a00000000000000000000000000000000000000000000000000000000081526004016124a79061418f565b60405180910390fd5b80600560008573ffffffffffffffffffffffffffffffffffffffff1673ffffffffffffffffffffffffffffffffffffffff16815260200190815260200160002060008473ffffffffffffffffffffffffffffffffffffffff1673ffffffffffffffffffffffffffffffffffffffff16815260200190815260200160002060006101000a81548160ff0219169083151502179055508173ffffffffffffffffffffffffffffffffffffffff168373ffffffffffffffffffffffffffffffffffffffff167f17307eab39ab6107e8899845ad3d59bd9653f200f220920489ca2b5937696c31836040516125a19190612c7f565b60405180910390a3505050565b6125b984848461210c565b6125c584848484612949565b612604576040517f08c379a00000000000000000000000000000000000000000000000000000000081526004016125fb90614221565b60405180910390fd5b50505050565b606060405180602001604052806000815250905090565b606061262c82611e9d565b600061263661260a565b905060008151116126565760405180602001604052806000815250612681565b8061266084611fa9565b604051602001612671929190613ef4565b6040516020818303038152906040525b915050919050565b60008073ffffffffffffffffffffffffffffffffffffffff166126ab83612405565b73ffffffffffffffffffffffffffffffffffffffff1614159050919050565b600080600090507a184f03e93ff9f4daa797ed6e38ed64bf6a1f0100000000000000008310612728577a184f03e93ff9f4daa797ed6e38ed64bf6a1f010000000000000000838161271e5761271d613ff0565b5b0492506040810190505b6d04ee2d6d415b85acef81000000008310612765576d04ee2d6d415b85acef8100000000838161275b5761275a613ff0565b5b0492506020810190505b662386f26fc10000831061279457662386f26fc10000838161278a57612789613ff0565b5b0492506010810190505b6305f5e10083106127bd576305f5e10083816127b3576127b2613ff0565b5b0492506008810190505b61271083106127e25761271083816127d8576127d7613ff0565b5b0492506004810190505b6064831061280557606483816127fb576127fa613ff0565b5b0492506002810190505b600a8310612814576001810190505b80915050919050565b600181111561293d57600073ffffffffffffffffffffffffffffffffffffffff168473ffffffffffffffffffffffffffffffffffffffff16146128b15780600360008673ffffffffffffffffffffffffffffffffffffffff1673ffffffffffffffffffffffffffffffffffffffff16815260200190815260200160002060008282546128a99190614241565b925050819055505b600073ffffffffffffffffffffffffffffffffffffffff168373ffffffffffffffffffffffffffffffffffffffff161461293c5780600360008573ffffffffffffffffffffffffffffffffffffffff1673ffffffffffffffffffffffffffffffffffffffff16815260200190815260200160002060008282546129349190614275565b925050819055505b5b50505050565b50505050565b600061296a8473ffffffffffffffffffffffffffffffffffffffff16612ad0565b15612ac3578373ffffffffffffffffffffffffffffffffffffffff1663150b7a02612993611ee8565b8786866040518563ffffffff1660e01b81526004016129b594939291906142fe565b6020604051808303816000875af19250505080156129f157506040513d601f19601f820116820180604052508101906129ee919061435f565b60015b612a73573d8060008114612a21576040519150601f19603f3d011682016040523d82523d6000602084013e612a26565b606091505b506000815103612a6b576040517f08c379a0000000000000000000000000000000000000000000000000000000008152600401612a6290614221565b60405180910390fd5b805181602001fd5b63150b7a0260e01b7bffffffffffffffffffffffffffffffffffffffffffffffffffffffff1916817bffffffffffffffffffffffffffffffffffffffffffffffffffffffff191614915050612ac8565b600190505b949350505050565b6000808273ffffffffffffffffffffffffffffffffffffffff163b119050919050565b508054612aff906137f7565b6000825580601f10612b115750612b30565b601f016020900490600052602060002090810190612b2f9190612bae565b5b50565b6040518060a0016040528060608152602001606081526020016000815260200160608152602001606081525090565b6040518060c00160405280600073ffffffffffffffffffffffffffffffffffffffff16815260200160608152602001606081526020016000815260200160608152602001600081525090565b5b80821115612bc7576000816000905550600101612baf565b5090565b6000604051905090565b600080fd5b600080fd5b60007fffffffff0000000000000000000000000000000000000000000000000000000082169050919050565b612c1481612bdf565b8114612c1f57600080fd5b50565b600081359050612c3181612c0b565b92915050565b600060208284031215612c4d57612c4c612bd5565b5b6000612c5b84828501612c22565b91505092915050565b60008115159050919050565b612c7981612c64565b82525050565b6000602082019050612c946000830184612c70565b92915050565b600081519050919050565b600082825260208201905092915050565b60005b83811015612cd4578082015181840152602081019050612cb9565b60008484015250505050565b6000601f19601f8301169050919050565b6000612cfc82612c9a565b612d068185612ca5565b9350612d16818560208601612cb6565b612d1f81612ce0565b840191505092915050565b60006020820190508181036000830152612d448184612cf1565b905092915050565b6000819050919050565b612d5f81612d4c565b8114612d6a57600080fd5b50565b600081359050612d7c81612d56565b92915050565b600060208284031215612d9857612d97612bd5565b5b6000612da684828501612d6d565b91505092915050565b600073ffffffffffffffffffffffffffffffffffffffff82169050919050565b6000612dda82612daf565b9050919050565b612dea81612dcf565b82525050565b6000602082019050612e056000830184612de1565b92915050565b612e1481612dcf565b8114612e1f57600080fd5b50565b600081359050612e3181612e0b565b92915050565b60008060408385031215612e4e57612e4d612bd5565b5b6000612e5c85828601612e22565b9250506020612e6d85828601612d6d565b9150509250929050565b600080fd5b600080fd5b7f4e487b7100000000000000000000000000000000000000000000000000000000600052604160045260246000fd5b612eb982612ce0565b810181811067ffffffffffffffff82111715612ed857612ed7612e81565b5b80604052505050565b6000612eeb612bcb565b9050612ef78282612eb0565b919050565b600067ffffffffffffffff821115612f1757612f16612e81565b5b612f2082612ce0565b9050602081019050919050565b82818337600083830152505050565b6000612f4f612f4a84612efc565b612ee1565b905082815260208101848484011115612f6b57612f6a612e7c565b5b612f76848285612f2d565b509392505050565b600082601f830112612f9357612f92612e77565b5b8135612fa3848260208601612f3c565b91505092915050565b60008060008060808587031215612fc657612fc5612bd5565b5b600085013567ffffffffffffffff811115612fe457612fe3612bda565b5b612ff087828801612f7e565b945050602085013567ffffffffffffffff81111561301157613010612bda565b5b61301d87828801612f7e565b935050604085013567ffffffffffffffff81111561303e5761303d612bda565b5b61304a87828801612f7e565b925050606061305b87828801612d6d565b91505092959194509250565b61307081612d4c565b82525050565b600060208201905061308b6000830184613067565b92915050565b600080604083850312156130a8576130a7612bd5565b5b600083013567ffffffffffffffff8111156130c6576130c5612bda565b5b6130d285828601612f7e565b92505060206130e385828601612d6d565b9150509250929050565b6000806040838503121561310457613103612bd5565b5b600083013567ffffffffffffffff81111561312257613121612bda565b5b61312e85828601612f7e565b925050602083013567ffffffffffffffff81111561314f5761314e612bda565b5b61315b85828601612f7e565b9150509250929050565b60008060006060848603121561317e5761317d612bd5565b5b600061318c86828701612e22565b935050602061319d86828701612e22565b92505060406131ae86828701612d6d565b9150509250925092565b600080604083850312156131cf576131ce612bd5565b5b60006131dd85828601612d6d565b925050602083013567ffffffffffffffff8111156131fe576131fd612bda565b5b61320a85828601612f7e565b9150509250929050565b600060c0820190506132296000830189612de1565b818103602083015261323b8188612cf1565b9050818103604083015261324f8187612cf1565b905061325e6060830186613067565b81810360808301526132708185612cf1565b905061327f60a0830184613067565b979650505050505050565b6000602082840312156132a05761329f612bd5565b5b60006132ae84828501612e22565b91505092915050565b600082825260208201905092915050565b60006132d382612c9a565b6132dd81856132b7565b93506132ed818560208601612cb6565b6132f681612ce0565b840191505092915050565b61330a81612d4c565b82525050565b600060a083016000830151848203600086015261332d82826132c8565b9150506020830151848203602086015261334782826132c8565b915050604083015161335c6040860182613301565b506060830151848203606086015261337482826132c8565b9150506080830151848203608086015261338e82826132c8565b9150508091505092915050565b600060208201905081810360008301526133b58184613310565b905092915050565b600060a08201905081810360008301526133d78188612cf1565b905081810360208301526133eb8187612cf1565b90506133fa6040830186613067565b818103606083015261340c8185612cf1565b905081810360808301526134208184612cf1565b90509695505050505050565b60006040820190506134416000830185612de1565b61344e6020830184613067565b9392505050565b600061346082612daf565b9050919050565b61347081613455565b82525050565b600060208201905061348b6000830184613467565b92915050565b61349a81612c64565b81146134a557600080fd5b50565b6000813590506134b781613491565b92915050565b600080604083850312156134d4576134d3612bd5565b5b60006134e285828601612e22565b92505060206134f3858286016134a8565b9150509250929050565b61350681612dcf565b82525050565b600060c08301600083015161352460008601826134fd565b506020830151848203602086015261353c82826132c8565b9150506040830151848203604086015261355682826132c8565b915050606083015161356b6060860182613301565b506080830151848203608086015261358382826132c8565b91505060a083015161359860a0860182613301565b508091505092915050565b600060208201905081810360008301526135bd818461350c565b905092915050565b600067ffffffffffffffff8211156135e0576135df612e81565b5b6135e982612ce0565b9050602081019050919050565b6000613609613604846135c5565b612ee1565b90508281526020810184848401111561362557613624612e7c565b5b613630848285612f2d565b509392505050565b600082601f83011261364d5761364c612e77565b5b813561365d8482602086016135f6565b91505092915050565b600080600080608085870312156136805761367f612bd5565b5b600061368e87828801612e22565b945050602061369f87828801612e22565b93505060406136b087828801612d6d565b925050606085013567ffffffffffffffff8111156136d1576136d0612bda565b5b6136dd87828801613638565b91505092959194509250565b60008060408385031215613700576136ff612bd5565b5b600061370e85828601612e22565b925050602061371f85828601612e22565b9150509250929050565b6000806000806080858703121561374357613742612bd5565b5b600061375187828801612d6d565b945050602061376287828801612d6d565b935050604085013567ffffffffffffffff81111561378357613782612bda565b5b61378f87828801612f7e565b925050606085013567ffffffffffffffff8111156137b0576137af612bda565b5b6137bc87828801612f7e565b91505092959194509250565b7f4e487b7100000000000000000000000000000000000000000000000000000000600052602260045260246000fd5b6000600282049050600182168061380f57607f821691505b602082108103613822576138216137c8565b5b50919050565b7f4552433732313a20617070726f76616c20746f2063757272656e74206f776e6560008201527f7200000000000000000000000000000000000000000000000000000000000000602082015250565b6000613884602183612ca5565b915061388f82613828565b604082019050919050565b600060208201905081810360008301526138b381613877565b9050919050565b7f4552433732313a20617070726f76652063616c6c6572206973206e6f7420746f60008201527f6b656e206f776e6572206f7220617070726f76656420666f7220616c6c000000602082015250565b6000613916603d83612ca5565b9150613921826138ba565b604082019050919050565b6000602082019050818103600083015261394581613909565b9050919050565b60008190508160005260206000209050919050565b60006020601f8301049050919050565b600082821b905092915050565b6000600883026139ae7fffffffffffffffffffffffffffffffffffffffffffffffffffffffffffffffff82613971565b6139b88683613971565b95508019841693508086168417925050509392505050565b6000819050919050565b60006139f56139f06139eb84612d4c565b6139d0565b612d4c565b9050919050565b6000819050919050565b613a0f836139da565b613a23613a1b826139fc565b84845461397e565b825550505050565b600090565b613a38613a2b565b613a43818484613a06565b505050565b5b81811015613a6757613a5c600082613a30565b600181019050613a49565b5050565b601f821115613aac57613a7d8161394c565b613a8684613961565b81016020851015613a95578190505b613aa9613aa185613961565b830182613a48565b50505b505050565b600082821c905092915050565b6000613acf60001984600802613ab1565b1980831691505092915050565b6000613ae88383613abe565b9150826002028217905092915050565b613b0182612c9a565b67ffffffffffffffff811115613b1a57613b19612e81565b5b613b2482546137f7565b613b2f828285613a6b565b600060209050601f831160018114613b625760008415613b50578287015190505b613b5a8582613adc565b865550613bc2565b601f198416613b708661394c565b60005b82811015613b9857848901518255600182019150602085019450602081019050613b73565b86831015613bb55784890151613bb1601f891682613abe565b8355505b6001600288020188555050505b505050505050565b7f4e487b7100000000000000000000000000000000000000000000000000000000600052601160045260246000fd5b6000613c0482612d4c565b91507fffffffffffffffffffffffffffffffffffffffffffffffffffffffffffffffff8203613c3657613c35613bca565b5b600182019050919050565b600081905092915050565b60008154613c59816137f7565b613c638186613c41565b94506001821660008114613c7e5760018114613c9357613cc6565b60ff1983168652811515820286019350613cc6565b613c9c8561394c565b60005b83811015613cbe57815481890152600182019150602081019050613c9f565b838801955050505b50505092915050565b6000613cda82612c9a565b613ce48185613c41565b9350613cf4818560208601612cb6565b80840191505092915050565b6000613d0c8285613c4c565b9150613d188284613ccf565b91508190509392505050565b6000613d308284613ccf565b915081905092915050565b6000604082019050613d506000830185613067565b613d5d6020830184613067565b9392505050565b7f4552433732313a2063616c6c6572206973206e6f7420746f6b656e206f776e6560008201527f72206f7220617070726f76656400000000000000000000000000000000000000602082015250565b6000613dc0602d83612ca5565b9150613dcb82613d64565b604082019050919050565b60006020820190508181036000830152613def81613db3565b9050919050565b7f4552433732313a20696e76616c696420746f6b656e2049440000000000000000600082015250565b6000613e2c601883612ca5565b9150613e3782613df6565b602082019050919050565b60006020820190508181036000830152613e5b81613e1f565b9050919050565b7f4552433732313a2061646472657373207a65726f206973206e6f74206120766160008201527f6c6964206f776e65720000000000000000000000000000000000000000000000602082015250565b6000613ebe602983612ca5565b9150613ec982613e62565b604082019050919050565b60006020820190508181036000830152613eed81613eb1565b9050919050565b6000613f008285613ccf565b9150613f0c8284613ccf565b91508190509392505050565b7f596f7520617265206e6f7420617574686f72697a656400000000000000000000600082015250565b6000613f4e601683612ca5565b9150613f5982613f18565b602082019050919050565b60006020820190508181036000830152613f7d81613f41565b9050919050565b7f566964656f20646f6573206e6f74206578697374000000000000000000000000600082015250565b6000613fba601483612ca5565b9150613fc582613f84565b602082019050919050565b60006020820190508181036000830152613fe981613fad565b9050919050565b7f4e487b7100000000000000000000000000000000000000000000000000000000600052601260045260246000fd5b7f4552433732313a207472616e736665722066726f6d20696e636f72726563742060008201527f6f776e6572000000000000000000000000000000000000000000000000000000602082015250565b600061407b602583612ca5565b91506140868261401f565b604082019050919050565b600060208201905081810360008301526140aa8161406e565b9050919050565b7f4552433732313a207472616e7366657220746f20746865207a65726f2061646460008201527f7265737300000000000000000000000000000000000000000000000000000000602082015250565b600061410d602483612ca5565b9150614118826140b1565b604082019050919050565b6000602082019050818103600083015261413c81614100565b9050919050565b7f4552433732313a20617070726f766520746f2063616c6c657200000000000000600082015250565b6000614179601983612ca5565b915061418482614143565b602082019050919050565b600060208201905081810360008301526141a88161416c565b9050919050565b7f4552433732313a207472616e7366657220746f206e6f6e20455243373231526560008201527f63656976657220696d706c656d656e7465720000000000000000000000000000602082015250565b600061420b603283612ca5565b9150614216826141af565b604082019050919050565b6000602082019050818103600083015261423a816141fe565b9050919050565b600061424c82612d4c565b915061425783612d4c565b925082820390508181111561426f5761426e613bca565b5b92915050565b600061428082612d4c565b915061428b83612d4c565b92508282019050808211156142a3576142a2613bca565b5b92915050565b600081519050919050565b600082825260208201905092915050565b60006142d0826142a9565b6142da81856142b4565b93506142ea818560208601612cb6565b6142f381612ce0565b840191505092915050565b60006080820190506143136000830187612de1565b6143206020830186612de1565b61432d6040830185613067565b818103606083015261433f81846142c5565b905095945050505050565b60008151905061435981612c0b565b92915050565b60006020828403121561437557614374612bd5565b5b60006143838482850161434a565b9150509291505056fea2646970667358221220203e24f27633d261eff8ce5db3a028ab89209b28737fe5047b15f11a826889a664736f6c63430008110033",
  "linkReferences": {},
  "deployedLinkReferences": {}
}