{
  "_format": "hh-sol-artifact-1",
  "contractName": "DOTT",
  "sourceName": "contracts/dMarket.sol",
  "abi": [
    {
      "inputs": [],
      "stateMutability": "nonpayable",
      "type": "constructor"
    },
    {
      "anonymous": false,
      "inputs": [
        {
          "indexed": true,
          "internalType": "address",
          "name": "owner",
          "type": "address"
        },
        {
          "indexed": true,
          "internalType": "address",
          "name": "approved",
          "type": "address"
        },
        {
          "indexed": true,
          "internalType": "uint256",
          "name": "tokenId",
          "type": "uint256"
        }
      ],
      "name": "Approval",
      "type": "event"
    },
    {
      "anonymous": false,
      "inputs": [
        {
          "indexed": true,
          "internalType": "address",
          "name": "owner",
          "type": "address"
        },
        {
          "indexed": true,
          "internalType": "address",
          "name": "operator",
          "type": "address"
        },
        {
          "indexed": false,
          "internalType": "bool",
          "name": "approved",
          "type": "bool"
        }
      ],
      "name": "ApprovalForAll",
      "type": "event"
    },
    {
      "anonymous": false,
      "inputs": [
        {
          "indexed": false,
          "internalType": "uint256",
          "name": "time",
          "type": "uint256"
        },
        {
          "indexed": true,
          "internalType": "address",
          "name": "from",
          "type": "address"
        },
        {
          "indexed": true,
          "internalType": "address",
          "name": "to",
          "type": "address"
        },
        {
          "indexed": true,
          "internalType": "string",
          "name": "name",
          "type": "string"
        },
        {
          "indexed": false,
          "internalType": "uint256",
          "name": "id",
          "type": "uint256"
        },
        {
          "indexed": false,
          "internalType": "string",
          "name": "price",
          "type": "string"
        }
      ],
      "name": "Log",
      "type": "event"
    },
    {
      "anonymous": false,
      "inputs": [
        {
          "indexed": true,
          "internalType": "address",
          "name": "from",
          "type": "address"
        },
        {
          "indexed": true,
          "internalType": "address",
          "name": "to",
          "type": "address"
        },
        {
          "indexed": true,
          "internalType": "uint256",
          "name": "tokenId",
          "type": "uint256"
        }
      ],
      "name": "Transfer",
      "type": "event"
    },
    {
      "inputs": [
        {
          "internalType": "string",
          "name": "name",
          "type": "string"
        },
        {
          "internalType": "string",
          "name": "description",
          "type": "string"
        },
        {
          "internalType": "string",
          "name": "link",
          "type": "string"
        },
        {
          "internalType": "string",
          "name": "price",
          "type": "string"
        }
      ],
      "name": "addVideo",
      "outputs": [],
      "stateMutability": "nonpayable",
      "type": "function"
    },
    {
      "inputs": [
        {
          "internalType": "address",
          "name": "to",
          "type": "address"
        },
        {
          "internalType": "uint256",
          "name": "tokenId",
          "type": "uint256"
        }
      ],
      "name": "approve",
      "outputs": [],
      "stateMutability": "nonpayable",
      "type": "function"
    },
    {
      "inputs": [
        {
          "internalType": "address",
          "name": "owner",
          "type": "address"
        }
      ],
      "name": "balanceOf",
      "outputs": [
        {
          "internalType": "uint256",
          "name": "",
          "type": "uint256"
        }
      ],
      "stateMutability": "view",
      "type": "function"
    },
    {
      "inputs": [
        {
          "internalType": "uint256",
          "name": "id",
          "type": "uint256"
        },
        {
          "internalType": "string",
          "name": "postedVideos",
          "type": "string"
        }
      ],
      "name": "deleteVideo",
      "outputs": [],
      "stateMutability": "nonpayable",
      "type": "function"
    },
    {
      "inputs": [
        {
          "internalType": "uint256",
          "name": "tokenId",
          "type": "uint256"
        }
      ],
      "name": "getApproved",
      "outputs": [
        {
          "internalType": "address",
          "name": "",
          "type": "address"
        }
      ],
      "stateMutability": "view",
      "type": "function"
    },
    {
      "inputs": [
        {
          "internalType": "address",
          "name": "wallet",
          "type": "address"
        }
      ],
      "name": "getUserByWallet",
      "outputs": [
        {
          "components": [
            {
              "internalType": "string",
              "name": "username",
              "type": "string"
            },
            {
              "internalType": "string",
              "name": "bio",
              "type": "string"
            },
            {
              "internalType": "uint256",
              "name": "userId",
              "type": "uint256"
            },
            {
              "internalType": "string",
              "name": "viewedVideos",
              "type": "string"
            },
            {
              "internalType": "string",
              "name": "postedVideos",
              "type": "string"
            }
          ],
          "internalType": "struct DOTT.User",
          "name": "",
          "type": "tuple"
        }
      ],
      "stateMutability": "view",
      "type": "function"
    },
    {
      "inputs": [
        {
          "internalType": "uint256",
          "name": "id",
          "type": "uint256"
        }
      ],
      "name": "getVideoById",
      "outputs": [
        {
          "components": [
            {
              "internalType": "address",
              "name": "owner",
              "type": "address"
            },
            {
              "internalType": "string",
              "name": "name",
              "type": "string"
            },
            {
              "internalType": "string",
              "name": "description",
              "type": "string"
            },
            {
              "internalType": "uint256",
              "name": "viewCount",
              "type": "uint256"
            },
            {
              "internalType": "string",
              "name": "link",
              "type": "string"
            },
            {
              "internalType": "string",
              "name": "price",
              "type": "string"
            }
          ],
          "internalType": "struct DOTT.Video",
          "name": "",
          "type": "tuple"
        }
      ],
      "stateMutability": "view",
      "type": "function"
    },
    {
      "inputs": [
        {
          "internalType": "uint256",
          "name": "id",
          "type": "uint256"
        }
      ],
      "name": "getVideoOwnerAndPrice",
      "outputs": [
        {
          "internalType": "address",
          "name": "",
          "type": "address"
        },
        {
          "internalType": "string",
          "name": "",
          "type": "string"
        }
      ],
      "stateMutability": "view",
      "type": "function"
    },
    {
      "inputs": [],
      "name": "increaseUserCounter",
      "outputs": [
        {
          "internalType": "uint256",
          "name": "",
          "type": "uint256"
        }
      ],
      "stateMutability": "nonpayable",
      "type": "function"
    },
    {
      "inputs": [],
      "name": "increaseVideoCounter",
      "outputs": [
        {
          "internalType": "uint256",
          "name": "",
          "type": "uint256"
        }
      ],
      "stateMutability": "nonpayable",
      "type": "function"
    },
    {
      "inputs": [
        {
          "internalType": "address",
          "name": "owner",
          "type": "address"
        },
        {
          "internalType": "address",
          "name": "operator",
          "type": "address"
        }
      ],
      "name": "isApprovedForAll",
      "outputs": [
        {
          "internalType": "bool",
          "name": "",
          "type": "bool"
        }
      ],
      "stateMutability": "view",
      "type": "function"
    },
    {
      "inputs": [],
      "name": "name",
      "outputs": [
        {
          "internalType": "string",
          "name": "",
          "type": "string"
        }
      ],
      "stateMutability": "view",
      "type": "function"
    },
    {
      "inputs": [],
      "name": "owner",
      "outputs": [
        {
          "internalType": "address payable",
          "name": "",
          "type": "address"
        }
      ],
      "stateMutability": "view",
      "type": "function"
    },
    {
      "inputs": [
        {
          "internalType": "uint256",
          "name": "tokenId",
          "type": "uint256"
        }
      ],
      "name": "ownerOf",
      "outputs": [
        {
          "internalType": "address",
          "name": "",
          "type": "address"
        }
      ],
      "stateMutability": "view",
      "type": "function"
    },
    {
      "inputs": [
        {
          "internalType": "string",
          "name": "username",
          "type": "string"
        },
        {
          "internalType": "string",
          "name": "bio",
          "type": "string"
        }
      ],
      "name": "registerUser",
      "outputs": [],
      "stateMutability": "nonpayable",
      "type": "function"
    },
    {
      "inputs": [
        {
          "internalType": "address",
          "name": "from",
          "type": "address"
        },
        {
          "internalType": "address",
          "name": "to",
          "type": "address"
        },
        {
          "internalType": "uint256",
          "name": "tokenId",
          "type": "uint256"
        }
      ],
      "name": "safeTransferFrom",
      "outputs": [],
      "stateMutability": "nonpayable",
      "type": "function"
    },
    {
      "inputs": [
        {
          "internalType": "address",
          "name": "from",
          "type": "address"
        },
        {
          "internalType": "address",
          "name": "to",
          "type": "address"
        },
        {
          "internalType": "uint256",
          "name": "tokenId",
          "type": "uint256"
        },
        {
          "internalType": "bytes",
          "name": "data",
          "type": "bytes"
        }
      ],
      "name": "safeTransferFrom",
      "outputs": [],
      "stateMutability": "nonpayable",
      "type": "function"
    },
    {
      "inputs": [],
      "name": "sayHello",
      "outputs": [
        {
          "internalType": "string",
          "name": "",
          "type": "string"
        }
      ],
      "stateMutability": "pure",
      "type": "function"
    },
    {
      "inputs": [
        {
          "internalType": "address",
          "name": "operator",
          "type": "address"
        },
        {
          "internalType": "bool",
          "name": "approved",
          "type": "bool"
        }
      ],
      "name": "setApprovalForAll",
      "outputs": [],
      "stateMutability": "nonpayable",
      "type": "function"
    },
    {
      "inputs": [
        {
          "internalType": "bytes4",
          "name": "interfaceId",
          "type": "bytes4"
        }
      ],
      "name": "supportsInterface",
      "outputs": [
        {
          "internalType": "bool",
          "name": "",
          "type": "bool"
        }
      ],
      "stateMutability": "view",
      "type": "function"
    },
    {
      "inputs": [],
      "name": "symbol",
      "outputs": [
        {
          "internalType": "string",
          "name": "",
          "type": "string"
        }
      ],
      "stateMutability": "view",
      "type": "function"
    },
    {
      "inputs": [
        {
          "internalType": "uint256",
          "name": "tokenId",
          "type": "uint256"
        }
      ],
      "name": "tokenURI",
      "outputs": [
        {
          "internalType": "string",
          "name": "",
          "type": "string"
        }
      ],
      "stateMutability": "view",
      "type": "function"
    },
    {
      "inputs": [
        {
          "internalType": "address",
          "name": "from",
          "type": "address"
        },
        {
          "internalType": "address",
          "name": "to",
          "type": "address"
        },
        {
          "internalType": "uint256",
          "name": "tokenId",
          "type": "uint256"
        }
      ],
      "name": "transferFrom",
      "outputs": [],
      "stateMutability": "nonpayable",
      "type": "function"
    },
    {
      "inputs": [
        {
          "internalType": "string",
          "name": "username",
          "type": "string"
        },
        {
          "internalType": "string",
          "name": "bio",
          "type": "string"
        }
      ],
      "name": "updateUser",
      "outputs": [],
      "stateMutability": "nonpayable",
      "type": "function"
    },
    {
      "inputs": [
        {
          "internalType": "uint256",
          "name": "id",
          "type": "uint256"
        },
        {
          "internalType": "string",
          "name": "price",
          "type": "string"
        },
        {
          "internalType": "string",
          "name": "name",
          "type": "string"
        },
        {
          "internalType": "string",
          "name": "description",
          "type": "string"
        }
      ],
      "name": "updateVideo",
      "outputs": [],
      "stateMutability": "nonpayable",
      "type": "function"
    },
    {
      "inputs": [
        {
          "internalType": "string",
          "name": "viewedVideos",
          "type": "string"
        },
        {
          "internalType": "uint256",
          "name": "videoId",
          "type": "uint256"
        }
      ],
      "name": "updateViewedVideos",
      "outputs": [],
      "stateMutability": "nonpayable",
      "type": "function"
    },
    {
      "inputs": [
        {
          "internalType": "address",
          "name": "",
          "type": "address"
        }
      ],
      "name": "userMappings",
      "outputs": [
        {
          "internalType": "string",
          "name": "username",
          "type": "string"
        },
        {
          "internalType": "string",
          "name": "bio",
          "type": "string"
        },
        {
          "internalType": "uint256",
          "name": "userId",
          "type": "uint256"
        },
        {
          "internalType": "string",
          "name": "viewedVideos",
          "type": "string"
        },
        {
          "internalType": "string",
          "name": "postedVideos",
          "type": "string"
        }
      ],
      "stateMutability": "view",
      "type": "function"
    },
    {
      "inputs": [],
      "name": "videoCounter",
      "outputs": [
        {
          "internalType": "uint256",
          "name": "",
          "type": "uint256"
        }
      ],
      "stateMutability": "view",
      "type": "function"
    },
    {
      "inputs": [
        {
          "internalType": "uint256",
          "name": "",
          "type": "uint256"
        }
      ],
      "name": "videoMappings",
      "outputs": [
        {
          "internalType": "address",
          "name": "owner",
          "type": "address"
        },
        {
          "internalType": "string",
          "name": "name",
          "type": "string"
        },
        {
          "internalType": "string",
          "name": "description",
          "type": "string"
        },
        {
          "internalType": "uint256",
          "name": "viewCount",
          "type": "uint256"
        },
        {
          "internalType": "string",
          "name": "link",
          "type": "string"
        },
        {
          "internalType": "string",
          "name": "price",
          "type": "string"
        }
      ],
      "stateMutability": "view",
      "type": "function"
    }
  ],
  "bytecode": "0x6080604052600060085560006009553480156200001b57600080fd5b506040518060400160405280600481526020017f444f5454000000000000000000000000000000000000000000000000000000008152506040518060400160405280600481526020017f444f54540000000000000000000000000000000000000000000000000000000081525081600090816200009991906200036f565b508060019081620000ab91906200036f565b50505033600760006101000a81548173ffffffffffffffffffffffffffffffffffffffff021916908373ffffffffffffffffffffffffffffffffffffffff16021790555062000456565b600081519050919050565b7f4e487b7100000000000000000000000000000000000000000000000000000000600052604160045260246000fd5b7f4e487b7100000000000000000000000000000000000000000000000000000000600052602260045260246000fd5b600060028204905060018216806200017757607f821691505b6020821081036200018d576200018c6200012f565b5b50919050565b60008190508160005260206000209050919050565b60006020601f8301049050919050565b600082821b905092915050565b600060088302620001f77fffffffffffffffffffffffffffffffffffffffffffffffffffffffffffffffff82620001b8565b620002038683620001b8565b95508019841693508086168417925050509392505050565b6000819050919050565b6000819050919050565b6000620002506200024a62000244846200021b565b62000225565b6200021b565b9050919050565b6000819050919050565b6200026c836200022f565b620002846200027b8262000257565b848454620001c5565b825550505050565b600090565b6200029b6200028c565b620002a881848462000261565b505050565b5b81811015620002d057620002c460008262000291565b600181019050620002ae565b5050565b601f8211156200031f57620002e98162000193565b620002f484620001a8565b8101602085101562000304578190505b6200031c6200031385620001a8565b830182620002ad565b50505b505050565b600082821c905092915050565b6000620003446000198460080262000324565b1980831691505092915050565b60006200035f838362000331565b9150826002028217905092915050565b6200037a82620000f5565b67ffffffffffffffff81111562000396576200039562000100565b5b620003a282546200015e565b620003af828285620002d4565b600060209050601f831160018114620003e75760008415620003d2578287015190505b620003de858262000351565b8655506200044e565b601f198416620003f78662000193565b60005b828110156200042157848901518255600182019150602085019450602081019050620003fa565b868310156200044157848901516200043d601f89168262000331565b8355505b6001600288020188555050505b505050505050565b6145e080620004666000396000f3fe608060405234801561001057600080fd5b50600436106101c45760003560e01c806344fb111a116100f9578063a22cb46511610097578063c87b56dd11610071578063c87b56dd14610531578063dd4a242514610561578063e985e9c51461057d578063ef5fb05b146105ad576101c4565b8063a22cb465146104c9578063a9ba4560146104e5578063b88d4fde14610515576101c4565b806370a08231116100d357806370a082311461042c5780638373ab5a1461045c5780638da5cb5b1461048d57806395d89b41146104ab576101c4565b806344fb111a146103ac5780635a9e416c146103c85780636352211e146103fc576101c4565b80631d2e4afd11610166578063309ebfb911610140578063309ebfb91461030f578063390d2e991461032b5780633b0328be1461036057806342842e0e14610390576101c4565b80631d2e4afd146102bb57806323b872dd146102d757806326d4a0c5146102f3576101c4565b8063095ea7b3116101a2578063095ea7b31461024757806309e99fbd146102635780630debb9321461028157806318f362011461029f576101c4565b806301ffc9a7146101c957806306fdde03146101f9578063081812fc14610217575b600080fd5b6101e360048036038101906101de9190612d93565b6105cb565b6040516101f09190612ddb565b60405180910390f35b6102016106ad565b60405161020e9190612e86565b60405180910390f35b610231600480360381019061022c9190612ede565b61073f565b60405161023e9190612f4c565b60405180910390f35b610261600480360381019061025c9190612f93565b610785565b005b61026b61089c565b6040516102789190612fe2565b60405180910390f35b6102896108be565b6040516102969190612fe2565b60405180910390f35b6102b960048036038101906102b49190613132565b6108e0565b005b6102d560048036038101906102d0919061318e565b610a3f565b005b6102f160048036038101906102ec9190613206565b610b39565b005b61030d60048036038101906103089190613259565b610b99565b005b610329600480360381019061032491906132b5565b610c72565b005b61034560048036038101906103409190612ede565b610d88565b6040516103579695949392919061338c565b60405180910390f35b61037a60048036038101906103759190613409565b611004565b604051610387919061351a565b60405180910390f35b6103aa60048036038101906103a59190613206565b6112af565b005b6103c660048036038101906103c1919061353c565b6112cf565b005b6103e260048036038101906103dd9190613409565b61148a565b6040516103f39594939291906135f7565b60405180910390f35b61041660048036038101906104119190612ede565b6116e0565b6040516104239190612f4c565b60405180910390f35b61044660048036038101906104419190613409565b611766565b6040516104539190612fe2565b60405180910390f35b61047660048036038101906104719190612ede565b61181d565b604051610484929190613666565b60405180910390f35b610495611903565b6040516104a291906136b7565b60405180910390f35b6104b3611929565b6040516104c09190612e86565b60405180910390f35b6104e360048036038101906104de91906136fe565b6119bb565b005b6104ff60048036038101906104fa9190612ede565b6119d1565b60405161050c91906137eb565b60405180910390f35b61052f600480360381019061052a91906138ae565b611ca6565b005b61054b60048036038101906105469190612ede565b611d08565b6040516105589190612e86565b60405180910390f35b61057b6004803603810190610576919061318e565b611e1a565b005b61059760048036038101906105929190613931565b611ebe565b6040516105a49190612ddb565b60405180910390f35b6105b5611f52565b6040516105c29190612e86565b60405180910390f35b60007f80ac58cd000000000000000000000000000000000000000000000000000000007bffffffffffffffffffffffffffffffffffffffffffffffffffffffff1916827bffffffffffffffffffffffffffffffffffffffffffffffffffffffff1916148061069657507f5b5e139f000000000000000000000000000000000000000000000000000000007bffffffffffffffffffffffffffffffffffffffffffffffffffffffff1916827bffffffffffffffffffffffffffffffffffffffffffffffffffffffff1916145b806106a657506106a582611f8f565b5b9050919050565b6060600080546106bc906139a0565b80601f01602080910402602001604051908101604052809291908181526020018280546106e8906139a0565b80156107355780601f1061070a57610100808354040283529160200191610735565b820191906000526020600020905b81548152906001019060200180831161071857829003601f168201915b5050505050905090565b600061074a82611ff9565b6004600083815260200190815260200160002060009054906101000a900473ffffffffffffffffffffffffffffffffffffffff169050919050565b6000610790826116e0565b90508073ffffffffffffffffffffffffffffffffffffffff168373ffffffffffffffffffffffffffffffffffffffff1603610800576040517f08c379a00000000000000000000000000000000000000000000000000000000081526004016107f790613a43565b60405180910390fd5b8073ffffffffffffffffffffffffffffffffffffffff1661081f612044565b73ffffffffffffffffffffffffffffffffffffffff16148061084e575061084d81610848612044565b611ebe565b5b61088d576040517f08c379a000000000000000000000000000000000000000000000000000000000815260040161088490613ad5565b60405180910390fd5b610897838361204c565b505050565b6000600860008154809291906108b190613b24565b9190505550600854905090565b6000600960008154809291906108d390613b24565b9190505550600954905090565b81600a60003373ffffffffffffffffffffffffffffffffffffffff1673ffffffffffffffffffffffffffffffffffffffff168152602001908152602001600020600301908161092f9190613d18565b50600b6000828152602001908152602001600020600301600081548092919061095790613b24565b9190505550600b600082815260200190815260200160002060010160405161097f9190613e78565b6040518091039020600b600083815260200190815260200160002060000160009054906101000a900473ffffffffffffffffffffffffffffffffffffffff1673ffffffffffffffffffffffffffffffffffffffff163373ffffffffffffffffffffffffffffffffffffffff167f0aa77bab6c3de729029160438f80857c9a051117617f02e46c10868deadc4d934285600b6000888152602001908152602001600020600501604051610a3393929190613f13565b60405180910390a45050565b6000610a4961089c565b90506040518060a0016040528084815260200183815260200182815260200160405180602001604052806000815250815260200160405180602001604052806000815250815250600a60003373ffffffffffffffffffffffffffffffffffffffff1673ffffffffffffffffffffffffffffffffffffffff1681526020019081526020016000206000820151816000019081610ae49190613d18565b506020820151816001019081610afa9190613d18565b50604082015181600201556060820151816003019081610b1a9190613d18565b506080820151816004019081610b309190613d18565b50905050505050565b610b4a610b44612044565b82612105565b610b89576040517f08c379a0000000000000000000000000000000000000000000000000000000008152600401610b8090613fc3565b60405180910390fd5b610b9483838361219a565b505050565b80600a60003373ffffffffffffffffffffffffffffffffffffffff1673ffffffffffffffffffffffffffffffffffffffff1681526020019081526020016000206004019081610be89190613d18565b50600b6000838152602001908152602001600020600080820160006101000a81549073ffffffffffffffffffffffffffffffffffffffff0219169055600182016000610c349190612c4f565b600282016000610c449190612c4f565b6003820160009055600482016000610c5c9190612c4f565b600582016000610c6c9190612c4f565b50505050565b6000610c7c6108be565b90506040518060c001604052803373ffffffffffffffffffffffffffffffffffffffff1681526020018681526020018581526020016000815260200184815260200183815250600b600083815260200190815260200160002060008201518160000160006101000a81548173ffffffffffffffffffffffffffffffffffffffff021916908373ffffffffffffffffffffffffffffffffffffffff1602179055506020820151816001019081610d319190613d18565b506040820151816002019081610d479190613d18565b50606082015181600301556080820151816004019081610d679190613d18565b5060a0820151816005019081610d7d9190613d18565b509050505050505050565b600b6020528060005260406000206000915090508060000160009054906101000a900473ffffffffffffffffffffffffffffffffffffffff1690806001018054610dd1906139a0565b80601f0160208091040260200160405190810160405280929190818152602001828054610dfd906139a0565b8015610e4a5780601f10610e1f57610100808354040283529160200191610e4a565b820191906000526020600020905b815481529060010190602001808311610e2d57829003601f168201915b505050505090806002018054610e5f906139a0565b80601f0160208091040260200160405190810160405280929190818152602001828054610e8b906139a0565b8015610ed85780601f10610ead57610100808354040283529160200191610ed8565b820191906000526020600020905b815481529060010190602001808311610ebb57829003601f168201915b505050505090806003015490806004018054610ef3906139a0565b80601f0160208091040260200160405190810160405280929190818152602001828054610f1f906139a0565b8015610f6c5780601f10610f4157610100808354040283529160200191610f6c565b820191906000526020600020905b815481529060010190602001808311610f4f57829003601f168201915b505050505090806005018054610f81906139a0565b80601f0160208091040260200160405190810160405280929190818152602001828054610fad906139a0565b8015610ffa5780601f10610fcf57610100808354040283529160200191610ffa565b820191906000526020600020905b815481529060010190602001808311610fdd57829003601f168201915b5050505050905086565b61100c612c8f565b600a60008373ffffffffffffffffffffffffffffffffffffffff1673ffffffffffffffffffffffffffffffffffffffff1681526020019081526020016000206040518060a0016040529081600082018054611066906139a0565b80601f0160208091040260200160405190810160405280929190818152602001828054611092906139a0565b80156110df5780601f106110b4576101008083540402835291602001916110df565b820191906000526020600020905b8154815290600101906020018083116110c257829003601f168201915b505050505081526020016001820180546110f8906139a0565b80601f0160208091040260200160405190810160405280929190818152602001828054611124906139a0565b80156111715780601f1061114657610100808354040283529160200191611171565b820191906000526020600020905b81548152906001019060200180831161115457829003601f168201915b5050505050815260200160028201548152602001600382018054611194906139a0565b80601f01602080910402602001604051908101604052809291908181526020018280546111c0906139a0565b801561120d5780601f106111e25761010080835404028352916020019161120d565b820191906000526020600020905b8154815290600101906020018083116111f057829003601f168201915b50505050508152602001600482018054611226906139a0565b80601f0160208091040260200160405190810160405280929190818152602001828054611252906139a0565b801561129f5780601f106112745761010080835404028352916020019161129f565b820191906000526020600020905b81548152906001019060200180831161128257829003601f168201915b5050505050815250509050919050565b6112ca83838360405180602001604052806000815250611ca6565b505050565b3373ffffffffffffffffffffffffffffffffffffffff16600b600086815260200190815260200160002060000160009054906101000a900473ffffffffffffffffffffffffffffffffffffffff1673ffffffffffffffffffffffffffffffffffffffff1614611373576040517f08c379a000000000000000000000000000000000000000000000000000000000815260040161136a9061402f565b60405180910390fd5b600073ffffffffffffffffffffffffffffffffffffffff16600b600086815260200190815260200160002060000160009054906101000a900473ffffffffffffffffffffffffffffffffffffffff1673ffffffffffffffffffffffffffffffffffffffff1603611418576040517f08c379a000000000000000000000000000000000000000000000000000000000815260040161140f9061409b565b60405180910390fd5b81600b6000868152602001908152602001600020600101908161143b9190613d18565b5080600b6000868152602001908152602001600020600201908161145f9190613d18565b5082600b600086815260200190815260200160002060050190816114839190613d18565b5050505050565b600a6020528060005260406000206000915090508060000180546114ad906139a0565b80601f01602080910402602001604051908101604052809291908181526020018280546114d9906139a0565b80156115265780601f106114fb57610100808354040283529160200191611526565b820191906000526020600020905b81548152906001019060200180831161150957829003601f168201915b50505050509080600101805461153b906139a0565b80601f0160208091040260200160405190810160405280929190818152602001828054611567906139a0565b80156115b45780601f10611589576101008083540402835291602001916115b4565b820191906000526020600020905b81548152906001019060200180831161159757829003601f168201915b5050505050908060020154908060030180546115cf906139a0565b80601f01602080910402602001604051908101604052809291908181526020018280546115fb906139a0565b80156116485780601f1061161d57610100808354040283529160200191611648565b820191906000526020600020905b81548152906001019060200180831161162b57829003601f168201915b50505050509080600401805461165d906139a0565b80601f0160208091040260200160405190810160405280929190818152602001828054611689906139a0565b80156116d65780601f106116ab576101008083540402835291602001916116d6565b820191906000526020600020905b8154815290600101906020018083116116b957829003601f168201915b5050505050905085565b6000806116ec83612493565b9050600073ffffffffffffffffffffffffffffffffffffffff168173ffffffffffffffffffffffffffffffffffffffff160361175d576040517f08c379a000000000000000000000000000000000000000000000000000000000815260040161175490614107565b60405180910390fd5b80915050919050565b60008073ffffffffffffffffffffffffffffffffffffffff168273ffffffffffffffffffffffffffffffffffffffff16036117d6576040517f08c379a00000000000000000000000000000000000000000000000000000000081526004016117cd90614199565b60405180910390fd5b600360008373ffffffffffffffffffffffffffffffffffffffff1673ffffffffffffffffffffffffffffffffffffffff168152602001908152602001600020549050919050565b60006060600b600084815260200190815260200160002060000160009054906101000a900473ffffffffffffffffffffffffffffffffffffffff16600b600085815260200190815260200160002060050180805461187a906139a0565b80601f01602080910402602001604051908101604052809291908181526020018280546118a6906139a0565b80156118f35780601f106118c8576101008083540402835291602001916118f3565b820191906000526020600020905b8154815290600101906020018083116118d657829003601f168201915b5050505050905091509150915091565b600760009054906101000a900473ffffffffffffffffffffffffffffffffffffffff1681565b606060018054611938906139a0565b80601f0160208091040260200160405190810160405280929190818152602001828054611964906139a0565b80156119b15780601f10611986576101008083540402835291602001916119b1565b820191906000526020600020905b81548152906001019060200180831161199457829003601f168201915b5050505050905090565b6119cd6119c6612044565b83836124d0565b5050565b6119d9612cbe565b600b60008381526020019081526020016000206040518060c00160405290816000820160009054906101000a900473ffffffffffffffffffffffffffffffffffffffff1673ffffffffffffffffffffffffffffffffffffffff1673ffffffffffffffffffffffffffffffffffffffff168152602001600182018054611a5d906139a0565b80601f0160208091040260200160405190810160405280929190818152602001828054611a89906139a0565b8015611ad65780601f10611aab57610100808354040283529160200191611ad6565b820191906000526020600020905b815481529060010190602001808311611ab957829003601f168201915b50505050508152602001600282018054611aef906139a0565b80601f0160208091040260200160405190810160405280929190818152602001828054611b1b906139a0565b8015611b685780601f10611b3d57610100808354040283529160200191611b68565b820191906000526020600020905b815481529060010190602001808311611b4b57829003601f168201915b5050505050815260200160038201548152602001600482018054611b8b906139a0565b80601f0160208091040260200160405190810160405280929190818152602001828054611bb7906139a0565b8015611c045780601f10611bd957610100808354040283529160200191611c04565b820191906000526020600020905b815481529060010190602001808311611be757829003601f168201915b50505050508152602001600582018054611c1d906139a0565b80601f0160208091040260200160405190810160405280929190818152602001828054611c49906139a0565b8015611c965780601f10611c6b57610100808354040283529160200191611c96565b820191906000526020600020905b815481529060010190602001808311611c7957829003601f168201915b5050505050815250509050919050565b611cb7611cb1612044565b83612105565b611cf6576040517f08c379a0000000000000000000000000000000000000000000000000000000008152600401611ced90613fc3565b60405180910390fd5b611d028484848461263c565b50505050565b6060611d1382611ff9565b6000600660008481526020019081526020016000208054611d33906139a0565b80601f0160208091040260200160405190810160405280929190818152602001828054611d5f906139a0565b8015611dac5780601f10611d8157610100808354040283529160200191611dac565b820191906000526020600020905b815481529060010190602001808311611d8f57829003601f168201915b505050505090506000611dbd612698565b90506000815103611dd2578192505050611e15565b600082511115611e07578082604051602001611def9291906141ea565b60405160208183030381529060405292505050611e15565b611e10846126af565b925050505b919050565b80600a60003373ffffffffffffffffffffffffffffffffffffffff1673ffffffffffffffffffffffffffffffffffffffff1681526020019081526020016000206001019081611e699190613d18565b5081600a60003373ffffffffffffffffffffffffffffffffffffffff1673ffffffffffffffffffffffffffffffffffffffff1681526020019081526020016000206000019081611eb99190613d18565b505050565b6000600560008473ffffffffffffffffffffffffffffffffffffffff1673ffffffffffffffffffffffffffffffffffffffff16815260200190815260200160002060008373ffffffffffffffffffffffffffffffffffffffff1673ffffffffffffffffffffffffffffffffffffffff16815260200190815260200160002060009054906101000a900460ff16905092915050565b60606040518060400160405280600b81526020017f48656c6c6f207468657265000000000000000000000000000000000000000000815250905090565b60007f01ffc9a7000000000000000000000000000000000000000000000000000000007bffffffffffffffffffffffffffffffffffffffffffffffffffffffff1916827bffffffffffffffffffffffffffffffffffffffffffffffffffffffff1916149050919050565b61200281612717565b612041576040517f08c379a000000000000000000000000000000000000000000000000000000000815260040161203890614107565b60405180910390fd5b50565b600033905090565b816004600083815260200190815260200160002060006101000a81548173ffffffffffffffffffffffffffffffffffffffff021916908373ffffffffffffffffffffffffffffffffffffffff160217905550808273ffffffffffffffffffffffffffffffffffffffff166120bf836116e0565b73ffffffffffffffffffffffffffffffffffffffff167f8c5be1e5ebec7d5bd14f71427d1e84f3dd0314c0f7b2291e5b200ac8c7c3b92560405160405180910390a45050565b600080612111836116e0565b90508073ffffffffffffffffffffffffffffffffffffffff168473ffffffffffffffffffffffffffffffffffffffff16148061215357506121528185611ebe565b5b8061219157508373ffffffffffffffffffffffffffffffffffffffff166121798461073f565b73ffffffffffffffffffffffffffffffffffffffff16145b91505092915050565b8273ffffffffffffffffffffffffffffffffffffffff166121ba826116e0565b73ffffffffffffffffffffffffffffffffffffffff1614612210576040517f08c379a000000000000000000000000000000000000000000000000000000000815260040161220790614280565b60405180910390fd5b600073ffffffffffffffffffffffffffffffffffffffff168273ffffffffffffffffffffffffffffffffffffffff160361227f576040517f08c379a000000000000000000000000000000000000000000000000000000000815260040161227690614312565b60405180910390fd5b61228c8383836001612758565b8273ffffffffffffffffffffffffffffffffffffffff166122ac826116e0565b73ffffffffffffffffffffffffffffffffffffffff1614612302576040517f08c379a00000000000000000000000000000000000000000000000000000000081526004016122f990614280565b60405180910390fd5b6004600082815260200190815260200160002060006101000a81549073ffffffffffffffffffffffffffffffffffffffff02191690556001600360008573ffffffffffffffffffffffffffffffffffffffff1673ffffffffffffffffffffffffffffffffffffffff168152602001908152602001600020600082825403925050819055506001600360008473ffffffffffffffffffffffffffffffffffffffff1673ffffffffffffffffffffffffffffffffffffffff16815260200190815260200160002060008282540192505081905550816002600083815260200190815260200160002060006101000a81548173ffffffffffffffffffffffffffffffffffffffff021916908373ffffffffffffffffffffffffffffffffffffffff160217905550808273ffffffffffffffffffffffffffffffffffffffff168473ffffffffffffffffffffffffffffffffffffffff167fddf252ad1be2c89b69c2b068fc378daa952ba7f163c4a11628f55a4df523b3ef60405160405180910390a461248e838383600161287e565b505050565b60006002600083815260200190815260200160002060009054906101000a900473ffffffffffffffffffffffffffffffffffffffff169050919050565b8173ffffffffffffffffffffffffffffffffffffffff168373ffffffffffffffffffffffffffffffffffffffff160361253e576040517f08c379a00000000000000000000000000000000000000000000000000000000081526004016125359061437e565b60405180910390fd5b80600560008573ffffffffffffffffffffffffffffffffffffffff1673ffffffffffffffffffffffffffffffffffffffff16815260200190815260200160002060008473ffffffffffffffffffffffffffffffffffffffff1673ffffffffffffffffffffffffffffffffffffffff16815260200190815260200160002060006101000a81548160ff0219169083151502179055508173ffffffffffffffffffffffffffffffffffffffff168373ffffffffffffffffffffffffffffffffffffffff167f17307eab39ab6107e8899845ad3d59bd9653f200f220920489ca2b5937696c318360405161262f9190612ddb565b60405180910390a3505050565b61264784848461219a565b61265384848484612884565b612692576040517f08c379a000000000000000000000000000000000000000000000000000000000815260040161268990614410565b60405180910390fd5b50505050565b606060405180602001604052806000815250905090565b60606126ba82611ff9565b60006126c4612698565b905060008151116126e4576040518060200160405280600081525061270f565b806126ee84612a0b565b6040516020016126ff9291906141ea565b6040516020818303038152906040525b915050919050565b60008073ffffffffffffffffffffffffffffffffffffffff1661273983612493565b73ffffffffffffffffffffffffffffffffffffffff1614159050919050565b600181111561287857600073ffffffffffffffffffffffffffffffffffffffff168473ffffffffffffffffffffffffffffffffffffffff16146127ec5780600360008673ffffffffffffffffffffffffffffffffffffffff1673ffffffffffffffffffffffffffffffffffffffff16815260200190815260200160002060008282546127e49190614430565b925050819055505b600073ffffffffffffffffffffffffffffffffffffffff168373ffffffffffffffffffffffffffffffffffffffff16146128775780600360008573ffffffffffffffffffffffffffffffffffffffff1673ffffffffffffffffffffffffffffffffffffffff168152602001908152602001600020600082825461286f9190614464565b925050819055505b5b50505050565b50505050565b60006128a58473ffffffffffffffffffffffffffffffffffffffff16612ad9565b156129fe578373ffffffffffffffffffffffffffffffffffffffff1663150b7a026128ce612044565b8786866040518563ffffffff1660e01b81526004016128f094939291906144ed565b6020604051808303816000875af192505050801561292c57506040513d601f19601f82011682018060405250810190612929919061454e565b60015b6129ae573d806000811461295c576040519150601f19603f3d011682016040523d82523d6000602084013e612961565b606091505b5060008151036129a6576040517f08c379a000000000000000000000000000000000000000000000000000000000815260040161299d90614410565b60405180910390fd5b805181602001fd5b63150b7a0260e01b7bffffffffffffffffffffffffffffffffffffffffffffffffffffffff1916817bffffffffffffffffffffffffffffffffffffffffffffffffffffffff191614915050612a03565b600190505b949350505050565b606060006001612a1a84612afc565b01905060008167ffffffffffffffff811115612a3957612a38613007565b5b6040519080825280601f01601f191660200182016040528015612a6b5781602001600182028036833780820191505090505b509050600082602001820190505b600115612ace578080600190039150507f3031323334353637383961626364656600000000000000000000000000000000600a86061a8153600a8581612ac257612ac161457b565b5b04945060008503612a79575b819350505050919050565b6000808273ffffffffffffffffffffffffffffffffffffffff163b119050919050565b600080600090507a184f03e93ff9f4daa797ed6e38ed64bf6a1f0100000000000000008310612b5a577a184f03e93ff9f4daa797ed6e38ed64bf6a1f0100000000000000008381612b5057612b4f61457b565b5b0492506040810190505b6d04ee2d6d415b85acef81000000008310612b97576d04ee2d6d415b85acef81000000008381612b8d57612b8c61457b565b5b0492506020810190505b662386f26fc100008310612bc657662386f26fc100008381612bbc57612bbb61457b565b5b0492506010810190505b6305f5e1008310612bef576305f5e1008381612be557612be461457b565b5b0492506008810190505b6127108310612c14576127108381612c0a57612c0961457b565b5b0492506004810190505b60648310612c375760648381612c2d57612c2c61457b565b5b0492506002810190505b600a8310612c46576001810190505b80915050919050565b508054612c5b906139a0565b6000825580601f10612c6d5750612c8c565b601f016020900490600052602060002090810190612c8b9190612d0a565b5b50565b6040518060a0016040528060608152602001606081526020016000815260200160608152602001606081525090565b6040518060c00160405280600073ffffffffffffffffffffffffffffffffffffffff16815260200160608152602001606081526020016000815260200160608152602001606081525090565b5b80821115612d23576000816000905550600101612d0b565b5090565b6000604051905090565b600080fd5b600080fd5b60007fffffffff0000000000000000000000000000000000000000000000000000000082169050919050565b612d7081612d3b565b8114612d7b57600080fd5b50565b600081359050612d8d81612d67565b92915050565b600060208284031215612da957612da8612d31565b5b6000612db784828501612d7e565b91505092915050565b60008115159050919050565b612dd581612dc0565b82525050565b6000602082019050612df06000830184612dcc565b92915050565b600081519050919050565b600082825260208201905092915050565b60005b83811015612e30578082015181840152602081019050612e15565b60008484015250505050565b6000601f19601f8301169050919050565b6000612e5882612df6565b612e628185612e01565b9350612e72818560208601612e12565b612e7b81612e3c565b840191505092915050565b60006020820190508181036000830152612ea08184612e4d565b905092915050565b6000819050919050565b612ebb81612ea8565b8114612ec657600080fd5b50565b600081359050612ed881612eb2565b92915050565b600060208284031215612ef457612ef3612d31565b5b6000612f0284828501612ec9565b91505092915050565b600073ffffffffffffffffffffffffffffffffffffffff82169050919050565b6000612f3682612f0b565b9050919050565b612f4681612f2b565b82525050565b6000602082019050612f616000830184612f3d565b92915050565b612f7081612f2b565b8114612f7b57600080fd5b50565b600081359050612f8d81612f67565b92915050565b60008060408385031215612faa57612fa9612d31565b5b6000612fb885828601612f7e565b9250506020612fc985828601612ec9565b9150509250929050565b612fdc81612ea8565b82525050565b6000602082019050612ff76000830184612fd3565b92915050565b600080fd5b600080fd5b7f4e487b7100000000000000000000000000000000000000000000000000000000600052604160045260246000fd5b61303f82612e3c565b810181811067ffffffffffffffff8211171561305e5761305d613007565b5b80604052505050565b6000613071612d27565b905061307d8282613036565b919050565b600067ffffffffffffffff82111561309d5761309c613007565b5b6130a682612e3c565b9050602081019050919050565b82818337600083830152505050565b60006130d56130d084613082565b613067565b9050828152602081018484840111156130f1576130f0613002565b5b6130fc8482856130b3565b509392505050565b600082601f83011261311957613118612ffd565b5b81356131298482602086016130c2565b91505092915050565b6000806040838503121561314957613148612d31565b5b600083013567ffffffffffffffff81111561316757613166612d36565b5b61317385828601613104565b925050602061318485828601612ec9565b9150509250929050565b600080604083850312156131a5576131a4612d31565b5b600083013567ffffffffffffffff8111156131c3576131c2612d36565b5b6131cf85828601613104565b925050602083013567ffffffffffffffff8111156131f0576131ef612d36565b5b6131fc85828601613104565b9150509250929050565b60008060006060848603121561321f5761321e612d31565b5b600061322d86828701612f7e565b935050602061323e86828701612f7e565b925050604061324f86828701612ec9565b9150509250925092565b600080604083850312156132705761326f612d31565b5b600061327e85828601612ec9565b925050602083013567ffffffffffffffff81111561329f5761329e612d36565b5b6132ab85828601613104565b9150509250929050565b600080600080608085870312156132cf576132ce612d31565b5b600085013567ffffffffffffffff8111156132ed576132ec612d36565b5b6132f987828801613104565b945050602085013567ffffffffffffffff81111561331a57613319612d36565b5b61332687828801613104565b935050604085013567ffffffffffffffff81111561334757613346612d36565b5b61335387828801613104565b925050606085013567ffffffffffffffff81111561337457613373612d36565b5b61338087828801613104565b91505092959194509250565b600060c0820190506133a16000830189612f3d565b81810360208301526133b38188612e4d565b905081810360408301526133c78187612e4d565b90506133d66060830186612fd3565b81810360808301526133e88185612e4d565b905081810360a08301526133fc8184612e4d565b9050979650505050505050565b60006020828403121561341f5761341e612d31565b5b600061342d84828501612f7e565b91505092915050565b600082825260208201905092915050565b600061345282612df6565b61345c8185613436565b935061346c818560208601612e12565b61347581612e3c565b840191505092915050565b61348981612ea8565b82525050565b600060a08301600083015184820360008601526134ac8282613447565b915050602083015184820360208601526134c68282613447565b91505060408301516134db6040860182613480565b50606083015184820360608601526134f38282613447565b9150506080830151848203608086015261350d8282613447565b9150508091505092915050565b60006020820190508181036000830152613534818461348f565b905092915050565b6000806000806080858703121561355657613555612d31565b5b600061356487828801612ec9565b945050602085013567ffffffffffffffff81111561358557613584612d36565b5b61359187828801613104565b935050604085013567ffffffffffffffff8111156135b2576135b1612d36565b5b6135be87828801613104565b925050606085013567ffffffffffffffff8111156135df576135de612d36565b5b6135eb87828801613104565b91505092959194509250565b600060a08201905081810360008301526136118188612e4d565b905081810360208301526136258187612e4d565b90506136346040830186612fd3565b81810360608301526136468185612e4d565b9050818103608083015261365a8184612e4d565b90509695505050505050565b600060408201905061367b6000830185612f3d565b818103602083015261368d8184612e4d565b90509392505050565b60006136a182612f0b565b9050919050565b6136b181613696565b82525050565b60006020820190506136cc60008301846136a8565b92915050565b6136db81612dc0565b81146136e657600080fd5b50565b6000813590506136f8816136d2565b92915050565b6000806040838503121561371557613714612d31565b5b600061372385828601612f7e565b9250506020613734858286016136e9565b9150509250929050565b61374781612f2b565b82525050565b600060c083016000830151613765600086018261373e565b506020830151848203602086015261377d8282613447565b915050604083015184820360408601526137978282613447565b91505060608301516137ac6060860182613480565b50608083015184820360808601526137c48282613447565b91505060a083015184820360a08601526137de8282613447565b9150508091505092915050565b60006020820190508181036000830152613805818461374d565b905092915050565b600067ffffffffffffffff82111561382857613827613007565b5b61383182612e3c565b9050602081019050919050565b600061385161384c8461380d565b613067565b90508281526020810184848401111561386d5761386c613002565b5b6138788482856130b3565b509392505050565b600082601f83011261389557613894612ffd565b5b81356138a584826020860161383e565b91505092915050565b600080600080608085870312156138c8576138c7612d31565b5b60006138d687828801612f7e565b94505060206138e787828801612f7e565b93505060406138f887828801612ec9565b925050606085013567ffffffffffffffff81111561391957613918612d36565b5b61392587828801613880565b91505092959194509250565b6000806040838503121561394857613947612d31565b5b600061395685828601612f7e565b925050602061396785828601612f7e565b9150509250929050565b7f4e487b7100000000000000000000000000000000000000000000000000000000600052602260045260246000fd5b600060028204905060018216806139b857607f821691505b6020821081036139cb576139ca613971565b5b50919050565b7f4552433732313a20617070726f76616c20746f2063757272656e74206f776e6560008201527f7200000000000000000000000000000000000000000000000000000000000000602082015250565b6000613a2d602183612e01565b9150613a38826139d1565b604082019050919050565b60006020820190508181036000830152613a5c81613a20565b9050919050565b7f4552433732313a20617070726f76652063616c6c6572206973206e6f7420746f60008201527f6b656e206f776e6572206f7220617070726f76656420666f7220616c6c000000602082015250565b6000613abf603d83612e01565b9150613aca82613a63565b604082019050919050565b60006020820190508181036000830152613aee81613ab2565b9050919050565b7f4e487b7100000000000000000000000000000000000000000000000000000000600052601160045260246000fd5b6000613b2f82612ea8565b91507fffffffffffffffffffffffffffffffffffffffffffffffffffffffffffffffff8203613b6157613b60613af5565b5b600182019050919050565b60008190508160005260206000209050919050565b60006020601f8301049050919050565b600082821b905092915050565b600060088302613bce7fffffffffffffffffffffffffffffffffffffffffffffffffffffffffffffffff82613b91565b613bd88683613b91565b95508019841693508086168417925050509392505050565b6000819050919050565b6000613c15613c10613c0b84612ea8565b613bf0565b612ea8565b9050919050565b6000819050919050565b613c2f83613bfa565b613c43613c3b82613c1c565b848454613b9e565b825550505050565b600090565b613c58613c4b565b613c63818484613c26565b505050565b5b81811015613c8757613c7c600082613c50565b600181019050613c69565b5050565b601f821115613ccc57613c9d81613b6c565b613ca684613b81565b81016020851015613cb5578190505b613cc9613cc185613b81565b830182613c68565b50505b505050565b600082821c905092915050565b6000613cef60001984600802613cd1565b1980831691505092915050565b6000613d088383613cde565b9150826002028217905092915050565b613d2182612df6565b67ffffffffffffffff811115613d3a57613d39613007565b5b613d4482546139a0565b613d4f828285613c8b565b600060209050601f831160018114613d825760008415613d70578287015190505b613d7a8582613cfc565b865550613de2565b601f198416613d9086613b6c565b60005b82811015613db857848901518255600182019150602085019450602081019050613d93565b86831015613dd55784890151613dd1601f891682613cde565b8355505b6001600288020188555050505b505050505050565b600081905092915050565b60008154613e02816139a0565b613e0c8186613dea565b94506001821660008114613e275760018114613e3c57613e6f565b60ff1983168652811515820286019350613e6f565b613e4585613b6c565b60005b83811015613e6757815481890152600182019150602081019050613e48565b838801955050505b50505092915050565b6000613e848284613df5565b915081905092915050565b60008154613e9c816139a0565b613ea68186612e01565b94506001821660008114613ec15760018114613ed757613f0a565b60ff198316865281151560200286019350613f0a565b613ee085613b6c565b60005b83811015613f0257815481890152600182019150602081019050613ee3565b808801955050505b50505092915050565b6000606082019050613f286000830186612fd3565b613f356020830185612fd3565b8181036040830152613f478184613e8f565b9050949350505050565b7f4552433732313a2063616c6c6572206973206e6f7420746f6b656e206f776e6560008201527f72206f7220617070726f76656400000000000000000000000000000000000000602082015250565b6000613fad602d83612e01565b9150613fb882613f51565b604082019050919050565b60006020820190508181036000830152613fdc81613fa0565b9050919050565b7f596f7520617265206e6f7420617574686f72697a656400000000000000000000600082015250565b6000614019601683612e01565b915061402482613fe3565b602082019050919050565b600060208201905081810360008301526140488161400c565b9050919050565b7f566964656f20646f6573206e6f74206578697374000000000000000000000000600082015250565b6000614085601483612e01565b91506140908261404f565b602082019050919050565b600060208201905081810360008301526140b481614078565b9050919050565b7f4552433732313a20696e76616c696420746f6b656e2049440000000000000000600082015250565b60006140f1601883612e01565b91506140fc826140bb565b602082019050919050565b60006020820190508181036000830152614120816140e4565b9050919050565b7f4552433732313a2061646472657373207a65726f206973206e6f74206120766160008201527f6c6964206f776e65720000000000000000000000000000000000000000000000602082015250565b6000614183602983612e01565b915061418e82614127565b604082019050919050565b600060208201905081810360008301526141b281614176565b9050919050565b60006141c482612df6565b6141ce8185613dea565b93506141de818560208601612e12565b80840191505092915050565b60006141f682856141b9565b915061420282846141b9565b91508190509392505050565b7f4552433732313a207472616e736665722066726f6d20696e636f72726563742060008201527f6f776e6572000000000000000000000000000000000000000000000000000000602082015250565b600061426a602583612e01565b91506142758261420e565b604082019050919050565b600060208201905081810360008301526142998161425d565b9050919050565b7f4552433732313a207472616e7366657220746f20746865207a65726f2061646460008201527f7265737300000000000000000000000000000000000000000000000000000000602082015250565b60006142fc602483612e01565b9150614307826142a0565b604082019050919050565b6000602082019050818103600083015261432b816142ef565b9050919050565b7f4552433732313a20617070726f766520746f2063616c6c657200000000000000600082015250565b6000614368601983612e01565b915061437382614332565b602082019050919050565b600060208201905081810360008301526143978161435b565b9050919050565b7f4552433732313a207472616e7366657220746f206e6f6e20455243373231526560008201527f63656976657220696d706c656d656e7465720000000000000000000000000000602082015250565b60006143fa603283612e01565b91506144058261439e565b604082019050919050565b60006020820190508181036000830152614429816143ed565b9050919050565b600061443b82612ea8565b915061444683612ea8565b925082820390508181111561445e5761445d613af5565b5b92915050565b600061446f82612ea8565b915061447a83612ea8565b925082820190508082111561449257614491613af5565b5b92915050565b600081519050919050565b600082825260208201905092915050565b60006144bf82614498565b6144c981856144a3565b93506144d9818560208601612e12565b6144e281612e3c565b840191505092915050565b60006080820190506145026000830187612f3d565b61450f6020830186612f3d565b61451c6040830185612fd3565b818103606083015261452e81846144b4565b905095945050505050565b60008151905061454881612d67565b92915050565b60006020828403121561456457614563612d31565b5b600061457284828501614539565b91505092915050565b7f4e487b7100000000000000000000000000000000000000000000000000000000600052601260045260246000fdfea2646970667358221220ef2bc5ed8539a4c395817d1d54dd258952c41a922e929b919cc128ae88a28dbc64736f6c63430008110033",
  "linkReferences": {},
  "deployedLinkReferences": {}
}